{
  "address": "0xA472b00DdCf03f099dB954c70133dD6F0c5Fcc26",
  "abi": [
    {
      "inputs": [],
      "stateMutability": "nonpayable",
      "type": "constructor"
    },
    {
      "inputs": [
        {
          "internalType": "address",
          "name": "_pool",
          "type": "address"
        },
        {
          "internalType": "address",
          "name": "_internal_bribe",
          "type": "address"
        },
        {
          "internalType": "address",
          "name": "_external_bribe",
          "type": "address"
        },
        {
          "internalType": "address",
          "name": "_ve",
          "type": "address"
        },
        {
          "internalType": "bool",
          "name": "isPair",
          "type": "bool"
        },
        {
          "internalType": "address[]",
          "name": "allowedRewards",
          "type": "address[]"
        }
      ],
      "name": "createGauge",
      "outputs": [
        {
          "internalType": "address",
          "name": "",
          "type": "address"
        }
      ],
      "stateMutability": "nonpayable",
      "type": "function"
    },
    {
      "inputs": [],
      "name": "last_gauge",
      "outputs": [
        {
          "internalType": "address",
          "name": "",
          "type": "address"
        }
      ],
      "stateMutability": "view",
      "type": "function"
    }
  ],
  "transactionHash": "0xc377304350382f98b661132b3c91e1a853a7e45aeac4301cc1b7d41011d71a04",
  "args": [],
  "numDeployments": 1,
  "solcInputHash": "35e0ac8ae47caef0caca6801c152e6fb",
  "bytecode": "0x6080604052600080546001600160a01b0319908116730a178469e3d08beaa0a289e416ab924f10807989179091556001805490911673ecf044c5b4b867cfda001101c617ecd347095b4417905534801561005857600080fd5b50600154600054604051632210724360e11b81526001600160a01b039182166004820152911690634420e486906024016020604051808303816000875af11580156100a7573d6000803e3d6000fd5b505050506040513d601f19601f820116820180604052508101906100cb91906100d1565b506100ea565b6000602082840312156100e357600080fd5b5051919050565b613bf1806100f96000396000f3fe608060405234801561001057600080fd5b50600436106100365760003560e01c80630bc25f4f1461003b578063730a8bdb1461006a575b600080fd5b61004e610049366004610128565b61007d565b6040516001600160a01b03909116815260200160405180910390f35b60025461004e906001600160a01b031681565b600086868686338787604051610092906100e9565b6100a29796959493929190610248565b604051809103906000f0801580156100be573d6000803e3d6000fd5b50600280546001600160a01b0319166001600160a01b03929092169182179055979650505050505050565b6138eb806102d183390190565b80356001600160a01b038116811461010d57600080fd5b919050565b634e487b7160e01b600052604160045260246000fd5b60008060008060008060c0878903121561014157600080fd5b61014a876100f6565b955060206101598189016100f6565b9550610167604089016100f6565b9450610175606089016100f6565b93506080880135801515811461018a57600080fd5b925060a088013567ffffffffffffffff808211156101a757600080fd5b818a0191508a601f8301126101bb57600080fd5b8135818111156101cd576101cd610112565b8060051b604051601f19603f830116810181811085821117156101f2576101f2610112565b60405291825284820192508381018501918d83111561021057600080fd5b938501935b8285101561023557610226856100f6565b84529385019392850192610215565b8096505050505050509295509295509295565b600060e0820160018060a01b03808b1684526020818b1681860152818a1660408601528189166060860152818816608086015286151560a086015260e060c086015282865180855261010087019150828801945060005b818110156102bd57855185168352948301949183019160010161029f565b50909d9c5050505050505050505050505056fe610120604052600080546001600160a01b0319908116730a178469e3d08beaa0a289e416ab924f10807989179091556001805490911673ecf044c5b4b867cfda001101c617ecd347095b441781556018553480156200005d57600080fd5b50604051620038eb380380620038eb833981016040819052620000809162000271565b6001600160a01b0387811660805286811660c05285811660e05284811660a0528316610100526004805460ff191683151517905560005b8151811015620001ba5760006001600160a01b0316828281518110620000e157620000e1620003bc565b60200260200101516001600160a01b031614620001a5576001600f6000848481518110620001135762000113620003bc565b60200260200101516001600160a01b03166001600160a01b0316815260200190815260200160002060006101000a81548160ff021916908315150217905550600e828281518110620001695762000169620003bc565b60209081029190910181015182546001810184556000938452919092200180546001600160a01b0319166001600160a01b039092169190911790555b80620001b181620003d2565b915050620000b7565b50600154600054604051632210724360e11b81526001600160a01b039182166004820152911690634420e486906024016020604051808303816000875af11580156200020a573d6000803e3d6000fd5b505050506040513d601f19601f82011682018060405250810190620002309190620003fa565b505050505050505062000414565b80516001600160a01b03811681146200025657600080fd5b919050565b634e487b7160e01b600052604160045260246000fd5b600080600080600080600060e0888a0312156200028d57600080fd5b62000298886200023e565b96506020620002a9818a016200023e565b9650620002b960408a016200023e565b9550620002c960608a016200023e565b9450620002d960808a016200023e565b935060a08901518015158114620002ef57600080fd5b60c08a01519093506001600160401b03808211156200030d57600080fd5b818b0191508b601f8301126200032257600080fd5b8151818111156200033757620003376200025b565b8060051b604051601f19603f830116810181811085821117156200035f576200035f6200025b565b60405291825284820192508381018501918e8311156200037e57600080fd5b938501935b82851015620003a75762000397856200023e565b8452938501939285019262000383565b80965050505050505092959891949750929550565b634e487b7160e01b600052603260045260246000fd5b600060018201620003f357634e487b7160e01b600052601160045260246000fd5b5060010190565b6000602082840312156200040d57600080fd5b5051919050565b60805160a05160c05160e051610100516133ff620004ec6000396000818161045301528181610beb01528181610c300152818161140b01528181611aa501528181611bca0152818161205a0152612172015260006102eb01526000818161056201528181612aa601528181612b3d01528181612b8801528181612c0e01528181612ca30152612cee0152600081816105910152818161117301526119d9015260008181610401015281816113910152818161187e0152818161195101528181611fdb0152818161293e0152612a0001526133ff6000f3fe608060405234801561001057600080fd5b50600436106102955760003560e01c8063853828b611610167578063d7da4bb0116100ce578063f122977711610087578063f1229777146106fe578063f301af4214610711578063f7412baf14610724578063fc97a3031461074b578063fd3140981461076b578063fdb483c71461077e57600080fd5b8063d7da4bb0146106a4578063da09d19d146106ad578063e2bbb158146106cd578063e5748213146106e0578063e6886396146106ed578063e8111a12146106f557600080fd5b8063a495e5b511610120578063a495e5b514610602578063aa4796521461062d578063b66503cf1461064d578063c6f678bd14610660578063d294f09314610673578063d35e25441461067b57600080fd5b8063853828b6146105845780638dd598fb1461058c57806393f1c442146105b35780639418f939146105bc57806399bcc052146105cf5780639ce43f90146105e257600080fd5b80633ca068b61161020b57806363fb415b116101c457806363fb415b146104d757806368fcee1a146104f75780636fcfff451461050a57806370a082311461052a57806376f4be361461054a578063770f85711461055d57600080fd5b80633ca068b61461042357806346c96aac1461044e5780634c02a21c146104755780634d5ce0381461047e5780635a45d052146104b1578063638634ee146104c457600080fd5b8063211dc32d1161025d578063211dc32d14610381578063221ca18c146103945780632ce9aead146103b45780632e1a7d4d146103d457806331279d3d146103e95780633a4b66f1146103fc57600080fd5b806301316ddf1461029a57806303fbf83a146102e65780630cdfebfa14610325578063115c6f391461035757806318160ddd14610378575b600080fd5b6102cc6102a836600461303f565b60146020908152600092835260408084209091529082529020805460019091015482565b604080519283526020830191909152015b60405180910390f35b61030d7f000000000000000000000000000000000000000000000000000000000000000081565b6040516001600160a01b0390911681526020016102dd565b6102cc61033336600461303f565b60106020908152600092835260408084209091529082529020805460019091015482565b61036a61036536600461303f565b610791565b6040519081526020016102dd565b61036a600c5481565b61036a61038f36600461306b565b610900565b61036a6103a23660046130a4565b60056020526000908152604090205481565b61036a6103c23660046130a4565b60076020526000908152604090205481565b6103e76103e23660046130c1565b610b84565b005b6103e76103f73660046130f0565b610bba565b61030d7f000000000000000000000000000000000000000000000000000000000000000081565b61036a61043136600461306b565b600a60209081526000928352604080842090915290825290205481565b61030d7f000000000000000000000000000000000000000000000000000000000000000081565b61036a60175481565b6104a161048c3660046130a4565b600f6020526000908152604090205460ff1681565b60405190151581526020016102dd565b6103e76104bf36600461303f565b610fba565b61036a6104d23660046130a4565b610ff2565b61036a6104e53660046130a4565b60036020526000908152604090205481565b6103e761050536600461303f565b611016565b61036a6105183660046130a4565b60116020526000908152604090205481565b61036a6105383660046130a4565b600d6020526000908152604090205481565b61036a6105583660046130c1565b611022565b61030d7f000000000000000000000000000000000000000000000000000000000000000081565b6103e7611156565b61030d7f000000000000000000000000000000000000000000000000000000000000000081565b61036a60165481565b6103e76105ca3660046131ca565b611171565b61036a6105dd3660046130a4565b611302565b61036a6105f03660046130a4565b60086020526000908152604090205481565b61036a61061036600461306b565b600960209081526000928352604080842090915290825290205481565b61036a61063b3660046130a4565b60156020526000908152604090205481565b6103e761065b36600461303f565b611373565b6103e761066e3660046130c1565b611865565b6102cc6118fa565b61036a6106893660046130a4565b6001600160a01b03166000908152600d602052604090205490565b61036a60025481565b61036a6106bb3660046130a4565b60066020526000908152604090205481565b6103e76106db36600461320c565b611926565b6004546104a19060ff1681565b600e5461036a565b61036a60135481565b61036a61070c3660046130a4565b611c74565b61030d61071f3660046130c1565b611d33565b6102cc6107323660046130c1565b6012602052600090815260409020805460019091015482565b61036a6107593660046130a4565b600b6020526000908152604090205481565b6102cc61077936600461303f565b611d5d565b6103e761078c36600461320c565b611f7e565b6001600160a01b0382166000908152601160205260408120548082036107bb5760009150506108fa565b6001600160a01b038416600090815260106020526040812084916107e0600185613244565b8152602001908152602001600020600001541161080a57610802600182613244565b9150506108fa565b6001600160a01b038416600090815260106020908152604080832083805290915290205483101561083f5760009150506108fa565b60008061084d600184613244565b90505b818111156108f557600060026108668484613244565b610870919061325b565b61087a9083613244565b6001600160a01b03881660009081526010602090815260408083208484528252918290208251808401909352805480845260019091015491830191909152919250908790036108cf575093506108fa92505050565b80518711156108e0578193506108ee565b6108eb600183613244565b92505b5050610850565b509150505b92915050565b6001600160a01b0380831660008181526009602090815260408083209486168352938152838220549282526014815283822082805290529182205482916109469161220e565b6001600160a01b038416600090815260116020526040812054919250036109715760009150506108fa565b600061097d8483610791565b6001600160a01b038516600090815260116020526040812054919250906109a690600190613244565b905060008115610ab857825b6109bd600184613244565b8111610ab6576001600160a01b03871660008181526010602081815260408084208685528083528185208251808401909352805483526001908101548385015295855292909152928290610a1290869061327d565b81526020019081526020016000206040518060400160405290816000820154815260200160018201548152505090506000610a518b8460000151611d5d565b5090506000610a648c8460000151611d5d565b509050670de0b6b3a7640000610a7a8383613244565b8560200151610a899190613295565b610a93919061325b565b610a9d908761327d565b9550505050508080610aae906132b4565b9150506109b2565b505b6001600160a01b0386166000908152601060209081526040808320858452825280832081518083019092528054808352600190910154928201929092529190610b02908a90611d5d565b506001600160a01b03808b166000908152600a60209081526040808320938d1683529290522054909150670de0b6b3a764000090610b4190839061220e565b610b4a8b611c74565b610b549190613244565b8360200151610b639190613295565b610b6d919061325b565b610b77908461327d565b9998505050505050505050565b336000908152600d60205260408120548203610bac5750336000908152600b60205260409020545b610bb68282611f7e565b5050565b601854600114610bc957600080fd5b6002601855336001600160a01b0383161480610c0d5750336001600160a01b037f000000000000000000000000000000000000000000000000000000000000000016145b610c1657600080fd5b60016018556040516363453ae160e01b81523060048201527f00000000000000000000000000000000000000000000000000000000000000006001600160a01b0316906363453ae190602401600060405180830381600087803b158015610c7c57600080fd5b505af1158015610c90573d6000803e3d6000fd5b5050600260185550600090505b8151811015610f1357610ccd828281518110610cbb57610cbb6132cd565b60200260200101516000196001612224565b60086000858581518110610ce357610ce36132cd565b60200260200101516001600160a01b03166001600160a01b03168152602001908152602001600020600060076000878781518110610d2357610d236132cd565b60200260200101516001600160a01b03166001600160a01b0316815260200190815260200160002060008491905055839190505550506000610d7e838381518110610d7057610d706132cd565b602002602001015185610900565b90504260096000858581518110610d9757610d976132cd565b60200260200101516001600160a01b03166001600160a01b031681526020019081526020016000206000866001600160a01b03166001600160a01b031681526020019081526020016000208190555060086000848481518110610dfc57610dfc6132cd565b60200260200101516001600160a01b03166001600160a01b0316815260200190815260200160002054600a6000858581518110610e3b57610e3b6132cd565b6020908102919091018101516001600160a01b039081168352828201939093526040918201600090812093891681529290529020558015610e9a57610e9a838381518110610e8b57610e8b6132cd565b60200260200101518583612414565b828281518110610eac57610eac6132cd565b60200260200101516001600160a01b0316336001600160a01b03167f9aa05b3d70a9e3e2f004f039648839560576334fb45c81f91b6db03ad9e2efc983604051610ef891815260200190565b60405180910390a35080610f0b816132b4565b915050610c9d565b506001600160a01b0382166000908152600360205260408120546002805491928392610f40908490613244565b9091555050506001600160a01b0382166000908152600d6020908152604080832054600390925282208190556002805491928392610f7f90849061327d565b90915550506001600160a01b038316600090815260036020526040902054610fa8908490612514565b610fb061261f565b5050600160185550565b610fc482826126c3565b6001600160a01b03909316600090815260086020908152604080832060079092529091209390935590915550565b6001600160a01b0381166000908152600660205260408120546108fa904290612826565b610fc482826000612224565b6013546000908082036110385750600092915050565b8260126000611048600185613244565b815260200190815260200160002060000154116110715761106a600182613244565b9392505050565b6000805260126020527f7e7fa33969761a458e04f477e039a608702b4f924981d6653935a8319a08ad7b548310156110ac5750600092915050565b6000806110ba600184613244565b90505b8181111561114e57600060026110d38484613244565b6110dd919061325b565b6110e79083613244565b600081815260126020908152604091829020825180840190935280548084526001909101549183019190915291925090879003611128575095945050505050565b805187111561113957819350611147565b611144600183613244565b92505b50506110bd565b509392505050565b336000908152600d602052604090205461116f90610b84565b565b7f00000000000000000000000000000000000000000000000000000000000000006001600160a01b03166385f2aef26040518163ffffffff1660e01b81526004016020604051808303816000875af11580156111d1573d6000803e3d6000fd5b505050506040513d601f19601f820116820180604052508101906111f591906132e3565b6001600160a01b0316336001600160a01b0316146112465760405162461bcd60e51b81526020600482015260096024820152686f6e6c79207465616d60b81b60448201526064015b60405180910390fd5b816001600160a01b0316600e8481548110611263576112636132cd565b6000918252602090912001546001600160a01b03161461128257600080fd5b6001600160a01b038083166000908152600f6020526040808220805460ff199081169091559284168252902080549091166001179055600e8054829190859081106112cf576112cf6132cd565b9060005260206000200160006101000a8154816001600160a01b0302191690836001600160a01b03160217905550505050565b6001600160a01b038116600090815260066020526040812054421061132957506000919050565b6001600160a01b03821660009081526006602052604081205461134d904290613244565b6001600160a01b03841660009081526005602052604090205490915061106a9082613295565b60185460011461138257600080fd5b60026018556001600160a01b037f00000000000000000000000000000000000000000000000000000000000000008116908316036113bf57600080fd5b600081116113cc57600080fd5b6001600160a01b0382166000908152600f602052604090205460ff1661151f57604051633af32abf60e01b81526001600160a01b0383811660048301527f00000000000000000000000000000000000000000000000000000000000000001690633af32abf90602401602060405180830381865afa158015611452573d6000803e3d6000fd5b505050506040513d601f19601f820116820180604052508101906114769190613300565b6114cd5760405162461bcd60e51b815260206004820152602260248201527f7265776172647320746f6b656e73206d7573742062652077686974656c697374604482015261195960f21b606482015260840161123d565b600e5460101161151f5760405162461bcd60e51b815260206004820152601760248201527f746f6f206d616e79207265776172647320746f6b656e73000000000000000000604482015260640161123d565b6001600160a01b038216600090815260056020526040812054900361154a5761154a82600042612835565b611558826000196001612224565b6001600160a01b038416600090815260086020908152604080832060079092529091209190915555611588612924565b50506001600160a01b03821660009081526006602052604090205442106115e0576115b582333084612d99565b6115c262093a808261325b565b6001600160a01b038316600090815260056020526040902055611679565b6001600160a01b038216600090815260066020526040812054611604904290613244565b6001600160a01b0384166000908152600560205260408120549192509061162b9083613295565b905080831161163957600080fd5b61164584333086612d99565b62093a80611653828561327d565b61165d919061325b565b6001600160a01b03851660009081526005602052604090205550505b6001600160a01b03821660009081526005602052604090205461169b57600080fd5b6040516370a0823160e01b81523060048201526000906001600160a01b038416906370a0823190602401602060405180830381865afa1580156116e2573d6000803e3d6000fd5b505050506040513d601f19601f820116820180604052508101906117069190613322565b905061171562093a808261325b565b6001600160a01b038416600090815260056020526040902054111561177c5760405162461bcd60e51b815260206004820152601860248201527f50726f76696465642072657761726420746f6f20686967680000000000000000604482015260640161123d565b61178962093a804261327d565b6001600160a01b038416600090815260066020908152604080832093909355600f9052205460ff1661181b576001600160a01b0383166000818152600f60205260408120805460ff19166001908117909155600e805491820181559091527fbb7b4a454dc3493923482f07822329ed19e8244eff582cc204f8554c3620c3fd0180546001600160a01b03191690911790555b6040518281526001600160a01b0384169033907ff70d5c697de7ea828df48e5c4573cb2194c659f1901f70110c52b066dcf508269060200160405180910390a35050600160185550565b6040516370a0823160e01b81523360048201526118f7907f00000000000000000000000000000000000000000000000000000000000000006001600160a01b0316906370a0823190602401602060405180830381865afa1580156118cd573d6000803e3d6000fd5b505050506040513d601f19601f820116820180604052508101906118f19190613322565b82611926565b50565b60008060185460011461190c57600080fd5b6002601855611919612924565b9150915060016018559091565b60185460011461193557600080fd5b60026018558161194457600080fd5b61194c612e91565b6119787f0000000000000000000000000000000000000000000000000000000000000000333085612d99565b81600c600082825461198a919061327d565b9091555050336000908152600d6020526040812080548492906119ae90849061327d565b90915550508015611b22576040516331a9108f60e11b81526004810182905233906001600160a01b037f00000000000000000000000000000000000000000000000000000000000000001690636352211e90602401602060405180830381865afa158015611a20573d6000803e3d6000fd5b505050506040513d601f19601f82011682018060405250810190611a4491906132e3565b6001600160a01b031614611a5757600080fd5b336000908152600b60205260408120549003611b0257336000818152600b6020526040908190208390555163698473e360e01b81526004810183905260248101919091526001600160a01b037f0000000000000000000000000000000000000000000000000000000000000000169063698473e390604401600060405180830381600087803b158015611ae957600080fd5b505af1158015611afd573d6000803e3d6000fd5b505050505b336000908152600b60205260409020548114611b1d57600080fd5b611b34565b50336000908152600b60205260409020545b336000908152600360205260408120546002805491928392611b57908490613244565b9091555050336000908152600d6020908152604080832054600390925282208190556002805491935083929091611b8f90849061327d565b90915550611b9f90503382612514565b611ba761261f565b60405163530e389d60e11b815260048101839052336024820152604481018490527f00000000000000000000000000000000000000000000000000000000000000006001600160a01b03169063a61c713a90606401600060405180830381600087803b158015611c1657600080fd5b505af1158015611c2a573d6000803e3d6000fd5b505060408051858152602081018790523393507f90890809c654f11d6e72a28fa60149770a0d11ec6c92319d6ceb2bb0a4ea1a159250015b60405180910390a25050600160185550565b6000600254600003611c9c57506001600160a01b031660009081526008602052604090205490565b6002546001600160a01b03831660009081526005602090815260408083205460078352818420546006909352922054670de0b6b3a76400009291611cdf91612826565b611ce886610ff2565b611cf29190613244565b611cfc9190613295565b611d069190613295565b611d10919061325b565b6001600160a01b0383166000908152600860205260409020546108fa919061327d565b600e8181548110611d4357600080fd5b6000918252602090912001546001600160a01b0316905081565b6001600160a01b0382166000908152601560205260408120548190808203611d8c576000809250925050611f77565b6001600160a01b03851660009081526014602052604081208591611db1600185613244565b81526020019081526020016000206000015411611e4e576001600160a01b038516600090815260146020526040812090611dec600184613244565b81526020019081526020016000206001015460146000876001600160a01b03166001600160a01b031681526020019081526020016000206000600184611e329190613244565b8152602001908152602001600020600001549250925050611f77565b6001600160a01b0385166000908152601460209081526040808320838052909152902054841015611e86576000809250925050611f77565b600080611e94600184613244565b90505b81811115611f465760006002611ead8484613244565b611eb7919061325b565b611ec19083613244565b6001600160a01b0389166000908152601460209081526040808320848452825291829020825180840190935280548084526001909101549183019190915291925090889003611f2057602081015190519096509450611f779350505050565b8051881115611f3157819350611f3f565b611f3c600183613244565b92505b5050611e97565b506001600160a01b038616600090815260146020908152604080832093835292905220600181015490549093509150505b9250929050565b601854600114611f8d57600080fd5b6002601855611f9a612e91565b81600c6000828254611fac9190613244565b9091555050336000908152600d602052604081208054849290611fd0908490613244565b9091555061200190507f00000000000000000000000000000000000000000000000000000000000000003384612414565b80156120bb57336000908152600b6020526040902054811461202257600080fd5b336000818152600b6020526040808220919091555163411b1f7760e01b81526004810183905260248101919091526001600160a01b037f0000000000000000000000000000000000000000000000000000000000000000169063411b1f7790604401600060405180830381600087803b15801561209e57600080fd5b505af11580156120b2573d6000803e3d6000fd5b505050506120cd565b50336000908152600b60205260409020545b3360009081526003602052604081205460028054919283926120f0908490613244565b9091555050336000908152600d602090815260408083205460039092528220819055600280549193508392909161212890849061327d565b9091555050336000818152600360205260409020546121479190612514565b61214f61261f565b604051633aa53b9160e21b815260048101839052336024820152604481018490527f00000000000000000000000000000000000000000000000000000000000000006001600160a01b03169063ea94ee4490606401600060405180830381600087803b1580156121be57600080fd5b505af11580156121d2573d6000803e3d6000fd5b505060408051858152602081018790523393507ff279e6a1f5e320cca91135676d9cb6e44ca8a08c0b88342bcdb1144f6511b568925001611c62565b600081831161221d578161106a565b5090919050565b6001600160a01b038316600090815260076020908152604080832054600890925282205460135483929190830361225e579250905061240c565b6001600160a01b038716600090815260056020526040812054900361228957925042915061240c9050565b600061229483611022565b905060006122b060016013546122aa9190613244565b89612826565b9050801561238957815b6122c5600183613244565b811161238757600081815260126020908152604091829020825180840190935280548352600101549082018190521561237457600060128161230885600161327d565b81526020019081526020016000206040518060400160405290816000820154815260200160018201548152505090506000806123538e8460000151866000015187602001518d612f15565b9092509050612362828961327d565b975061236f8e8983612835565b975050505b508061237f816132b4565b9150506122ba565b505b86156124035760008181526012602090815260409182902082518084019093528054835260010154908201819052156124015760006123e28b6123cb8d610ff2565b84516123d7908a61220e565b85602001518a612f15565b5090506123ef818661327d565b94506123fc8b8642612835565b429550505b505b50909350909150505b935093915050565b6000836001600160a01b03163b1161242b57600080fd5b6040516001600160a01b03838116602483015260448201839052600091829186169063a9059cbb60e01b906064015b60408051601f198184030181529181526020820180516001600160e01b03166001600160e01b0319909416939093179092529051612498919061333b565b6000604051808303816000865af19150503d80600081146124d5576040519150601f19603f3d011682016040523d82523d6000602084013e6124da565b606091505b50915091508180156125045750805115806125045750808060200190518101906125049190613300565b61250d57600080fd5b5050505050565b6001600160a01b0382166000908152601160205260409020544290801580159061257257506001600160a01b0384166000908152601060205260408120839161255e600185613244565b815260200190815260200160002060000154145b156125b5576001600160a01b0384166000908152601060205260408120849161259c600185613244565b8152602081019190915260400160002060010155612619565b60408051808201825283815260208082018681526001600160a01b0388166000908152601083528481208682529092529290209051815590516001918201556125ff90829061327d565b6001600160a01b0385166000908152601160205260409020555b50505050565b6013544281158015906126515750806012600061263d600186613244565b815260200190815260200160002060000154145b156126805760025460126000612668600186613244565b81526020810191909152604001600020600101555050565b604080518082018252828152600254602080830191825260008681526012909152929092209051815590516001918201556126bc90839061327d565b6013555050565b6001600160a01b03821660009081526007602090815260408083205460089092528220546013548392919083036126fd5792509050611f77565b6001600160a01b0386166000908152600560205260408120549003612728579250429150611f779050565b600061273383611022565b9050600061274f60016013546127499190613244565b88612826565b9050815b8181101561281757600081815260126020908152604091829020825180840190935280548352600101549082018190521561280457600060128161279885600161327d565b81526020019081526020016000206040518060400160405290816000820154815260200160018201548152505090506000806127e38d8460000151866000015187602001518d612f15565b90925090506127f2828961327d565b97506127ff8d8983612835565b975050505b508061280f816132b4565b915050612753565b50919792965091945050505050565b600081831061221d578161106a565b6001600160a01b038316600090815260156020526040902054801580159061289157506001600160a01b0384166000908152601460205260408120839161287d600185613244565b815260200190815260200160002060000154145b156128bb576001600160a01b0384166000908152601460205260408120849161259c600185613244565b60408051808201825283815260208082018681526001600160a01b03881660009081526014835284812086825290925292902090518155905160019182015561290590829061327d565b6001600160a01b03851660009081526015602052604090205550505050565b600454600090819060ff1661293c5750600091829150565b7f00000000000000000000000000000000000000000000000000000000000000006001600160a01b031663d294f0936040518163ffffffff1660e01b815260040160408051808303816000875af115801561299b573d6000803e3d6000fd5b505050506040513d601f19601f820116820180604052508101906129bf9190613376565b9092509050811515806129d25750600081115b15612d95576000826016546129e7919061327d565b90506000826017546129f9919061327d565b90506000807f00000000000000000000000000000000000000000000000000000000000000006001600160a01b0316639d63848a6040518163ffffffff1660e01b815260040160408051808303816000875af1158015612a5d573d6000803e3d6000fd5b505050506040513d601f19601f82011682018060405250810190612a81919061339a565b604051634cde602960e11b81526001600160a01b0380841660048301529294509092507f0000000000000000000000000000000000000000000000000000000000000000909116906399bcc05290602401602060405180830381865afa158015612aef573d6000803e3d6000fd5b505050506040513d601f19601f82011682018060405250810190612b139190613322565b84118015612b2d57506000612b2b62093a808661325b565b115b15612be9576000601655612b62827f000000000000000000000000000000000000000000000000000000000000000086612fd0565b60405163b66503cf60e01b81526001600160a01b038381166004830152602482018690527f0000000000000000000000000000000000000000000000000000000000000000169063b66503cf90604401600060405180830381600087803b158015612bcc57600080fd5b505af1158015612be0573d6000803e3d6000fd5b50505050612bef565b60168490555b604051634cde602960e11b81526001600160a01b0382811660048301527f000000000000000000000000000000000000000000000000000000000000000016906399bcc05290602401602060405180830381865afa158015612c55573d6000803e3d6000fd5b505050506040513d601f19601f82011682018060405250810190612c799190613322565b83118015612c9357506000612c9162093a808561325b565b115b15612d4f576000601755612cc8817f000000000000000000000000000000000000000000000000000000000000000085612fd0565b60405163b66503cf60e01b81526001600160a01b038281166004830152602482018590527f0000000000000000000000000000000000000000000000000000000000000000169063b66503cf90604401600060405180830381600087803b158015612d3257600080fd5b505af1158015612d46573d6000803e3d6000fd5b50505050612d55565b60178390555b604080518781526020810187905233917fbc567d6cbad26368064baa0ab5a757be46aae4d70f707f9203d9d9b6c8ccbfa3910160405180910390a2505050505b9091565b6000846001600160a01b03163b11612db057600080fd5b604080516001600160a01b0385811660248301528481166044830152606480830185905283518084039091018152608490920183526020820180516001600160e01b03166323b872dd60e01b1790529151600092839290881691612e14919061333b565b6000604051808303816000865af19150503d8060008114612e51576040519150601f19603f3d011682016040523d82523d6000602084013e612e56565b606091505b5091509150818015612e80575080511580612e80575080806020019051810190612e809190613300565b612e8957600080fd5b505050505050565b600e5460005b81811015610bb6576000600e8281548110612eb457612eb46132cd565b6000918252602090912001546001600160a01b03169050612ed9816000196001612224565b6001600160a01b039092166000908152600860209081526040808320600790925290912092909255905580612f0d816132b4565b915050612e97565b6000806000612f24878561220e565b6001600160a01b0389166000908152600560205260409020549091508590670de0b6b3a764000090612f77612f598a8961220e565b6001600160a01b038d16600090815260066020526040902054612826565b6001600160a01b038c16600090815260066020526040902054612f9b908690612826565b612fa59190613244565b612faf9190613295565b612fb99190613295565b612fc3919061325b565b9890975095505050505050565b6000836001600160a01b03163b11612fe757600080fd5b6040516001600160a01b03838116602483015260448201839052600091829186169063095ea7b360e01b9060640161245a565b6001600160a01b03811681146118f757600080fd5b803561303a8161301a565b919050565b6000806040838503121561305257600080fd5b823561305d8161301a565b946020939093013593505050565b6000806040838503121561307e57600080fd5b82356130898161301a565b915060208301356130998161301a565b809150509250929050565b6000602082840312156130b657600080fd5b813561106a8161301a565b6000602082840312156130d357600080fd5b5035919050565b634e487b7160e01b600052604160045260246000fd5b6000806040838503121561310357600080fd5b823561310e8161301a565b915060208381013567ffffffffffffffff8082111561312c57600080fd5b818601915086601f83011261314057600080fd5b813581811115613152576131526130da565b8060051b604051601f19603f83011681018181108582111715613177576131776130da565b60405291825284820192508381018501918983111561319557600080fd5b938501935b828510156131ba576131ab8561302f565b8452938501939285019261319a565b8096505050505050509250929050565b6000806000606084860312156131df57600080fd5b8335925060208401356131f18161301a565b915060408401356132018161301a565b809150509250925092565b6000806040838503121561321f57600080fd5b50508035926020909101359150565b634e487b7160e01b600052601160045260246000fd5b6000828210156132565761325661322e565b500390565b60008261327857634e487b7160e01b600052601260045260246000fd5b500490565b600082198211156132905761329061322e565b500190565b60008160001904831182151516156132af576132af61322e565b500290565b6000600182016132c6576132c661322e565b5060010190565b634e487b7160e01b600052603260045260246000fd5b6000602082840312156132f557600080fd5b815161106a8161301a565b60006020828403121561331257600080fd5b8151801515811461106a57600080fd5b60006020828403121561333457600080fd5b5051919050565b6000825160005b8181101561335c5760208186018101518583015201613342565b8181111561336b576000828501525b509190910192915050565b6000806040838503121561338957600080fd5b505080516020909101519092909150565b600080604083850312156133ad57600080fd5b82516133b88161301a565b60208401519092506130998161301a56fea264697066735822122042ab2b195c6ebb2c28f99a293ebcf1800f1d6534f3657c122f04167ae7ac823c64736f6c634300080d0033a264697066735822122048daf71958c814fb747ef6c5579c06ded5cb9f3b911884e9b16031673445c3bf64736f6c634300080d0033",
  "devdoc": {
    "kind": "dev",
    "methods": {},
    "version": 1
  },
  "userdoc": {
    "kind": "user",
    "methods": {},
    "version": 1
  },
  "storageLayout": {
    "storage": [
      {
        "astId": 21906,
        "contract": "contracts/factories/GaugeFactory.sol:GaugeFactory",
        "label": "multisig",
        "offset": 0,
        "slot": "0",
        "type": "t_address"
      },
      {
        "astId": 21909,
        "contract": "contracts/factories/GaugeFactory.sol:GaugeFactory",
        "label": "turnstile",
        "offset": 0,
        "slot": "1",
        "type": "t_address"
      },
      {
        "astId": 21911,
        "contract": "contracts/factories/GaugeFactory.sol:GaugeFactory",
        "label": "last_gauge",
        "offset": 0,
        "slot": "2",
        "type": "t_address"
      }
    ],
    "types": {
      "t_address": {
        "encoding": "inplace",
        "label": "address",
        "numberOfBytes": "20"
      }
    }
  }
}