{
  "address": "0xb12aF64E128A1D4489D13314eB4Df81cBCE126aC",
  "abi": [
    {
      "inputs": [],
      "stateMutability": "nonpayable",
      "type": "constructor"
    },
    {
      "anonymous": false,
      "inputs": [
        {
          "indexed": true,
          "internalType": "address",
          "name": "token0",
          "type": "address"
        },
        {
          "indexed": true,
          "internalType": "address",
          "name": "token1",
          "type": "address"
        },
        {
          "indexed": false,
          "internalType": "bool",
          "name": "stable",
          "type": "bool"
        },
        {
          "indexed": false,
          "internalType": "address",
          "name": "pair",
          "type": "address"
        },
        {
          "indexed": false,
          "internalType": "uint256",
          "name": "",
          "type": "uint256"
        }
      ],
      "name": "PairCreated",
      "type": "event"
    },
    {
      "inputs": [],
      "name": "MAX_FEE",
      "outputs": [
        {
          "internalType": "uint256",
          "name": "",
          "type": "uint256"
        }
      ],
      "stateMutability": "view",
      "type": "function"
    },
    {
      "inputs": [],
      "name": "acceptFeeManager",
      "outputs": [],
      "stateMutability": "nonpayable",
      "type": "function"
    },
    {
      "inputs": [],
      "name": "acceptPauser",
      "outputs": [],
      "stateMutability": "nonpayable",
      "type": "function"
    },
    {
      "inputs": [
        {
          "internalType": "address",
          "name": "_tank",
          "type": "address"
        }
      ],
      "name": "acceptTank",
      "outputs": [],
      "stateMutability": "nonpayable",
      "type": "function"
    },
    {
      "inputs": [
        {
          "internalType": "uint256",
          "name": "",
          "type": "uint256"
        }
      ],
      "name": "allPairs",
      "outputs": [
        {
          "internalType": "address",
          "name": "",
          "type": "address"
        }
      ],
      "stateMutability": "view",
      "type": "function"
    },
    {
      "inputs": [],
      "name": "allPairsLength",
      "outputs": [
        {
          "internalType": "uint256",
          "name": "",
          "type": "uint256"
        }
      ],
      "stateMutability": "view",
      "type": "function"
    },
    {
      "inputs": [
        {
          "internalType": "address",
          "name": "tokenA",
          "type": "address"
        },
        {
          "internalType": "address",
          "name": "tokenB",
          "type": "address"
        },
        {
          "internalType": "bool",
          "name": "stable",
          "type": "bool"
        }
      ],
      "name": "createPair",
      "outputs": [
        {
          "internalType": "address",
          "name": "pair",
          "type": "address"
        }
      ],
      "stateMutability": "nonpayable",
      "type": "function"
    },
    {
      "inputs": [],
      "name": "deployer",
      "outputs": [
        {
          "internalType": "address",
          "name": "",
          "type": "address"
        }
      ],
      "stateMutability": "view",
      "type": "function"
    },
    {
      "inputs": [],
      "name": "feeManager",
      "outputs": [
        {
          "internalType": "address",
          "name": "",
          "type": "address"
        }
      ],
      "stateMutability": "view",
      "type": "function"
    },
    {
      "inputs": [
        {
          "internalType": "bool",
          "name": "_stable",
          "type": "bool"
        }
      ],
      "name": "getFee",
      "outputs": [
        {
          "internalType": "uint256",
          "name": "",
          "type": "uint256"
        }
      ],
      "stateMutability": "view",
      "type": "function"
    },
    {
      "inputs": [],
      "name": "getInitializable",
      "outputs": [
        {
          "internalType": "address",
          "name": "",
          "type": "address"
        },
        {
          "internalType": "address",
          "name": "",
          "type": "address"
        },
        {
          "internalType": "bool",
          "name": "",
          "type": "bool"
        }
      ],
      "stateMutability": "view",
      "type": "function"
    },
    {
      "inputs": [
        {
          "internalType": "address",
          "name": "",
          "type": "address"
        },
        {
          "internalType": "address",
          "name": "",
          "type": "address"
        },
        {
          "internalType": "bool",
          "name": "",
          "type": "bool"
        }
      ],
      "name": "getPair",
      "outputs": [
        {
          "internalType": "address",
          "name": "",
          "type": "address"
        }
      ],
      "stateMutability": "view",
      "type": "function"
    },
    {
      "inputs": [],
      "name": "getVoter",
      "outputs": [
        {
          "internalType": "address",
          "name": "",
          "type": "address"
        }
      ],
      "stateMutability": "view",
      "type": "function"
    },
    {
      "inputs": [
        {
          "internalType": "address",
          "name": "",
          "type": "address"
        }
      ],
      "name": "isPair",
      "outputs": [
        {
          "internalType": "bool",
          "name": "",
          "type": "bool"
        }
      ],
      "stateMutability": "view",
      "type": "function"
    },
    {
      "inputs": [],
      "name": "isPaused",
      "outputs": [
        {
          "internalType": "bool",
          "name": "",
          "type": "bool"
        }
      ],
      "stateMutability": "view",
      "type": "function"
    },
    {
      "inputs": [],
      "name": "pairCodeHash",
      "outputs": [
        {
          "internalType": "bytes32",
          "name": "",
          "type": "bytes32"
        }
      ],
      "stateMutability": "pure",
      "type": "function"
    },
    {
      "inputs": [],
      "name": "pauser",
      "outputs": [
        {
          "internalType": "address",
          "name": "",
          "type": "address"
        }
      ],
      "stateMutability": "view",
      "type": "function"
    },
    {
      "inputs": [],
      "name": "pendingFeeManager",
      "outputs": [
        {
          "internalType": "address",
          "name": "",
          "type": "address"
        }
      ],
      "stateMutability": "view",
      "type": "function"
    },
    {
      "inputs": [],
      "name": "pendingPauser",
      "outputs": [
        {
          "internalType": "address",
          "name": "",
          "type": "address"
        }
      ],
      "stateMutability": "view",
      "type": "function"
    },
    {
      "inputs": [
        {
          "internalType": "bool",
          "name": "_stable",
          "type": "bool"
        },
        {
          "internalType": "uint256",
          "name": "_fee",
          "type": "uint256"
        }
      ],
      "name": "setFee",
      "outputs": [],
      "stateMutability": "nonpayable",
      "type": "function"
    },
    {
      "inputs": [
        {
          "internalType": "address",
          "name": "_feeManager",
          "type": "address"
        }
      ],
      "name": "setFeeManager",
      "outputs": [],
      "stateMutability": "nonpayable",
      "type": "function"
    },
    {
      "inputs": [
        {
          "internalType": "bool",
          "name": "_state",
          "type": "bool"
        }
      ],
      "name": "setPause",
      "outputs": [],
      "stateMutability": "nonpayable",
      "type": "function"
    },
    {
      "inputs": [
        {
          "internalType": "address",
          "name": "_pauser",
          "type": "address"
        }
      ],
      "name": "setPauser",
      "outputs": [],
      "stateMutability": "nonpayable",
      "type": "function"
    },
    {
      "inputs": [
        {
          "internalType": "address",
          "name": "_tank",
          "type": "address"
        }
      ],
      "name": "setTank",
      "outputs": [],
      "stateMutability": "nonpayable",
      "type": "function"
    },
    {
      "inputs": [
        {
          "internalType": "address",
          "name": "_team",
          "type": "address"
        }
      ],
      "name": "setTeam",
      "outputs": [],
      "stateMutability": "nonpayable",
      "type": "function"
    },
    {
      "inputs": [
        {
          "internalType": "address",
          "name": "_voter",
          "type": "address"
        }
      ],
      "name": "setVoter",
      "outputs": [],
      "stateMutability": "nonpayable",
      "type": "function"
    },
    {
      "inputs": [],
      "name": "stableFee",
      "outputs": [
        {
          "internalType": "uint256",
          "name": "",
          "type": "uint256"
        }
      ],
      "stateMutability": "view",
      "type": "function"
    },
    {
      "inputs": [],
      "name": "tank",
      "outputs": [
        {
          "internalType": "address",
          "name": "",
          "type": "address"
        }
      ],
      "stateMutability": "view",
      "type": "function"
    },
    {
      "inputs": [],
      "name": "team",
      "outputs": [
        {
          "internalType": "address",
          "name": "",
          "type": "address"
        }
      ],
      "stateMutability": "view",
      "type": "function"
    },
    {
      "inputs": [],
      "name": "volatileFee",
      "outputs": [
        {
          "internalType": "uint256",
          "name": "",
          "type": "uint256"
        }
      ],
      "stateMutability": "view",
      "type": "function"
    },
    {
      "inputs": [],
      "name": "voter",
      "outputs": [
        {
          "internalType": "address",
          "name": "",
          "type": "address"
        }
      ],
      "stateMutability": "view",
      "type": "function"
    }
  ],
  "transactionHash": "0x0af5fc32b1faadcf1470d07b1a83ac3ca952e34d6a49293a52790142dd07791e",
  "args": [],
  "numDeployments": 1,
  "solcInputHash": "35e0ac8ae47caef0caca6801c152e6fb",
  "bytecode": "0x6080604052600080546001600160a01b0319908116730a178469e3d08beaa0a289e416ab924f10807989179091556001805490911673ecf044c5b4b867cfda001101c617ecd347095b4417905534801561005857600080fd5b5060028054336001600160a01b031991821681179092556001805460ff60a01b19811690915560068054831684179055600360049081556019600555600b8054909316909317909155600054604051632210724360e11b81526001600160a01b03918216938101939093521690634420e486906024016020604051808303816000875af11580156100ed573d6000803e3d6000fd5b505050506040513d601f19601f820116820180604052508101906101119190610117565b50610130565b60006020828403121561012957600080fd5b5051919050565b615ffe8061013f6000396000f3fe60806040523480156200001157600080fd5b50600436106200020d5760003560e01c806385f2aef21162000125578063bc063e1a11620000af578063e1f76b44116200007a578063e1f76b441462000475578063e5e31b13146200048c578063eb13c4cf14620004b2578063f94c53c714620004eb57600080fd5b8063bc063e1a146200042d578063bedb86fb1462000436578063d0fb0203146200044d578063d5f39488146200046157600080fd5b80639fd0506d11620000f05780639fd0506d14620003c8578063ad8c3cd214620003dc578063b187bd2614620003f3578063b7f01bfc146200041957600080fd5b806385f2aef214620003825780638a4fa0d214620003965780639a7165e414620003aa5780639aab924814620003be57600080fd5b8063472d35b911620001a7578063574f2ba31162000172578063574f2ba3146200030e5780636801cc3014620003175780636ccbf1cb146200035457806382dfdce4146200036b57600080fd5b8063472d35b914620002bf5780634bc2a65714620002d65780635084ed0314620002ed578063512b45ea14620002f757600080fd5b80632b37f53c11620001e85780632b37f53c14620002695780632d88af4a146200027b57806340bbd775146200029257806346c96aac14620002ab57600080fd5b8063095cf5c61462000212578063167a6f90146200022b5780631e3dd18b1462000235575b600080fd5b620002296200022336600462000d6a565b620004f5565b005b620002296200058e565b6200024c6200024636600462000d8f565b620005ca565b6040516001600160a01b0390911681526020015b60405180910390f35b6008546001600160a01b03166200024c565b620002296200028c36600462000d6a565b620005f5565b6200029c60045481565b60405190815260200162000260565b6008546200024c906001600160a01b031681565b62000229620002d036600462000d6a565b6200062f565b62000229620002e736600462000d6a565b6200069f565b6200029c60055481565b6200029c6200030836600462000dba565b62000749565b600d546200029c565b6200024c6200032836600462000dd8565b600c6020908152600093845260408085208252928452828420905282529020546001600160a01b031681565b620002296200036536600462000d6a565b62000764565b6200024c6200037c36600462000dd8565b620007d5565b6009546200024c906001600160a01b031681565b6007546200024c906001600160a01b031681565b6003546200024c906001600160a01b031681565b6200029c62000ac0565b6002546200024c906001600160a01b031681565b62000229620003ed36600462000d6a565b62000af4565b6001546200040890600160a01b900460ff1681565b604051901515815260200162000260565b600a546200024c906001600160a01b031681565b6200029c603281565b620002296200044736600462000dba565b62000b9e565b6006546200024c906001600160a01b031681565b600b546200024c906001600160a01b031681565b620002296200048636600462000e22565b62000bd4565b620004086200049d36600462000d6a565b600e6020526000908152604090205460ff1681565b600f54601054604080516001600160a01b0393841681529282166020840152600160a01b90910460ff1615159082015260600162000260565b6200022962000cbf565b600b546001600160a01b031633146200050d57600080fd5b6009546001600160a01b0316156200056c5760405162461bcd60e51b815260206004820152601e60248201527f546865207465616d2068617320616c7265616479206265656e207365742e000060448201526064015b60405180910390fd5b600980546001600160a01b0319166001600160a01b0392909216919091179055565b6003546001600160a01b03163314620005a657600080fd5b600354600280546001600160a01b0319166001600160a01b03909216919091179055565b600d8181548110620005db57600080fd5b6000918252602090912001546001600160a01b0316905081565b6002546001600160a01b031633146200060d57600080fd5b600380546001600160a01b0319166001600160a01b0392909216919091179055565b6006546001600160a01b031633146200067d5760405162461bcd60e51b815260206004820152600f60248201526e3737ba103332b29036b0b730b3b2b960891b604482015260640162000563565b600780546001600160a01b0319166001600160a01b0392909216919091179055565b600954600160a01b900460ff1615620006fb5760405162461bcd60e51b815260206004820152601f60248201527f54686520766f7465722068617320616c7265616479206265656e207365742e00604482015260640162000563565b600b546001600160a01b031633146200071357600080fd5b600880546001600160a01b039092166001600160a01b03199092169190911790556009805460ff60a01b1916600160a01b179055565b6000816200075a576005546200075e565b6004545b92915050565b6009546001600160a01b03163314620007b35760405162461bcd60e51b815260206004820152601060248201526f6e6f742070656e64696e67207465616d60801b604482015260640162000563565b600a80546001600160a01b0319166001600160a01b0392909216919091179055565b6000826001600160a01b0316846001600160a01b0316036200081f5760405162461bcd60e51b8152602060048201526002602482015261494160f01b604482015260640162000563565b600080846001600160a01b0316866001600160a01b0316106200084457848662000847565b85855b90925090506001600160a01b038216620008895760405162461bcd60e51b81526020600482015260026024820152615a4160f01b604482015260640162000563565b6001600160a01b038281166000908152600c602090815260408083208585168452825280832088151584529091529020541615620008ef5760405162461bcd60e51b8152602060048201526002602482015261504560f01b604482015260640162000563565b6040516bffffffffffffffffffffffff19606084811b8216602084015283901b16603482015284151560f81b604882015260009060490160408051601f19818403018152908290528051602090910120601080546001600160a01b038087166001600160a01b03198b1515600160a01b0281166001600160a81b03199094169390931717909255600f80549288169290911691909117905591508190620009969062000d3f565b8190604051809103906000f5905080158015620009b7573d6000803e3d6000fd5b506001600160a01b038481166000818152600c602081815260408084208987168086529083528185208d15158087529084528286208054988a166001600160a01b0319998a168117909155828752948452828620878752845282862081875284528286208054891686179055600d8054600181810183557fd7b6990105719101dabeb77144f2a3385c8033acd3af97e9423a695e81ad1eb59091018054909a168717909955858752600e855295839020805460ff1916909817909755935481519687529186019290925290840152929650907fc4805696c66d7cf352fc1d6bb633ad5ee82f6cb577c453024b6e0eb8306c6fc99060600160405180910390a35050509392505050565b60006040518060200162000ad49062000d3f565b6020820181038252601f19601f8201166040525080519060200120905090565b600954600160a81b900460ff161562000b505760405162461bcd60e51b815260206004820152601e60248201527f5468652074616e6b2068617320616c7265616479206265656e207365742e0000604482015260640162000563565b600b546001600160a01b0316331462000b6857600080fd5b600a80546001600160a01b039092166001600160a01b03199092169190911790556009805460ff60a81b1916600160a81b179055565b6002546001600160a01b0316331462000bb657600080fd5b60018054911515600160a01b0260ff60a01b19909216919091179055565b6006546001600160a01b0316331462000c225760405162461bcd60e51b815260206004820152600f60248201526e3737ba103332b29036b0b730b3b2b960891b604482015260640162000563565b603281111562000c645760405162461bcd60e51b815260206004820152600c60248201526b0cccaca40e8dede40d0d2ced60a31b604482015260640162000563565b8060000362000cac5760405162461bcd60e51b8152602060048201526013602482015272666565206d757374206265206e6f6e7a65726f60681b604482015260640162000563565b811562000cb95760045550565b60055550565b6007546001600160a01b0316331462000d1b5760405162461bcd60e51b815260206004820152601760248201527f6e6f742070656e64696e6720666565206d616e61676572000000000000000000604482015260640162000563565b600754600680546001600160a01b0319166001600160a01b03909216919091179055565b6151798062000e5083390190565b80356001600160a01b038116811462000d6557600080fd5b919050565b60006020828403121562000d7d57600080fd5b62000d888262000d4d565b9392505050565b60006020828403121562000da257600080fd5b5035919050565b8035801515811462000d6557600080fd5b60006020828403121562000dcd57600080fd5b62000d888262000da9565b60008060006060848603121562000dee57600080fd5b62000df98462000d4d565b925062000e096020850162000d4d565b915062000e196040850162000da9565b90509250925092565b6000806040838503121562000e3657600080fd5b62000e418362000da9565b94602093909301359350505056fe6101a0604052600080546001600160a01b0319908116730a178469e3d08beaa0a289e416ab924f108079891782556001805490911673ecf044c5b4b867cfda001101c617ecd347095b44178155600482905560108290556011919091556016553480156200006c57600080fd5b5033610100819052604080516311b25aab60e21b815290516346c96aac916004808201926020929091908290030181865afa158015620000b0573d6000803e3d6000fd5b505050506040513d601f19601f82011682018060405250810190620000d691906200095e565b6001600160a01b03166101205260408051632dfc06ff60e21b81529051339163b7f01bfc9160048083019260209291908290030181865afa15801562000120573d6000803e3d6000fd5b505050506040513d601f19601f820116820180604052508101906200014691906200095e565b6001600160a01b0316610140816001600160a01b0316815250506000806000336001600160a01b031663eb13c4cf6040518163ffffffff1660e01b8152600401606060405180830381865afa158015620001a4573d6000803e3d6000fd5b505050506040513d601f19601f82011682018060405250810190620001ca919062000983565b8015156080526001600160a01b0380831660c052831660a052604051929550909350915083908390620001fd906200088d565b6001600160a01b03928316815291166020820152604001604051809103906000f08015801562000231573d6000803e3d6000fd5b506001600160a01b031660e05280156200046357826001600160a01b03166395d89b416040518163ffffffff1660e01b8152600401600060405180830381865afa15801562000284573d6000803e3d6000fd5b505050506040513d6000823e601f3d908101601f19168201604052620002ae919081019062000a1e565b826001600160a01b03166395d89b416040518163ffffffff1660e01b8152600401600060405180830381865afa158015620002ed573d6000803e3d6000fd5b505050506040513d6000823e601f3d908101601f1916820160405262000317919081019062000a1e565b6040516020016200032a92919062000ad6565b60405160208183030381529060405260029080519060200190620003509291906200089b565b50826001600160a01b03166395d89b416040518163ffffffff1660e01b8152600401600060405180830381865afa15801562000390573d6000803e3d6000fd5b505050506040513d6000823e601f3d908101601f19168201604052620003ba919081019062000a1e565b826001600160a01b03166395d89b416040518163ffffffff1660e01b8152600401600060405180830381865afa158015620003f9573d6000803e3d6000fd5b505050506040513d6000823e601f3d908101601f1916820160405262000423919081019062000a1e565b6040516020016200043692919062000b31565b604051602081830303815290604052600390805190602001906200045c9291906200089b565b506200067c565b826001600160a01b03166395d89b416040518163ffffffff1660e01b8152600401600060405180830381865afa158015620004a2573d6000803e3d6000fd5b505050506040513d6000823e601f3d908101601f19168201604052620004cc919081019062000a1e565b826001600160a01b03166395d89b416040518163ffffffff1660e01b8152600401600060405180830381865afa1580156200050b573d6000803e3d6000fd5b505050506040513d6000823e601f3d908101601f1916820160405262000535919081019062000a1e565b6040516020016200054892919062000b82565b604051602081830303815290604052600290805190602001906200056e9291906200089b565b50826001600160a01b03166395d89b416040518163ffffffff1660e01b8152600401600060405180830381865afa158015620005ae573d6000803e3d6000fd5b505050506040513d6000823e601f3d908101601f19168201604052620005d8919081019062000a1e565b826001600160a01b03166395d89b416040518163ffffffff1660e01b8152600401600060405180830381865afa15801562000617573d6000803e3d6000fd5b505050506040513d6000823e601f3d908101601f1916820160405262000641919081019062000a1e565b6040516020016200065492919062000bdf565b604051602081830303815290604052600390805190602001906200067a9291906200089b565b505b826001600160a01b031663313ce5676040518163ffffffff1660e01b8152600401602060405180830381865afa158015620006bb573d6000803e3d6000fd5b505050506040513d601f19601f82011682018060405250810190620006e1919062000c01565b620006ee90600a62000d3b565b6101608181525050816001600160a01b031663313ce5676040518163ffffffff1660e01b8152600401602060405180830381865afa15801562000735573d6000803e3d6000fd5b505050506040513d601f19601f820116820180604052508101906200075b919062000c01565b6200076890600a62000d3b565b6101805260408051606081018252428152600060208201818152828401828152600a80546001808201835591855294517fc65a7bb8d6351c1cf70c95a316cc6a92839c986682d98bc35f958f4883f9d2a860039096029586015591517fc65a7bb8d6351c1cf70c95a316cc6a92839c986682d98bc35f958f4883f9d2a9850155517fc65a7bb8d6351c1cf70c95a316cc6a92839c986682d98bc35f958f4883f9d2aa90930192909255905490549151632210724360e11b81526001600160a01b039283166004820152911690634420e486906024016020604051808303816000875af11580156200085d573d6000803e3d6000fd5b505050506040513d601f19601f8201168201806040525081019062000883919062000d4c565b5050505062000da2565b6104408062004d3983390190565b828054620008a99062000d66565b90600052602060002090601f016020900481019282620008cd576000855562000918565b82601f10620008e857805160ff191683800117855562000918565b8280016001018555821562000918579182015b8281111562000918578251825591602001919060010190620008fb565b50620009269291506200092a565b5090565b5b808211156200092657600081556001016200092b565b80516001600160a01b03811681146200095957600080fd5b919050565b6000602082840312156200097157600080fd5b6200097c8262000941565b9392505050565b6000806000606084860312156200099957600080fd5b620009a48462000941565b9250620009b46020850162000941565b915060408401518015158114620009ca57600080fd5b809150509250925092565b634e487b7160e01b600052604160045260246000fd5b60005b8381101562000a08578181015183820152602001620009ee565b8381111562000a18576000848401525b50505050565b60006020828403121562000a3157600080fd5b81516001600160401b038082111562000a4957600080fd5b818401915084601f83011262000a5e57600080fd5b81518181111562000a735762000a73620009d5565b604051601f8201601f19908116603f0116810190838211818310171562000a9e5762000a9e620009d5565b8160405282815287602084870101111562000ab857600080fd5b62000acb836020830160208801620009eb565b979650505050505050565b6e029ba30b13632ab189020a6a690169608d1b81526000835162000b0281600f850160208801620009eb565b602f60f81b600f91840191820152835162000b25816010840160208801620009eb565b01601001949350505050565b6473414d4d2d60d81b81526000835162000b53816005850160208801620009eb565b602f60f81b600591840191820152835162000b76816006840160208801620009eb565b01600601949350505050565b7002b37b630ba34b632ab189020a6a690169607d1b81526000835162000bb0816011850160208801620009eb565b602f60f81b601191840191820152835162000bd3816012840160208801620009eb565b01601201949350505050565b6476414d4d2d60d81b81526000835162000b53816005850160208801620009eb565b60006020828403121562000c1457600080fd5b815160ff811681146200097c57600080fd5b634e487b7160e01b600052601160045260246000fd5b600181815b8085111562000c7d57816000190482111562000c615762000c6162000c26565b8085161562000c6f57918102915b93841c939080029062000c41565b509250929050565b60008262000c965750600162000d35565b8162000ca55750600062000d35565b816001811462000cbe576002811462000cc95762000ce9565b600191505062000d35565b60ff84111562000cdd5762000cdd62000c26565b50506001821b62000d35565b5060208310610133831016604e8410600b841016171562000d0e575081810a62000d35565b62000d1a838362000c3c565b806000190482111562000d315762000d3162000c26565b0290505b92915050565b60006200097c60ff84168362000c85565b60006020828403121562000d5f57600080fd5b5051919050565b600181811c9082168062000d7b57607f821691505b60208210810362000d9c57634e487b7160e01b600052602260045260246000fd5b50919050565b60805160a05160c05160e0516101005161012051610140516101605161018051613dac62000f8d600039600081816104a601528181612b3b01528181612e2501528181612ee70152612ff201526000818161048301528181612afa01528181612de601528181612f290152612fcc0152600081816107b3015281816126220152818161269a0152818161289a015261291201526000818161057e015281816112eb0152611ce60152600081816108b501528181610d0401528181610dd501526123040152600081816106b50152611f180152600081816105300152818161070a01528181610811015281816109f001528181610c98015281816113b7015281816117170152818161190201528181611dbf01528181612461015281816128790152818161293a015281816129b80152612a8301526000818161035b01528181610508015281816106e5015281816109cf01528181610c770152818161138601528181611681015281816118e001528181611d9d015281816123d901528181612601015281816126c2015281816127400152818161280b01528181612e6701528181612eae01528181612f93015261303601526000818161040c015281816104d801528181610ccc01528181610d9d015281816122d301528181612ad20152612db20152613dac6000f3fe608060405234801561001057600080fd5b50600436106102d65760003560e01c80637ecebe0011610182578063b7f01bfc116100e9578063d21220a7116100a2578063dd62ed3e1161007c578063dd62ed3e1461084e578063ebeb31db14610879578063f140a35a14610881578063fff6cae91461089457600080fd5b8063d21220a71461080c578063d294f09314610833578063d505accf1461083b57600080fd5b8063b7f01bfc146107ae578063bc25cf77146107d5578063bda39cad146107e8578063bf944dbc146107f1578063c245febc146107fa578063c5700a021461080357600080fd5b80639d63848a1161013b5780639d63848a146106d75780639e8cc04b146107355780639f767c8814610748578063a1ac4d1314610768578063a9059cbb14610788578063b22d8fe01461079b57600080fd5b80637ecebe001461062257806389afcb44146106425780638a7b8cf21461066a57806391f36d651461069457806395d89b41146106a85780639af1d35a146106b057600080fd5b8063252c09d71161024157806346c96aac116101fa5780635881c475116101d45780635881c475146105d35780635a76f25e146105e65780636a627842146105ef57806370a082311461060257600080fd5b806346c96aac146105795780634d5a9f8a146105a0578063517b3f82146105c057600080fd5b8063252c09d714610441578063313ce5671461045457806332c0defd1461046e578063392f37e914610477578063443cb4bc1461055d57806345a1de791461056657600080fd5b806318160ddd1161029357806318160ddd146103b557806319999566146103cc5780631df8c717146103df578063205aabf1146103e757806322be3de11461040757806323b872dd1461042e57600080fd5b8063022c0d9f146102db57806306fdde03146102f05780630902f1ac1461030e578063095ea7b3146103335780630dfe16811461035657806313345fe114610395575b600080fd5b6102ee6102e93660046137ed565b61089c565b005b6102f8610fe9565b60405161030591906138b1565b60405180910390f35b600b54600c54600d545b60408051938452602084019290925290820152606001610305565b6103466103413660046138e4565b611077565b6040519015158152602001610305565b61037d7f000000000000000000000000000000000000000000000000000000000000000081565b6040516001600160a01b039091168152602001610305565b6103a86103a336600461390e565b6110e4565b6040516103059190613947565b6103be60045481565b604051908152602001610305565b6102ee6103da36600461398b565b6112e0565b6103186113eb565b6103be6103f536600461398b565b60136020526000908152604090205481565b6103467f000000000000000000000000000000000000000000000000000000000000000081565b61034661043c3660046139a6565b61145a565b61031861044f3660046139e2565b611523565b61045c601281565b60405160ff9091168152602001610305565b6103be60105481565b600b54600c54604080517f000000000000000000000000000000000000000000000000000000000000000081527f000000000000000000000000000000000000000000000000000000000000000060208201529081019290925260608201527f0000000000000000000000000000000000000000000000000000000000000000151560808201526001600160a01b037f0000000000000000000000000000000000000000000000000000000000000000811660a08301527f00000000000000000000000000000000000000000000000000000000000000001660c082015260e001610305565b6103be600b5481565b60095461037d906001600160a01b031681565b61037d7f000000000000000000000000000000000000000000000000000000000000000081565b6103be6105ae36600461398b565b60146020526000908152604090205481565b6103be6105ce3660046138e4565b611556565b6103a86105e13660046139fb565b61163e565b6103be600c5481565b6103be6105fd36600461398b565b61164d565b6103be61061036600461398b565b60066020526000908152604090205481565b6103be61063036600461398b565b60086020526000908152604090205481565b61065561065036600461398b565b6118ae565b60408051928352602083019190915201610305565b610672611bcb565b6040805182518152602080840151908201529181015190820152606001610305565b60095461034690600160a01b900460ff1681565b6102f8611c4b565b61037d7f000000000000000000000000000000000000000000000000000000000000000081565b604080516001600160a01b037f0000000000000000000000000000000000000000000000000000000000000000811682527f000000000000000000000000000000000000000000000000000000000000000016602082015201610305565b6103be6107433660046139fb565b611c58565b6103be61075636600461398b565b60126020526000908152604090205481565b6103be61077636600461398b565b60156020526000908152604090205481565b6103466107963660046138e4565b611cc5565b6102ee6107a9366004613a3c565b611cdb565b61037d7f000000000000000000000000000000000000000000000000000000000000000081565b6102ee6107e336600461398b565b611d71565b6103be60115481565b6103be600e5481565b6103be600f5481565b6103be600d5481565b61037d7f000000000000000000000000000000000000000000000000000000000000000081565b610655611e8f565b6102ee610849366004613a59565b611fb6565b6103be61085c366004613acc565b600560209081526000928352604080842090915290825290205481565b600a546103be565b6103be61088f366004613aff565b6122be565b6102ee6123ac565b6016546001146108ab57600080fd5b60026016819055507f00000000000000000000000000000000000000000000000000000000000000006001600160a01b031663b187bd266040518163ffffffff1660e01b8152600401602060405180830381865afa158015610911573d6000803e3d6000fd5b505050506040513d601f19601f820116820180604052508101906109359190613b22565b1561093f57600080fd5b600085118061094e5750600084115b6109855760405162461bcd60e51b8152602060048201526003602482015262494f4160e81b60448201526064015b60405180910390fd5b600b54600c54818710801561099957508086105b6109ca5760405162461bcd60e51b8152602060048201526002602482015261125360f21b604482015260640161097c565b6000807f00000000000000000000000000000000000000000000000000000000000000007f00000000000000000000000000000000000000000000000000000000000000006001600160a01b0389811690831614801590610a3d5750806001600160a01b0316896001600160a01b031614155b610a6e5760405162461bcd60e51b8152602060048201526002602482015261125560f21b604482015260640161097c565b8a15610a7f57610a7f828a8d6124e6565b8915610a9057610a90818a8c6124e6565b8615610afd57604051639a7bff7960e01b81526001600160a01b038a1690639a7bff7990610aca9033908f908f908e908e90600401613b3f565b600060405180830381600087803b158015610ae457600080fd5b505af1158015610af8573d6000803e3d6000fd5b505050505b6040516370a0823160e01b81523060048201526001600160a01b038316906370a0823190602401602060405180830381865afa158015610b41573d6000803e3d6000fd5b505050506040513d601f19601f82011682018060405250810190610b659190613b8b565b6040516370a0823160e01b81523060048201529094506001600160a01b038216906370a0823190602401602060405180830381865afa158015610bac573d6000803e3d6000fd5b505050506040513d601f19601f82011682018060405250810190610bd09190613b8b565b9250505060008985610be29190613bba565b8311610bef576000610c03565b610bf98a86613bba565b610c039084613bba565b90506000610c118a86613bba565b8311610c1e576000610c32565b610c288a86613bba565b610c329084613bba565b90506000821180610c435750600081115b610c755760405162461bcd60e51b815260206004820152600360248201526249494160e81b604482015260640161097c565b7f00000000000000000000000000000000000000000000000000000000000000007f00000000000000000000000000000000000000000000000000000000000000008315610d8857604051632895a2f560e11b81527f000000000000000000000000000000000000000000000000000000000000000015156004820152610d8890612710906001600160a01b037f0000000000000000000000000000000000000000000000000000000000000000169063512b45ea90602401602060405180830381865afa158015610d4b573d6000803e3d6000fd5b505050506040513d601f19601f82011682018060405250810190610d6f9190613b8b565b610d799087613bd1565b610d839190613c06565b6125e6565b8215610e5957604051632895a2f560e11b81527f000000000000000000000000000000000000000000000000000000000000000015156004820152610e5990612710906001600160a01b037f0000000000000000000000000000000000000000000000000000000000000000169063512b45ea90602401602060405180830381865afa158015610e1c573d6000803e3d6000fd5b505050506040513d601f19601f82011682018060405250810190610e409190613b8b565b610e4a9086613bd1565b610e549190613c06565b61285e565b6040516370a0823160e01b81523060048201526001600160a01b038316906370a0823190602401602060405180830381865afa158015610e9d573d6000803e3d6000fd5b505050506040513d601f19601f82011682018060405250810190610ec19190613b8b565b6040516370a0823160e01b81523060048201529096506001600160a01b038216906370a0823190602401602060405180830381865afa158015610f08573d6000803e3d6000fd5b505050506040513d601f19601f82011682018060405250810190610f2c9190613b8b565b9450610f388888612ace565b610f428787612ace565b1015610f745760405162461bcd60e51b81526020600482015260016024820152604b60f81b604482015260640161097c565b5050610f8284848888612c1a565b60408051838152602081018390529081018c9052606081018b90526001600160a01b038a169033907fd78ad95fa46c994b6551d0da85fc275fe613ce37657fb8d5e3d130840159d8229060800160405180910390a350506001601655505050505050505050565b60028054610ff690613c28565b80601f016020809104026020016040519081016040528092919081815260200182805461102290613c28565b801561106f5780601f106110445761010080835404028352916020019161106f565b820191906000526020600020905b81548152906001019060200180831161105257829003601f168201915b505050505081565b3360008181526005602090815260408083206001600160a01b038716808552925280832085905551919290917f8c5be1e5ebec7d5bd14f71427d1e84f3dd0314c0f7b2291e5b200ac8c7c3b925906110d29086815260200190565b60405180910390a35060015b92915050565b606060008367ffffffffffffffff81111561110157611101613c62565b60405190808252806020026020018201604052801561112a578160200160208202803683370190505b50600a5490915060009061114090600190613bba565b9050600061114e8587613bd1565b6111589083613bba565b90506000805b838310156112d0576111708784613c78565b91506000600a848154811061118757611187613c90565b906000526020600020906003020160000154600a84815481106111ac576111ac613c90565b9060005260206000209060030201600001546111c89190613bba565b9050600081600a86815481106111e0576111e0613c90565b906000526020600020906003020160010154600a868154811061120557611205613c90565b9060005260206000209060030201600101546112219190613bba565b61122b9190613c06565b9050600082600a878154811061124357611243613c90565b906000526020600020906003020160020154600a878154811061126857611268613c90565b9060005260206000209060030201600201546112849190613bba565b61128e9190613c06565b905061129c8c8e8484612dae565b8885815181106112ae576112ae613c90565b60209081029190910101525050506001016112c98784613c78565b925061115e565b509293505050505b949350505050565b336001600160a01b037f000000000000000000000000000000000000000000000000000000000000000016146113625760405162461bcd60e51b815260206004820152602160248201527f4f6e6c7920766f7465722063616e207365742065787465726e616c20627269626044820152606560f81b606482015260840161097c565b600980546001600160a01b0319166001600160a01b0383169081179091556113ae907f0000000000000000000000000000000000000000000000000000000000000000906000196130a3565b6009546113e8907f0000000000000000000000000000000000000000000000000000000000000000906001600160a01b03166000196130a3565b50565b600e54600f544260008080611409600b54600c54600d549192909190565b9250925092508381146114525760006114228286613bba565b905061142e8185613bd1565b6114389088613c78565b96506114448184613bd1565b61144e9087613c78565b9550505b505050909192565b6001600160a01b03831660008181526005602090815260408083203380855292528220549192909190821480159061149457506000198114155b1561150a5760006114a58583613bba565b6001600160a01b038881166000818152600560209081526040808320948916808452948252918290208590559051848152939450919290917f8c5be1e5ebec7d5bd14f71427d1e84f3dd0314c0f7b2291e5b200ac8c7c3b925910160405180910390a3505b6115158686866130ed565b6001925050505b9392505050565b600a818154811061153357600080fd5b600091825260209091206003909102018054600182015460029092015490925083565b600080611561611bcb565b905060008061156e6113eb565b508451919350915042036115d657600a805461158c90600290613bba565b8154811061159c5761159c613c90565b9060005260206000209060030201604051806060016040529081600082015481526020016001820154815260200160028201548152505092505b82516000906115e59042613bba565b90506000818560200151856115fa9190613bba565b6116049190613c06565b90506000828660400151856116199190613bba565b6116239190613c06565b9050611631888a8484612dae565b9998505050505050505050565b60606112d884848460016110e4565b600060165460011461165e57600080fd5b6002601655600b54600c546040516370a0823160e01b81523060048201526000907f00000000000000000000000000000000000000000000000000000000000000006001600160a01b0316906370a0823190602401602060405180830381865afa1580156116d0573d6000803e3d6000fd5b505050506040513d601f19601f820116820180604052508101906116f49190613b8b565b6040516370a0823160e01b81523060048201529091506000906001600160a01b037f000000000000000000000000000000000000000000000000000000000000000016906370a0823190602401602060405180830381865afa15801561175e573d6000803e3d6000fd5b505050506040513d601f19601f820116820180604052508101906117829190613b8b565b905060006117908584613bba565b9050600061179e8584613bba565b60045490915060008190036117e0576103e86117c26117bd8486613bd1565b6131ad565b6117cc9190613bba565b97506117db60006103e8613295565b611815565b611812876117ee8386613bd1565b6117f89190613c06565b876118038486613bd1565b61180d9190613c06565b613328565b97505b6000881161184b5760405162461bcd60e51b8152602060048201526003602482015262494c4d60e81b604482015260640161097c565b6118558989613295565b61186185858989612c1a565b604080518481526020810184905233917f4c209b5fc8ad50758f13e2e1088ba56a560dff690a1c6fef26394f4c03821c4f910160405180910390a250506001601655509395945050505050565b6000806016546001146118c057600080fd5b6002601655600b54600c546040516370a0823160e01b81523060048201527f0000000000000000000000000000000000000000000000000000000000000000907f0000000000000000000000000000000000000000000000000000000000000000906000906001600160a01b038416906370a0823190602401602060405180830381865afa158015611956573d6000803e3d6000fd5b505050506040513d601f19601f8201168201806040525081019061197a9190613b8b565b6040516370a0823160e01b81523060048201529091506000906001600160a01b038416906370a0823190602401602060405180830381865afa1580156119c4573d6000803e3d6000fd5b505050506040513d601f19601f820116820180604052508101906119e89190613b8b565b306000908152600660205260409020546004549192509080611a0a8584613bd1565b611a149190613c06565b995080611a218484613bd1565b611a2b9190613c06565b985060008a118015611a3d5750600089115b611a6f5760405162461bcd60e51b815260206004820152600360248201526224a62160e91b604482015260640161097c565b611a79308361333e565b611a84868c8c6124e6565b611a8f858c8b6124e6565b6040516370a0823160e01b81523060048201526001600160a01b038716906370a0823190602401602060405180830381865afa158015611ad3573d6000803e3d6000fd5b505050506040513d601f19601f82011682018060405250810190611af79190613b8b565b6040516370a0823160e01b81523060048201529094506001600160a01b038616906370a0823190602401602060405180830381865afa158015611b3e573d6000803e3d6000fd5b505050506040513d601f19601f82011682018060405250810190611b629190613b8b565b9250611b7084848a8a612c1a565b604080518b8152602081018b90526001600160a01b038d169133917fdccd412f0b1252819cb1fd330b93224ca42612892bb3f4f789976e6d81936496910160405180910390a350505050505050506001601681905550915091565b611bef60405180606001604052806000815260200160008152602001600081525090565b600a8054611bff90600190613bba565b81548110611c0f57611c0f613c90565b90600052602060002090600302016040518060600160405290816000820154815260200160018201548152602001600282015481525050905090565b60038054610ff690613c28565b600080611c6885858560016110e4565b90506000805b8251811015611cb057828181518110611c8957611c89613c90565b602002602001015182611c9c9190613c78565b915080611ca881613ca6565b915050611c6e565b50611cbb8482613c06565b9695505050505050565b6000611cd23384846130ed565b50600192915050565b336001600160a01b037f00000000000000000000000000000000000000000000000000000000000000001614611d535760405162461bcd60e51b815260206004820152601c60248201527f4f6e6c7920766f7465722063616e207365742068617320676175676500000000604482015260640161097c565b60098054911515600160a01b0260ff60a01b19909216919091179055565b601654600114611d8057600080fd5b6002601655600b546040516370a0823160e01b81523060048201527f0000000000000000000000000000000000000000000000000000000000000000917f000000000000000000000000000000000000000000000000000000000000000091611e4d9184918691906001600160a01b038416906370a08231906024015b602060405180830381865afa158015611e1a573d6000803e3d6000fd5b505050506040513d601f19601f82011682018060405250810190611e3e9190613b8b565b611e489190613bba565b6124e6565b600c546040516370a0823160e01b8152306004820152611e859183918691906001600160a01b038416906370a0823190602401611dfd565b5050600160165550565b600080611e9b336133c9565b50503360009081526014602090815260408083205460159092529091205481151580611ec75750600081115b15611fb2573360008181526014602090815260408083208390556015909152808220919091555163299e7ae760e11b8152600481019190915260248101839052604481018290526001600160a01b037f0000000000000000000000000000000000000000000000000000000000000000169063533cf5ce90606401600060405180830381600087803b158015611f5c57600080fd5b505af1158015611f70573d6000803e3d6000fd5b505060408051858152602081018590523393508392507f865ca08d59f5cb456e85cd2f7ef63664ea4f73327414e9d8152c4158b0e94645910160405180910390a35b9091565b42841015611ff65760405162461bcd60e51b815260206004820152600d60248201526c14185a5c8e8811561412549151609a1b604482015260640161097c565b7f8b73c3c69bb8fe3d512ecc4cf759cc79239f7b179b0ffacaa9a75d522b39400f60026040516120269190613cbf565b60408051918290038220828201825260018352603160f81b6020938401528151928301939093528101919091527fc89efdaa54c0f20c7adf612882df0950f5a951637e0307cdcb4c672f298b8bc660608201524660808201523060a082015260c00160408051601f19818403018152918152815160209283012060078190556001600160a01b038a166000908152600890935290822080547f6e71edae12b1b97f4d1f60370fef10105fa2faae0126114a169c64845d6126c9918b918b918b9190876120f183613ca6565b909155506040805160208101969096526001600160a01b0394851690860152929091166060840152608083015260a082015260c0810187905260e0016040516020818303038152906040528051906020012060405160200161216a92919061190160f01b81526002810192909252602282015260420190565b60408051601f198184030181528282528051602091820120600080855291840180845281905260ff88169284019290925260608301869052608083018590529092509060019060a0016020604051602081039080840390855afa1580156121d5573d6000803e3d6000fd5b5050604051601f1901519150506001600160a01b0381161580159061220b5750886001600160a01b0316816001600160a01b0316145b6122575760405162461bcd60e51b815260206004820152601760248201527f506169723a20494e56414c49445f5349474e4154555245000000000000000000604482015260640161097c565b6001600160a01b038981166000818152600560209081526040808320948d16808452948252918290208b905590518a81527f8c5be1e5ebec7d5bd14f71427d1e84f3dd0314c0f7b2291e5b200ac8c7c3b925910160405180910390a3505050505050505050565b600b54600c54604051632895a2f560e11b81527f0000000000000000000000000000000000000000000000000000000000000000151560048201526000929190612710907f00000000000000000000000000000000000000000000000000000000000000006001600160a01b03169063512b45ea90602401602060405180830381865afa158015612353573d6000803e3d6000fd5b505050506040513d601f19601f820116820180604052508101906123779190613b8b565b6123819087613bd1565b61238b9190613c06565b6123959086613bba565b94506123a385858484612dae565b95945050505050565b6016546001146123bb57600080fd5b60026016556040516370a0823160e01b81523060048201526124df907f00000000000000000000000000000000000000000000000000000000000000006001600160a01b0316906370a0823190602401602060405180830381865afa158015612428573d6000803e3d6000fd5b505050506040513d601f19601f8201168201806040525081019061244c9190613b8b565b6040516370a0823160e01b81523060048201527f00000000000000000000000000000000000000000000000000000000000000006001600160a01b0316906370a0823190602401602060405180830381865afa1580156124b0573d6000803e3d6000fd5b505050506040513d601f19601f820116820180604052508101906124d49190613b8b565b600b54600c54612c1a565b6001601655565b6000836001600160a01b03163b116124fd57600080fd5b6040516001600160a01b03838116602483015260448201839052600091829186169063a9059cbb60e01b906064015b60408051601f198184030181529181526020820180516001600160e01b03166001600160e01b031990941693909317909252905161256a9190613d5a565b6000604051808303816000865af19150503d80600081146125a7576040519150601f19603f3d011682016040523d82523d6000602084013e6125ac565b606091505b50915091508180156125d65750805115806125d65750808060200190518101906125d69190613b22565b6125df57600080fd5b5050505050565b600954600160a01b900460ff161515600003612710576126477f00000000000000000000000000000000000000000000000000000000000000007f0000000000000000000000000000000000000000000000000000000000000000836124e6565b60045460009061265f83670de0b6b3a7640000613bd1565b6126699190613c06565b905080156126895780601060008282546126839190613c78565b90915550505b604080518381526001600160a01b037f0000000000000000000000000000000000000000000000000000000000000000811660208301527f000000000000000000000000000000000000000000000000000000000000000016917f8a0270441e721adb81a7413f54853fda4aa273f098843d47749905fcf619fbbf910160405180910390a2505b600954600160a01b900460ff1615156001036113e85760095460405163b66503cf60e01b81526001600160a01b037f000000000000000000000000000000000000000000000000000000000000000081166004830152602482018490529091169063b66503cf90604401600060405180830381600087803b15801561279457600080fd5b505af11580156127a8573d6000803e3d6000fd5b50505050600060045482670de0b6b3a76400006127c59190613bd1565b6127cf9190613c06565b905080156127ef5780601060008282546127e99190613c78565b90915550505b600954604080518481526001600160a01b0392831660208201527f0000000000000000000000000000000000000000000000000000000000000000909216917ff5b850648f086f3f988a2c06dd4214f39db9fa92ee563e6246c398361d1963ad91015b60405180910390a25050565b600954600160a01b900460ff161515600003612988576128bf7f00000000000000000000000000000000000000000000000000000000000000007f0000000000000000000000000000000000000000000000000000000000000000836124e6565b6004546000906128d783670de0b6b3a7640000613bd1565b6128e19190613c06565b905080156129015780601060008282546128fb9190613c78565b90915550505b604080518381526001600160a01b037f0000000000000000000000000000000000000000000000000000000000000000811660208301527f000000000000000000000000000000000000000000000000000000000000000016917f8a0270441e721adb81a7413f54853fda4aa273f098843d47749905fcf619fbbf910160405180910390a2505b600954600160a01b900460ff1615156001036113e85760095460405163b66503cf60e01b81526001600160a01b037f000000000000000000000000000000000000000000000000000000000000000081166004830152602482018490529091169063b66503cf90604401600060405180830381600087803b158015612a0c57600080fd5b505af1158015612a20573d6000803e3d6000fd5b50505050600060045482670de0b6b3a7640000612a3d9190613bd1565b612a479190613c06565b90508015612a67578060106000828254612a619190613c78565b90915550505b600954604080518481526001600160a01b0392831660208201527f0000000000000000000000000000000000000000000000000000000000000000909216917ff5b850648f086f3f988a2c06dd4214f39db9fa92ee563e6246c398361d1963ad9101612852565b60007f000000000000000000000000000000000000000000000000000000000000000015612c095760007f0000000000000000000000000000000000000000000000000000000000000000612b2b85670de0b6b3a7640000613bd1565b612b359190613c06565b905060007f0000000000000000000000000000000000000000000000000000000000000000612b6c85670de0b6b3a7640000613bd1565b612b769190613c06565b90506000670de0b6b3a7640000612b8d8385613bd1565b612b979190613c06565b90506000670de0b6b3a7640000612bae8480613bd1565b612bb89190613c06565b670de0b6b3a7640000612bcb8680613bd1565b612bd59190613c06565b612bdf9190613c78565b9050670de0b6b3a7640000612bf48284613bd1565b612bfe9190613c06565b9450505050506110de565b612c138284613bd1565b90506110de565b600d544290600090612c2c9083613bba565b9050600081118015612c3d57508315155b8015612c4857508215155b15612c8f57612c578185613bd1565b600e6000828254612c689190613c78565b90915550612c7890508184613bd1565b600f6000828254612c899190613c78565b90915550505b6000612c99611bcb565b8051909150612ca89084613bba565b9150610708821115612d5d5760408051606081018252848152600e5460208201908152600f54928201928352600a805460018101825560009190915291517fc65a7bb8d6351c1cf70c95a316cc6a92839c986682d98bc35f958f4883f9d2a8600390930292830155517fc65a7bb8d6351c1cf70c95a316cc6a92839c986682d98bc35f958f4883f9d2a982015590517fc65a7bb8d6351c1cf70c95a316cc6a92839c986682d98bc35f958f4883f9d2aa909101555b600b879055600c869055600d83905560408051888152602081018890527fcf2aa50876cdfbb541206f89af0ee78d44a2abf8d328e37fa4917f982149848a910160405180910390a150505050505050565b60007f000000000000000000000000000000000000000000000000000000000000000015613031576000612de28484612ace565b90507f0000000000000000000000000000000000000000000000000000000000000000612e1785670de0b6b3a7640000613bd1565b612e219190613c06565b93507f0000000000000000000000000000000000000000000000000000000000000000612e5684670de0b6b3a7640000613bd1565b612e609190613c06565b92506000807f00000000000000000000000000000000000000000000000000000000000000006001600160a01b0316876001600160a01b031614612ea5578486612ea8565b85855b915091507f00000000000000000000000000000000000000000000000000000000000000006001600160a01b0316876001600160a01b031614612f27577f0000000000000000000000000000000000000000000000000000000000000000612f1889670de0b6b3a7640000613bd1565b612f229190613c06565b612f64565b7f0000000000000000000000000000000000000000000000000000000000000000612f5a89670de0b6b3a7640000613bd1565b612f649190613c06565b97506000612f7c612f75848b613c78565b8584613529565b612f869083613bba565b9050670de0b6b3a76400007f00000000000000000000000000000000000000000000000000000000000000006001600160a01b0316896001600160a01b031614612ff0577f0000000000000000000000000000000000000000000000000000000000000000613012565b7f00000000000000000000000000000000000000000000000000000000000000005b61301c9083613bd1565b6130269190613c06565b9450505050506112d8565b6000807f00000000000000000000000000000000000000000000000000000000000000006001600160a01b0316866001600160a01b031614613074578385613077565b84845b90925090506130868783613c78565b6130908289613bd1565b61309a9190613c06565b925050506112d8565b6000836001600160a01b03163b116130ba57600080fd5b6040516001600160a01b03838116602483015260448201839052600091829186169063095ea7b360e01b9060640161252c565b6130f6836133c9565b6130ff826133c9565b6001600160a01b03831660009081526006602052604081208054839290613127908490613bba565b90915550506001600160a01b03821660009081526006602052604081208054839290613154908490613c78565b92505081905550816001600160a01b0316836001600160a01b03167fddf252ad1be2c89b69c2b068fc378daa952ba7f163c4a11628f55a4df523b3ef836040516131a091815260200190565b60405180910390a3505050565b6000816000036131bf57506000919050565b600060016131cc84613638565b901c6001901b905060018184816131e5576131e5613bf0565b048201901c905060018184816131fd576131fd613bf0565b048201901c9050600181848161321557613215613bf0565b048201901c9050600181848161322d5761322d613bf0565b048201901c9050600181848161324557613245613bf0565b048201901c9050600181848161325d5761325d613bf0565b048201901c9050600181848161327557613275613bf0565b048201901c905061151c8182858161328f5761328f613bf0565b04613328565b61329e826133c9565b80600460008282546132b09190613c78565b90915550506001600160a01b038216600090815260066020526040812080548392906132dd908490613c78565b90915550506040518181526001600160a01b038316906000907fddf252ad1be2c89b69c2b068fc378daa952ba7f163c4a11628f55a4df523b3ef906020015b60405180910390a35050565b6000818310613337578161151c565b5090919050565b613347826133c9565b80600460008282546133599190613bba565b90915550506001600160a01b03821660009081526006602052604081208054839290613386908490613bba565b90915550506040518181526000906001600160a01b038416907fddf252ad1be2c89b69c2b068fc378daa952ba7f163c4a11628f55a4df523b3ef9060200161331c565b6001600160a01b03811660009081526006602052604090205480156134f7576001600160a01b038216600090815260126020908152604080832080546013808552928520805460105460115494819055949095528290559361342b8584613bba565b905060006134398584613bba565b90508115613494576000670de0b6b3a7640000613456848a613bd1565b6134609190613c06565b6001600160a01b038a1660009081526014602052604081208054929350839290919061348d908490613c78565b9091555050505b80156134ed576000670de0b6b3a76400006134af838a613bd1565b6134b99190613c06565b6001600160a01b038a166000908152601560205260408120805492935083929091906134e6908490613c78565b9091555050505b5050505050505050565b6010546001600160a01b0383166000908152601260209081526040808320939093556011546013909152919020555050565b6000805b60ff81101561362f5782600061354387836136cc565b9050858110156135935760006135598887613769565b6135638389613bba565b61357590670de0b6b3a7640000613bd1565b61357f9190613c06565b905061358b8187613c78565b9550506135d5565b600061359f8887613769565b6135a98884613bba565b6135bb90670de0b6b3a7640000613bd1565b6135c59190613c06565b90506135d18187613bba565b9550505b818511156135fe5760016135e98387613bba565b116135f95784935050505061151c565b61361a565b600161360a8684613bba565b1161361a5784935050505061151c565b5050808061362790613ca6565b91505061352d565b50909392505050565b600080608083901c1561364d57608092831c92015b604083901c1561365f57604092831c92015b602083901c1561367157602092831c92015b601083901c1561368357601092831c92015b600883901c1561369557600892831c92015b600483901c156136a757600492831c92015b600283901c156136b957600292831c92015b600183901c156110de5760010192915050565b6000670de0b6b3a7640000828185816136e58280613bd1565b6136ef9190613c06565b6136f99190613bd1565b6137039190613c06565b61370d9190613bd1565b6137179190613c06565b670de0b6b3a764000080848161372d8280613bd1565b6137379190613c06565b6137419190613bd1565b61374b9190613c06565b6137559086613bd1565b61375f9190613c06565b61151c9190613c78565b6000670de0b6b3a764000083816137808280613bd1565b61378a9190613c06565b6137949190613bd1565b61379e9190613c06565b670de0b6b3a7640000806137b28580613bd1565b6137bc9190613c06565b6137c7866003613bd1565b6137559190613bd1565b80356001600160a01b03811681146137e857600080fd5b919050565b60008060008060006080868803121561380557600080fd5b853594506020860135935061381c604087016137d1565b9250606086013567ffffffffffffffff8082111561383957600080fd5b818801915088601f83011261384d57600080fd5b81358181111561385c57600080fd5b89602082850101111561386e57600080fd5b9699959850939650602001949392505050565b60005b8381101561389c578181015183820152602001613884565b838111156138ab576000848401525b50505050565b60208152600082518060208401526138d0816040850160208701613881565b601f01601f19169190910160400192915050565b600080604083850312156138f757600080fd5b613900836137d1565b946020939093013593505050565b6000806000806080858703121561392457600080fd5b61392d856137d1565b966020860135965060408601359560600135945092505050565b6020808252825182820181905260009190848201906040850190845b8181101561397f57835183529284019291840191600101613963565b50909695505050505050565b60006020828403121561399d57600080fd5b61151c826137d1565b6000806000606084860312156139bb57600080fd5b6139c4846137d1565b92506139d2602085016137d1565b9150604084013590509250925092565b6000602082840312156139f457600080fd5b5035919050565b600080600060608486031215613a1057600080fd5b613a19846137d1565b95602085013595506040909401359392505050565b80151581146113e857600080fd5b600060208284031215613a4e57600080fd5b813561151c81613a2e565b600080600080600080600060e0888a031215613a7457600080fd5b613a7d886137d1565b9650613a8b602089016137d1565b95506040880135945060608801359350608088013560ff81168114613aaf57600080fd5b9699959850939692959460a0840135945060c09093013592915050565b60008060408385031215613adf57600080fd5b613ae8836137d1565b9150613af6602084016137d1565b90509250929050565b60008060408385031215613b1257600080fd5b82359150613af6602084016137d1565b600060208284031215613b3457600080fd5b815161151c81613a2e565b60018060a01b038616815284602082015283604082015260806060820152816080820152818360a0830137600081830160a090810191909152601f909201601f19160101949350505050565b600060208284031215613b9d57600080fd5b5051919050565b634e487b7160e01b600052601160045260246000fd5b600082821015613bcc57613bcc613ba4565b500390565b6000816000190483118215151615613beb57613beb613ba4565b500290565b634e487b7160e01b600052601260045260246000fd5b600082613c2357634e487b7160e01b600052601260045260246000fd5b500490565b600181811c90821680613c3c57607f821691505b602082108103613c5c57634e487b7160e01b600052602260045260246000fd5b50919050565b634e487b7160e01b600052604160045260246000fd5b60008219821115613c8b57613c8b613ba4565b500190565b634e487b7160e01b600052603260045260246000fd5b600060018201613cb857613cb8613ba4565b5060010190565b600080835481600182811c915080831680613cdb57607f831692505b60208084108203613cfa57634e487b7160e01b86526022600452602486fd5b818015613d0e5760018114613d1f57613d4c565b60ff19861689528489019650613d4c565b60008a81526020902060005b86811015613d445781548b820152908501908301613d2b565b505084890196505b509498975050505050505050565b60008251613d6c818460208701613881565b919091019291505056fea26469706673582212201d48bdc2ec6d824070ed55dd72cb3479215d6d72ced483005786db5a800dbb3964736f6c634300080d003360e0604052600080546001600160a01b0319908116730a178469e3d08beaa0a289e416ab924f10807989179091556001805490911673ecf044c5b4b867cfda001101c617ecd347095b4417905534801561005857600080fd5b506040516104403803806104408339810160408190526100779161011d565b336080526001600160a01b0382811660a05281811660c052600154600054604051632210724360e11b81529083166004820152911690634420e486906024016020604051808303816000875af11580156100d5573d6000803e3d6000fd5b505050506040513d601f19601f820116820180604052508101906100f99190610150565b505050610169565b80516001600160a01b038116811461011857600080fd5b919050565b6000806040838503121561013057600080fd5b61013983610101565b915061014760208401610101565b90509250929050565b60006020828403121561016257600080fd5b5051919050565b60805160a05160c0516102ab610195600039600060b601526000608501526000605001526102ab6000f3fe608060405234801561001057600080fd5b506004361061002b5760003560e01c8063533cf5ce14610030575b600080fd5b61004361003e3660046101d0565b610045565b005b336001600160a01b037f0000000000000000000000000000000000000000000000000000000000000000161461007a57600080fd5b81156100ab576100ab7f000000000000000000000000000000000000000000000000000000000000000084846100e1565b80156100dc576100dc7f000000000000000000000000000000000000000000000000000000000000000084836100e1565b505050565b6000836001600160a01b03163b116100f857600080fd5b604080516001600160a01b038481166024830152604480830185905283518084039091018152606490920183526020820180516001600160e01b031663a9059cbb60e01b17905291516000928392908716916101549190610211565b6000604051808303816000865af19150503d8060008114610191576040519150601f19603f3d011682016040523d82523d6000602084013e610196565b606091505b50915091508180156101c05750805115806101c05750808060200190518101906101c0919061024c565b6101c957600080fd5b5050505050565b6000806000606084860312156101e557600080fd5b83356001600160a01b03811681146101fc57600080fd5b95602085013595506040909401359392505050565b6000825160005b818110156102325760208186018101518583015201610218565b81811115610241576000828501525b509190910192915050565b60006020828403121561025e57600080fd5b8151801515811461026e57600080fd5b939250505056fea264697066735822122002893a81136cfbfdc047c64f1e33b5110cb0c3c848185652cc4df5e46139865f64736f6c634300080d0033a2646970667358221220c8860f7827706504afdb4f90c843a1d32e2a4d870f020977a002ef27ff12d86064736f6c634300080d0033",
  "devdoc": {
    "kind": "dev",
    "methods": {},
    "version": 1
  },
  "userdoc": {
    "kind": "user",
    "methods": {},
    "version": 1
  },
  "storageLayout": {
    "storage": [
      {
        "astId": 21972,
        "contract": "contracts/factories/PairFactory.sol:PairFactory",
        "label": "multisig",
        "offset": 0,
        "slot": "0",
        "type": "t_address"
      },
      {
        "astId": 21975,
        "contract": "contracts/factories/PairFactory.sol:PairFactory",
        "label": "turnstile",
        "offset": 0,
        "slot": "1",
        "type": "t_address"
      },
      {
        "astId": 21977,
        "contract": "contracts/factories/PairFactory.sol:PairFactory",
        "label": "isPaused",
        "offset": 20,
        "slot": "1",
        "type": "t_bool"
      },
      {
        "astId": 21979,
        "contract": "contracts/factories/PairFactory.sol:PairFactory",
        "label": "pauser",
        "offset": 0,
        "slot": "2",
        "type": "t_address"
      },
      {
        "astId": 21981,
        "contract": "contracts/factories/PairFactory.sol:PairFactory",
        "label": "pendingPauser",
        "offset": 0,
        "slot": "3",
        "type": "t_address"
      },
      {
        "astId": 21983,
        "contract": "contracts/factories/PairFactory.sol:PairFactory",
        "label": "stableFee",
        "offset": 0,
        "slot": "4",
        "type": "t_uint256"
      },
      {
        "astId": 21985,
        "contract": "contracts/factories/PairFactory.sol:PairFactory",
        "label": "volatileFee",
        "offset": 0,
        "slot": "5",
        "type": "t_uint256"
      },
      {
        "astId": 21990,
        "contract": "contracts/factories/PairFactory.sol:PairFactory",
        "label": "feeManager",
        "offset": 0,
        "slot": "6",
        "type": "t_address"
      },
      {
        "astId": 21992,
        "contract": "contracts/factories/PairFactory.sol:PairFactory",
        "label": "pendingFeeManager",
        "offset": 0,
        "slot": "7",
        "type": "t_address"
      },
      {
        "astId": 21994,
        "contract": "contracts/factories/PairFactory.sol:PairFactory",
        "label": "voter",
        "offset": 0,
        "slot": "8",
        "type": "t_address"
      },
      {
        "astId": 21996,
        "contract": "contracts/factories/PairFactory.sol:PairFactory",
        "label": "team",
        "offset": 0,
        "slot": "9",
        "type": "t_address"
      },
      {
        "astId": 21998,
        "contract": "contracts/factories/PairFactory.sol:PairFactory",
        "label": "initial_voter_set",
        "offset": 20,
        "slot": "9",
        "type": "t_bool"
      },
      {
        "astId": 22000,
        "contract": "contracts/factories/PairFactory.sol:PairFactory",
        "label": "initial_tank_set",
        "offset": 21,
        "slot": "9",
        "type": "t_bool"
      },
      {
        "astId": 22002,
        "contract": "contracts/factories/PairFactory.sol:PairFactory",
        "label": "tank",
        "offset": 0,
        "slot": "10",
        "type": "t_address"
      },
      {
        "astId": 22004,
        "contract": "contracts/factories/PairFactory.sol:PairFactory",
        "label": "deployer",
        "offset": 0,
        "slot": "11",
        "type": "t_address"
      },
      {
        "astId": 22012,
        "contract": "contracts/factories/PairFactory.sol:PairFactory",
        "label": "getPair",
        "offset": 0,
        "slot": "12",
        "type": "t_mapping(t_address,t_mapping(t_address,t_mapping(t_bool,t_address)))"
      },
      {
        "astId": 22015,
        "contract": "contracts/factories/PairFactory.sol:PairFactory",
        "label": "allPairs",
        "offset": 0,
        "slot": "13",
        "type": "t_array(t_address)dyn_storage"
      },
      {
        "astId": 22019,
        "contract": "contracts/factories/PairFactory.sol:PairFactory",
        "label": "isPair",
        "offset": 0,
        "slot": "14",
        "type": "t_mapping(t_address,t_bool)"
      },
      {
        "astId": 22021,
        "contract": "contracts/factories/PairFactory.sol:PairFactory",
        "label": "_temp0",
        "offset": 0,
        "slot": "15",
        "type": "t_address"
      },
      {
        "astId": 22023,
        "contract": "contracts/factories/PairFactory.sol:PairFactory",
        "label": "_temp1",
        "offset": 0,
        "slot": "16",
        "type": "t_address"
      },
      {
        "astId": 22025,
        "contract": "contracts/factories/PairFactory.sol:PairFactory",
        "label": "_temp",
        "offset": 20,
        "slot": "16",
        "type": "t_bool"
      }
    ],
    "types": {
      "t_address": {
        "encoding": "inplace",
        "label": "address",
        "numberOfBytes": "20"
      },
      "t_array(t_address)dyn_storage": {
        "base": "t_address",
        "encoding": "dynamic_array",
        "label": "address[]",
        "numberOfBytes": "32"
      },
      "t_bool": {
        "encoding": "inplace",
        "label": "bool",
        "numberOfBytes": "1"
      },
      "t_mapping(t_address,t_bool)": {
        "encoding": "mapping",
        "key": "t_address",
        "label": "mapping(address => bool)",
        "numberOfBytes": "32",
        "value": "t_bool"
      },
      "t_mapping(t_address,t_mapping(t_address,t_mapping(t_bool,t_address)))": {
        "encoding": "mapping",
        "key": "t_address",
        "label": "mapping(address => mapping(address => mapping(bool => address)))",
        "numberOfBytes": "32",
        "value": "t_mapping(t_address,t_mapping(t_bool,t_address))"
      },
      "t_mapping(t_address,t_mapping(t_bool,t_address))": {
        "encoding": "mapping",
        "key": "t_address",
        "label": "mapping(address => mapping(bool => address))",
        "numberOfBytes": "32",
        "value": "t_mapping(t_bool,t_address)"
      },
      "t_mapping(t_bool,t_address)": {
        "encoding": "mapping",
        "key": "t_bool",
        "label": "mapping(bool => address)",
        "numberOfBytes": "32",
        "value": "t_address"
      },
      "t_uint256": {
        "encoding": "inplace",
        "label": "uint256",
        "numberOfBytes": "32"
      }
    }
  }
}