{
  "address": "0xC5B58aE761a77fF16d548dE9b42933c8FBfe4c33",
  "abi": [
    {
      "inputs": [
        {
          "internalType": "address",
          "name": "__ve",
          "type": "address"
        },
        {
          "internalType": "address",
          "name": "_factory",
          "type": "address"
        },
        {
          "internalType": "address",
          "name": "_gauges",
          "type": "address"
        },
        {
          "internalType": "address",
          "name": "_bribes",
          "type": "address"
        },
        {
          "internalType": "address",
          "name": "_wrappedxbribefactory",
          "type": "address"
        }
      ],
      "stateMutability": "nonpayable",
      "type": "constructor"
    },
    {
      "anonymous": false,
      "inputs": [
        {
          "indexed": false,
          "internalType": "uint256",
          "name": "tokenId",
          "type": "uint256"
        },
        {
          "indexed": false,
          "internalType": "uint256",
          "name": "weight",
          "type": "uint256"
        }
      ],
      "name": "Abstained",
      "type": "event"
    },
    {
      "anonymous": false,
      "inputs": [
        {
          "indexed": true,
          "internalType": "address",
          "name": "owner",
          "type": "address"
        },
        {
          "indexed": true,
          "internalType": "address",
          "name": "gauge",
          "type": "address"
        },
        {
          "indexed": false,
          "internalType": "uint256",
          "name": "tokenId",
          "type": "uint256"
        }
      ],
      "name": "Attach",
      "type": "event"
    },
    {
      "anonymous": false,
      "inputs": [
        {
          "indexed": true,
          "internalType": "address",
          "name": "lp",
          "type": "address"
        },
        {
          "indexed": true,
          "internalType": "address",
          "name": "gauge",
          "type": "address"
        },
        {
          "indexed": false,
          "internalType": "uint256",
          "name": "tokenId",
          "type": "uint256"
        },
        {
          "indexed": false,
          "internalType": "uint256",
          "name": "amount",
          "type": "uint256"
        }
      ],
      "name": "Deposit",
      "type": "event"
    },
    {
      "anonymous": false,
      "inputs": [
        {
          "indexed": true,
          "internalType": "address",
          "name": "owner",
          "type": "address"
        },
        {
          "indexed": true,
          "internalType": "address",
          "name": "gauge",
          "type": "address"
        },
        {
          "indexed": false,
          "internalType": "uint256",
          "name": "tokenId",
          "type": "uint256"
        }
      ],
      "name": "Detach",
      "type": "event"
    },
    {
      "anonymous": false,
      "inputs": [
        {
          "indexed": true,
          "internalType": "address",
          "name": "sender",
          "type": "address"
        },
        {
          "indexed": true,
          "internalType": "address",
          "name": "gauge",
          "type": "address"
        },
        {
          "indexed": false,
          "internalType": "uint256",
          "name": "amount",
          "type": "uint256"
        }
      ],
      "name": "DistributeReward",
      "type": "event"
    },
    {
      "anonymous": false,
      "inputs": [
        {
          "indexed": true,
          "internalType": "address",
          "name": "gauge",
          "type": "address"
        },
        {
          "indexed": false,
          "internalType": "address",
          "name": "creator",
          "type": "address"
        },
        {
          "indexed": false,
          "internalType": "address",
          "name": "internal_bribe",
          "type": "address"
        },
        {
          "indexed": true,
          "internalType": "address",
          "name": "external_bribe",
          "type": "address"
        },
        {
          "indexed": false,
          "internalType": "address",
          "name": "wxbribe",
          "type": "address"
        },
        {
          "indexed": true,
          "internalType": "address",
          "name": "pool",
          "type": "address"
        }
      ],
      "name": "GaugeCreated",
      "type": "event"
    },
    {
      "anonymous": false,
      "inputs": [
        {
          "indexed": true,
          "internalType": "address",
          "name": "gauge",
          "type": "address"
        }
      ],
      "name": "GaugeKilled",
      "type": "event"
    },
    {
      "anonymous": false,
      "inputs": [
        {
          "indexed": true,
          "internalType": "address",
          "name": "gauge",
          "type": "address"
        }
      ],
      "name": "GaugeRevived",
      "type": "event"
    },
    {
      "anonymous": false,
      "inputs": [
        {
          "indexed": true,
          "internalType": "address",
          "name": "sender",
          "type": "address"
        },
        {
          "indexed": true,
          "internalType": "address",
          "name": "reward",
          "type": "address"
        },
        {
          "indexed": false,
          "internalType": "uint256",
          "name": "amount",
          "type": "uint256"
        }
      ],
      "name": "NotifyReward",
      "type": "event"
    },
    {
      "anonymous": false,
      "inputs": [
        {
          "indexed": true,
          "internalType": "address",
          "name": "voter",
          "type": "address"
        },
        {
          "indexed": false,
          "internalType": "uint256",
          "name": "tokenId",
          "type": "uint256"
        },
        {
          "indexed": false,
          "internalType": "uint256",
          "name": "weight",
          "type": "uint256"
        }
      ],
      "name": "Voted",
      "type": "event"
    },
    {
      "anonymous": false,
      "inputs": [
        {
          "indexed": true,
          "internalType": "address",
          "name": "whitelister",
          "type": "address"
        },
        {
          "indexed": true,
          "internalType": "address",
          "name": "token",
          "type": "address"
        }
      ],
      "name": "Whitelisted",
      "type": "event"
    },
    {
      "anonymous": false,
      "inputs": [
        {
          "indexed": true,
          "internalType": "address",
          "name": "lp",
          "type": "address"
        },
        {
          "indexed": true,
          "internalType": "address",
          "name": "gauge",
          "type": "address"
        },
        {
          "indexed": false,
          "internalType": "uint256",
          "name": "tokenId",
          "type": "uint256"
        },
        {
          "indexed": false,
          "internalType": "uint256",
          "name": "amount",
          "type": "uint256"
        }
      ],
      "name": "Withdraw",
      "type": "event"
    },
    {
      "inputs": [],
      "name": "_ve",
      "outputs": [
        {
          "internalType": "address",
          "name": "",
          "type": "address"
        }
      ],
      "stateMutability": "view",
      "type": "function"
    },
    {
      "inputs": [
        {
          "internalType": "uint256",
          "name": "tokenId",
          "type": "uint256"
        },
        {
          "internalType": "address",
          "name": "account",
          "type": "address"
        }
      ],
      "name": "attachTokenToGauge",
      "outputs": [],
      "stateMutability": "nonpayable",
      "type": "function"
    },
    {
      "inputs": [],
      "name": "bribefactory",
      "outputs": [
        {
          "internalType": "address",
          "name": "",
          "type": "address"
        }
      ],
      "stateMutability": "view",
      "type": "function"
    },
    {
      "inputs": [
        {
          "internalType": "address[]",
          "name": "_bribes",
          "type": "address[]"
        },
        {
          "internalType": "address[][]",
          "name": "_tokens",
          "type": "address[][]"
        },
        {
          "internalType": "uint256",
          "name": "_tokenId",
          "type": "uint256"
        }
      ],
      "name": "claimBribes",
      "outputs": [],
      "stateMutability": "nonpayable",
      "type": "function"
    },
    {
      "inputs": [
        {
          "internalType": "address[]",
          "name": "_fees",
          "type": "address[]"
        },
        {
          "internalType": "address[][]",
          "name": "_tokens",
          "type": "address[][]"
        },
        {
          "internalType": "uint256",
          "name": "_tokenId",
          "type": "uint256"
        }
      ],
      "name": "claimFees",
      "outputs": [],
      "stateMutability": "nonpayable",
      "type": "function"
    },
    {
      "inputs": [
        {
          "internalType": "address[]",
          "name": "_gauges",
          "type": "address[]"
        },
        {
          "internalType": "address[][]",
          "name": "_tokens",
          "type": "address[][]"
        }
      ],
      "name": "claimRewards",
      "outputs": [],
      "stateMutability": "nonpayable",
      "type": "function"
    },
    {
      "inputs": [
        {
          "internalType": "address",
          "name": "",
          "type": "address"
        }
      ],
      "name": "claimable",
      "outputs": [
        {
          "internalType": "uint256",
          "name": "",
          "type": "uint256"
        }
      ],
      "stateMutability": "view",
      "type": "function"
    },
    {
      "inputs": [
        {
          "internalType": "address",
          "name": "_pool",
          "type": "address"
        }
      ],
      "name": "createGauge",
      "outputs": [
        {
          "internalType": "address",
          "name": "",
          "type": "address"
        }
      ],
      "stateMutability": "nonpayable",
      "type": "function"
    },
    {
      "inputs": [
        {
          "internalType": "uint256",
          "name": "tokenId",
          "type": "uint256"
        },
        {
          "internalType": "address",
          "name": "account",
          "type": "address"
        }
      ],
      "name": "detachTokenFromGauge",
      "outputs": [],
      "stateMutability": "nonpayable",
      "type": "function"
    },
    {
      "inputs": [
        {
          "internalType": "address[]",
          "name": "_gauges",
          "type": "address[]"
        }
      ],
      "name": "distribute",
      "outputs": [],
      "stateMutability": "nonpayable",
      "type": "function"
    },
    {
      "inputs": [
        {
          "internalType": "address",
          "name": "_gauge",
          "type": "address"
        }
      ],
      "name": "distribute",
      "outputs": [],
      "stateMutability": "nonpayable",
      "type": "function"
    },
    {
      "inputs": [
        {
          "internalType": "uint256",
          "name": "start",
          "type": "uint256"
        },
        {
          "internalType": "uint256",
          "name": "finish",
          "type": "uint256"
        }
      ],
      "name": "distribute",
      "outputs": [],
      "stateMutability": "nonpayable",
      "type": "function"
    },
    {
      "inputs": [],
      "name": "distribute",
      "outputs": [],
      "stateMutability": "nonpayable",
      "type": "function"
    },
    {
      "inputs": [
        {
          "internalType": "address[]",
          "name": "_gauges",
          "type": "address[]"
        }
      ],
      "name": "distributeFees",
      "outputs": [],
      "stateMutability": "nonpayable",
      "type": "function"
    },
    {
      "inputs": [],
      "name": "distro",
      "outputs": [],
      "stateMutability": "nonpayable",
      "type": "function"
    },
    {
      "inputs": [],
      "name": "emergencyCouncil",
      "outputs": [
        {
          "internalType": "address",
          "name": "",
          "type": "address"
        }
      ],
      "stateMutability": "view",
      "type": "function"
    },
    {
      "inputs": [
        {
          "internalType": "uint256",
          "name": "tokenId",
          "type": "uint256"
        },
        {
          "internalType": "address",
          "name": "account",
          "type": "address"
        },
        {
          "internalType": "uint256",
          "name": "amount",
          "type": "uint256"
        }
      ],
      "name": "emitDeposit",
      "outputs": [],
      "stateMutability": "nonpayable",
      "type": "function"
    },
    {
      "inputs": [
        {
          "internalType": "uint256",
          "name": "tokenId",
          "type": "uint256"
        },
        {
          "internalType": "address",
          "name": "account",
          "type": "address"
        },
        {
          "internalType": "uint256",
          "name": "amount",
          "type": "uint256"
        }
      ],
      "name": "emitWithdraw",
      "outputs": [],
      "stateMutability": "nonpayable",
      "type": "function"
    },
    {
      "inputs": [
        {
          "internalType": "address",
          "name": "",
          "type": "address"
        }
      ],
      "name": "external_bribes",
      "outputs": [
        {
          "internalType": "address",
          "name": "",
          "type": "address"
        }
      ],
      "stateMutability": "view",
      "type": "function"
    },
    {
      "inputs": [],
      "name": "factory",
      "outputs": [
        {
          "internalType": "address",
          "name": "",
          "type": "address"
        }
      ],
      "stateMutability": "view",
      "type": "function"
    },
    {
      "inputs": [],
      "name": "gaugefactory",
      "outputs": [
        {
          "internalType": "address",
          "name": "",
          "type": "address"
        }
      ],
      "stateMutability": "view",
      "type": "function"
    },
    {
      "inputs": [
        {
          "internalType": "address",
          "name": "",
          "type": "address"
        }
      ],
      "name": "gauges",
      "outputs": [
        {
          "internalType": "address",
          "name": "",
          "type": "address"
        }
      ],
      "stateMutability": "view",
      "type": "function"
    },
    {
      "inputs": [],
      "name": "governor",
      "outputs": [
        {
          "internalType": "address",
          "name": "",
          "type": "address"
        }
      ],
      "stateMutability": "view",
      "type": "function"
    },
    {
      "inputs": [
        {
          "internalType": "address[]",
          "name": "_tokens",
          "type": "address[]"
        },
        {
          "internalType": "address",
          "name": "_minter",
          "type": "address"
        }
      ],
      "name": "initialize",
      "outputs": [],
      "stateMutability": "nonpayable",
      "type": "function"
    },
    {
      "inputs": [
        {
          "internalType": "address",
          "name": "",
          "type": "address"
        }
      ],
      "name": "internal_bribes",
      "outputs": [
        {
          "internalType": "address",
          "name": "",
          "type": "address"
        }
      ],
      "stateMutability": "view",
      "type": "function"
    },
    {
      "inputs": [
        {
          "internalType": "address",
          "name": "",
          "type": "address"
        }
      ],
      "name": "isAlive",
      "outputs": [
        {
          "internalType": "bool",
          "name": "",
          "type": "bool"
        }
      ],
      "stateMutability": "view",
      "type": "function"
    },
    {
      "inputs": [
        {
          "internalType": "address",
          "name": "",
          "type": "address"
        }
      ],
      "name": "isGauge",
      "outputs": [
        {
          "internalType": "bool",
          "name": "",
          "type": "bool"
        }
      ],
      "stateMutability": "view",
      "type": "function"
    },
    {
      "inputs": [
        {
          "internalType": "address",
          "name": "",
          "type": "address"
        }
      ],
      "name": "isWhitelisted",
      "outputs": [
        {
          "internalType": "bool",
          "name": "",
          "type": "bool"
        }
      ],
      "stateMutability": "view",
      "type": "function"
    },
    {
      "inputs": [
        {
          "internalType": "address",
          "name": "_gauge",
          "type": "address"
        }
      ],
      "name": "killGauge",
      "outputs": [],
      "stateMutability": "nonpayable",
      "type": "function"
    },
    {
      "inputs": [
        {
          "internalType": "uint256",
          "name": "",
          "type": "uint256"
        }
      ],
      "name": "lastVoted",
      "outputs": [
        {
          "internalType": "uint256",
          "name": "",
          "type": "uint256"
        }
      ],
      "stateMutability": "view",
      "type": "function"
    },
    {
      "inputs": [],
      "name": "length",
      "outputs": [
        {
          "internalType": "uint256",
          "name": "",
          "type": "uint256"
        }
      ],
      "stateMutability": "view",
      "type": "function"
    },
    {
      "inputs": [],
      "name": "minter",
      "outputs": [
        {
          "internalType": "address",
          "name": "",
          "type": "address"
        }
      ],
      "stateMutability": "view",
      "type": "function"
    },
    {
      "inputs": [
        {
          "internalType": "uint256",
          "name": "amount",
          "type": "uint256"
        }
      ],
      "name": "notifyRewardAmount",
      "outputs": [],
      "stateMutability": "nonpayable",
      "type": "function"
    },
    {
      "inputs": [
        {
          "internalType": "uint256",
          "name": "_tokenId",
          "type": "uint256"
        }
      ],
      "name": "poke",
      "outputs": [],
      "stateMutability": "nonpayable",
      "type": "function"
    },
    {
      "inputs": [
        {
          "internalType": "address",
          "name": "",
          "type": "address"
        }
      ],
      "name": "poolForGauge",
      "outputs": [
        {
          "internalType": "address",
          "name": "",
          "type": "address"
        }
      ],
      "stateMutability": "view",
      "type": "function"
    },
    {
      "inputs": [
        {
          "internalType": "uint256",
          "name": "",
          "type": "uint256"
        },
        {
          "internalType": "uint256",
          "name": "",
          "type": "uint256"
        }
      ],
      "name": "poolVote",
      "outputs": [
        {
          "internalType": "address",
          "name": "",
          "type": "address"
        }
      ],
      "stateMutability": "view",
      "type": "function"
    },
    {
      "inputs": [
        {
          "internalType": "uint256",
          "name": "",
          "type": "uint256"
        }
      ],
      "name": "pools",
      "outputs": [
        {
          "internalType": "address",
          "name": "",
          "type": "address"
        }
      ],
      "stateMutability": "view",
      "type": "function"
    },
    {
      "inputs": [
        {
          "internalType": "uint256",
          "name": "_tokenId",
          "type": "uint256"
        }
      ],
      "name": "reset",
      "outputs": [],
      "stateMutability": "nonpayable",
      "type": "function"
    },
    {
      "inputs": [
        {
          "internalType": "address",
          "name": "_gauge",
          "type": "address"
        }
      ],
      "name": "reviveGauge",
      "outputs": [],
      "stateMutability": "nonpayable",
      "type": "function"
    },
    {
      "inputs": [
        {
          "internalType": "address",
          "name": "_council",
          "type": "address"
        }
      ],
      "name": "setEmergencyCouncil",
      "outputs": [],
      "stateMutability": "nonpayable",
      "type": "function"
    },
    {
      "inputs": [
        {
          "internalType": "address",
          "name": "_governor",
          "type": "address"
        }
      ],
      "name": "setGovernor",
      "outputs": [],
      "stateMutability": "nonpayable",
      "type": "function"
    },
    {
      "inputs": [],
      "name": "totalWeight",
      "outputs": [
        {
          "internalType": "uint256",
          "name": "",
          "type": "uint256"
        }
      ],
      "stateMutability": "view",
      "type": "function"
    },
    {
      "inputs": [],
      "name": "updateAll",
      "outputs": [],
      "stateMutability": "nonpayable",
      "type": "function"
    },
    {
      "inputs": [
        {
          "internalType": "address[]",
          "name": "_gauges",
          "type": "address[]"
        }
      ],
      "name": "updateFor",
      "outputs": [],
      "stateMutability": "nonpayable",
      "type": "function"
    },
    {
      "inputs": [
        {
          "internalType": "uint256",
          "name": "start",
          "type": "uint256"
        },
        {
          "internalType": "uint256",
          "name": "end",
          "type": "uint256"
        }
      ],
      "name": "updateForRange",
      "outputs": [],
      "stateMutability": "nonpayable",
      "type": "function"
    },
    {
      "inputs": [
        {
          "internalType": "address",
          "name": "_gauge",
          "type": "address"
        }
      ],
      "name": "updateGauge",
      "outputs": [],
      "stateMutability": "nonpayable",
      "type": "function"
    },
    {
      "inputs": [
        {
          "internalType": "uint256",
          "name": "",
          "type": "uint256"
        }
      ],
      "name": "usedWeights",
      "outputs": [
        {
          "internalType": "uint256",
          "name": "",
          "type": "uint256"
        }
      ],
      "stateMutability": "view",
      "type": "function"
    },
    {
      "inputs": [
        {
          "internalType": "uint256",
          "name": "tokenId",
          "type": "uint256"
        },
        {
          "internalType": "address[]",
          "name": "_poolVote",
          "type": "address[]"
        },
        {
          "internalType": "uint256[]",
          "name": "_weights",
          "type": "uint256[]"
        }
      ],
      "name": "vote",
      "outputs": [],
      "stateMutability": "nonpayable",
      "type": "function"
    },
    {
      "inputs": [
        {
          "internalType": "uint256",
          "name": "",
          "type": "uint256"
        },
        {
          "internalType": "address",
          "name": "",
          "type": "address"
        }
      ],
      "name": "votes",
      "outputs": [
        {
          "internalType": "uint256",
          "name": "",
          "type": "uint256"
        }
      ],
      "stateMutability": "view",
      "type": "function"
    },
    {
      "inputs": [
        {
          "internalType": "address",
          "name": "",
          "type": "address"
        }
      ],
      "name": "weights",
      "outputs": [
        {
          "internalType": "uint256",
          "name": "",
          "type": "uint256"
        }
      ],
      "stateMutability": "view",
      "type": "function"
    },
    {
      "inputs": [
        {
          "internalType": "address",
          "name": "_token",
          "type": "address"
        }
      ],
      "name": "whitelist",
      "outputs": [],
      "stateMutability": "nonpayable",
      "type": "function"
    },
    {
      "inputs": [],
      "name": "wrappedxbribefactory",
      "outputs": [
        {
          "internalType": "address",
          "name": "",
          "type": "address"
        }
      ],
      "stateMutability": "view",
      "type": "function"
    }
  ],
  "transactionHash": "0xbad62622f3d3518c760b610da9799e96dba23fe62d9f1c32291172f0115c17c4",
  "args": [
    "0x990efF367C6c4aece43c1E98099061c897730F27",
    "0xb12aF64E128A1D4489D13314eB4Df81cBCE126aC",
    "0xA472b00DdCf03f099dB954c70133dD6F0c5Fcc26",
    "0xa9fa811Cc3BDdF9ba8dAC435f26B77525Eb3B546",
    "0x3a9238141a4655d0dC907e18BBf9c21b843F09c7"
  ],
  "numDeployments": 1,
  "solcInputHash": "35e0ac8ae47caef0caca6801c152e6fb",
  "bytecode": "0x610140604052600080546001600160a01b0319908116730a178469e3d08beaa0a289e416ab924f10807989179091556001805490911673ecf044c5b4b867cfda001101c617ecd347095b441781556013553480156200005d57600080fd5b5060405162003aa638038062003aa68339810160408190526200008091620001df565b6001600160a01b03808616608081905290851660a05260408051637e062a3560e11b8152905163fc0c546a916004808201926020929091908290030181865afa158015620000d2573d6000803e3d6000fd5b505050506040513d601f19601f82011682018060405250810190620000f891906200024f565b6001600160a01b0390811660c05283811660e052828116610100528181166101205260028054336001600160a01b0319918216811790925560038054821683179055600480549091169091178155600154600054604051632210724360e11b81529084169281019290925290911690634420e486906024016020604051808303816000875af115801562000190573d6000803e3d6000fd5b505050506040513d601f19601f82011682018060405250810190620001b6919062000274565b5050505050506200028e565b80516001600160a01b0381168114620001da57600080fd5b919050565b600080600080600060a08688031215620001f857600080fd5b6200020386620001c2565b94506200021360208701620001c2565b93506200022360408701620001c2565b92506200023360608701620001c2565b91506200024360808701620001c2565b90509295509295909350565b6000602082840312156200026257600080fd5b6200026d82620001c2565b9392505050565b6000602082840312156200028757600080fd5b5051919050565b60805160a05160c05160e05161010051610120516137276200037f600039600081816104c80152611e7d01526000818161040201528181611d4d0152611dcb0152600081816105150152611ef0015260008181610c8301528181610cfc01528181610fc20152818161107e01528181611bb201528181611beb01528181611c1d0152611fd101526000818161073e0152611a090152600081816105ce0152818161096d01528181610a1901528181610a9d01528181610d890152818161114e015281816112cf015281816113ff015281816115be01528181611f220152818161292c0152612cef01526137276000f3fe608060405234801561001057600080fd5b506004361061030c5760003560e01c806379e938241161019d578063ac4afa38116100e9578063d23254b4116100a2578063e586875f1161007c578063e586875f146107b1578063ea94ee44146107c4578063eae40f26146107d7578063f3594be01461080057600080fd5b8063d23254b414610773578063d560b0d71461079e578063e4fc6b6d146104a057600080fd5b8063ac4afa38146106c1578063ae21c4cb146106d4578063b9a09fd5146106fd578063c42cf53514610726578063c45a015514610739578063c527ee1f1461076057600080fd5b80639b6a9d7211610156578063a61c713a11610130578063a61c713a14610658578063a7cac8461461066b578063a86a366d1461068b578063aa79979b1461069e57600080fd5b80639b6a9d721461061f5780639f06247b14610632578063a5f4301e1461064557600080fd5b806379e93824146105965780637ac09bf7146105b65780638dd598fb146105c957806396c82e57146105f0578063992a7933146105f95780639b19251a1461060c57600080fd5b8063462d0b2e1161025c578063666256aa116102155780636ecbe38a116101ef5780636ecbe38a1461054a5780637625391a1461055d5780637715ee75146105705780637778960e1461058357600080fd5b8063666256aa146104fd57806368c3acb314610510578063698473e31461053757600080fd5b8063462d0b2e1461048d57806347b3c6ba146104a057806353d78693146104a85780636138889b146104b057806361aacd47146104c357806363453ae1146104ea57600080fd5b8063310bd74b116102c95780633af32abf116102a35780633af32abf146104245780633c6b16ab14610447578063402914f51461045a578063411b1f771461047a57600080fd5b8063310bd74b146103d757806332145f90146103ea57806338752a9d146103fd57600080fd5b806306d6a1b21461031157806307546172146103575780630c340a241461036a5780631703e5f91461037d5780631f7b6d32146103b057806320b1cb6f146103c2575b600080fd5b61033a61031f366004613031565b6008602052600090815260409020546001600160a01b031681565b6040516001600160a01b0390911681526020015b60405180910390f35b60025461033a906001600160a01b031681565b60035461033a906001600160a01b031681565b6103a061038b366004613031565b60126020526000908152604090205460ff1681565b604051901515815260200161034e565b6006545b60405190815260200161034e565b6103d56103d03660046131b4565b610820565b005b6103d56103e5366004613218565b6108d6565b6103d56103f8366004613218565b610a81565b61033a7f000000000000000000000000000000000000000000000000000000000000000081565b6103a0610432366004613031565b60116020526000908152604090205460ff1681565b6103d5610455366004613218565b610c7e565b6103b4610468366004613031565b60166020526000908152604090205481565b6103d5610488366004613231565b610d51565b6103d561049b366004613261565b610e2b565b6103d5610ea6565b6103d5610eb7565b6103d56104be3660046132a8565b610ec6565b61033a7f000000000000000000000000000000000000000000000000000000000000000081565b6103d56104f8366004613031565b610f0a565b6103d561050b3660046132e5565b611132565b61033a7f000000000000000000000000000000000000000000000000000000000000000081565b6103d5610545366004613231565b61127b565b6103d5610558366004613031565b611371565b6103d561056b366004613352565b61137d565b6103d561057e3660046132e5565b6113e3565b60045461033a906001600160a01b031681565b6103b46105a4366004613218565b600e6020526000908152604090205481565b6103d56105c43660046133c0565b61152c565b61033a7f000000000000000000000000000000000000000000000000000000000000000081565b6103b460055481565b6103d5610607366004613031565b6116c4565b6103d561061a366004613031565b6117c9565b6103d561062d366004613352565b6117e9565b6103d5610640366004613031565b61184f565b61033a610653366004613031565b61194c565b6103d561066636600461343a565b61234d565b6103b4610679366004613031565b600b6020526000908152604090205481565b61033a610699366004613352565b6123d1565b6103a06106ac366004613031565b60106020526000908152604090205460ff1681565b61033a6106cf366004613218565b612409565b61033a6106e2366004613031565b600a602052600090815260409020546001600160a01b031681565b61033a61070b366004613031565b6007602052600090815260409020546001600160a01b031681565b6103d5610734366004613031565b612433565b61033a7f000000000000000000000000000000000000000000000000000000000000000081565b6103d561076e3660046132a8565b61246c565b6103b4610781366004613231565b600c60209081526000928352604080842090915290825290205481565b6103d56107ac3660046132a8565b612589565b6103d56107bf366004613031565b6125c9565b6103d56107d236600461343a565b612602565b61033a6107e5366004613031565b6009602052600090815260409020546001600160a01b031681565b6103b461080e366004613218565b600f6020526000908152604090205481565b60005b82518110156108d15782818151811061083e5761083e613472565b60200260200101516001600160a01b03166331279d3d3384848151811061086757610867613472565b60200260200101516040518363ffffffff1660e01b815260040161088c9291906134cc565b600060405180830381600087803b1580156108a657600080fd5b505af11580156108ba573d6000803e3d6000fd5b5050505080806108c990613506565b915050610823565b505050565b6000818152600f6020526040902054819062093a806108f5814261351f565b6108ff9190613541565b116109515760405162461bcd60e51b815260206004820152601e60248201527f544f4b454e5f414c52454144595f564f5445445f544849535f45504f4348000060448201526064015b60405180910390fd5b60405163430c208160e01b8152336004820152602481018390527f00000000000000000000000000000000000000000000000000000000000000006001600160a01b03169063430c208190604401602060405180830381865afa1580156109bc573d6000803e3d6000fd5b505050506040513d601f19601f820116820180604052508101906109e09190613560565b6109e957600080fd5b6000828152600f60205260409020429055610a0382612661565b60405163c1f0fb9f60e01b8152600481018390527f00000000000000000000000000000000000000000000000000000000000000006001600160a01b03169063c1f0fb9f90602401600060405180830381600087803b158015610a6557600080fd5b505af1158015610a79573d6000803e3d6000fd5b505050505050565b60405163430c208160e01b8152336004820152602481018290527f00000000000000000000000000000000000000000000000000000000000000006001600160a01b03169063430c208190604401602060405180830381865afa158015610aec573d6000803e3d6000fd5b505050506040513d601f19601f82011682018060405250810190610b109190613560565b80610b2557506003546001600160a01b031633145b610b2e57600080fd5b6000818152600d6020908152604080832080548251818502810185019093528083529192909190830182828015610b8e57602002820191906000526020600020905b81546001600160a01b03168152600190910190602001808311610b70575b5050505050905060008151905060008167ffffffffffffffff811115610bb657610bb6613055565b604051908082528060200260200182016040528015610bdf578160200160208202803683370190505b50905060005b82811015610c6c57600c60008681526020019081526020016000206000858381518110610c1457610c14613472565b60200260200101516001600160a01b03166001600160a01b0316815260200190815260200160002054828281518110610c4f57610c4f613472565b602090810291909101015280610c6481613506565b915050610be5565b50610c78848483612908565b50505050565b610caa7f0000000000000000000000000000000000000000000000000000000000000000333084612d86565b600554600090610cc283670de0b6b3a7640000613541565b610ccc919061351f565b90508015610cec578060146000828254610ce69190613582565b90915550505b6040518281526001600160a01b037f0000000000000000000000000000000000000000000000000000000000000000169033907ff70d5c697de7ea828df48e5c4573cb2194c659f1901f70110c52b066dcf50826906020015b60405180910390a35050565b3360009081526010602052604090205460ff16610d6d57600080fd5b8115610dee57604051634c35bec560e11b8152600481018390527f00000000000000000000000000000000000000000000000000000000000000006001600160a01b03169063986b7d8a90602401600060405180830381600087803b158015610dd557600080fd5b505af1158015610de9573d6000803e3d6000fd5b505050505b60405182815233906001600160a01b038316907fae268d9aab12f3605f58efd74fd3801fa812b03fdb44317eb70f46dff0e19e2290602001610d45565b6002546001600160a01b03163314610e4257600080fd5b60005b8251811015610e8257610e70838281518110610e6357610e63613472565b6020026020010151612e76565b80610e7a81613506565b915050610e45565b50600280546001600160a01b0319166001600160a01b039290921691909117905550565b600654610eb59060009061137d565b565b600654610eb5906000906117e9565b60005b8151811015610f0657610ef4828281518110610ee757610ee7613472565b6020026020010151610f0a565b80610efe81613506565b915050610ec9565b5050565b601354600114610f1957600080fd5b60026013819055546040805163ed29fc1160e01b815290516001600160a01b039092169163ed29fc119160048082019260209290919082900301816000875af1158015610f6a573d6000803e3d6000fd5b505050506040513d601f19601f82011682018060405250810190610f8e919061359a565b50610f9881612ee9565b6001600160a01b0381811660008181526016602052604090819020549051634cde602960e11b81527f00000000000000000000000000000000000000000000000000000000000000009093166004840152916399bcc05290602401602060405180830381865afa158015611010573d6000803e3d6000fd5b505050506040513d601f19601f82011682018060405250810190611034919061359a565b8111801561104e5750600061104c62093a808361351f565b115b15611129576001600160a01b03828116600081815260166020526040808220919091555163b66503cf60e01b81527f00000000000000000000000000000000000000000000000000000000000000009092166004830152602482018390529063b66503cf90604401600060405180830381600087803b1580156110d057600080fd5b505af11580156110e4573d6000803e3d6000fd5b50506040518381526001600160a01b03851692503391507f4fa9693cae526341d334e2862ca2413b2e503f1266255f9e0869fb36e6d89b179060200160405180910390a35b50506001601355565b60405163430c208160e01b8152336004820152602481018290527f00000000000000000000000000000000000000000000000000000000000000006001600160a01b03169063430c208190604401602060405180830381865afa15801561119d573d6000803e3d6000fd5b505050506040513d601f19601f820116820180604052508101906111c19190613560565b6111ca57600080fd5b60005b8351811015610c78578381815181106111e8576111e8613472565b60200260200101516001600160a01b031663a7852afa8385848151811061121157611211613472565b60200260200101516040518363ffffffff1660e01b81526004016112369291906135b3565b600060405180830381600087803b15801561125057600080fd5b505af1158015611264573d6000803e3d6000fd5b50505050808061127390613506565b9150506111cd565b3360009081526010602052604090205460ff1661129757600080fd5b3360009081526012602052604090205460ff166112b357600080fd5b81156113345760405163fbd3a29d60e01b8152600481018390527f00000000000000000000000000000000000000000000000000000000000000006001600160a01b03169063fbd3a29d90602401600060405180830381600087803b15801561131b57600080fd5b505af115801561132f573d6000803e3d6000fd5b505050505b60405182815233906001600160a01b038316907f60940192810a6fb3bce3fd3e2e3a13fd6ccc7605e963fb87ee971aba829989bd90602001610d45565b61137a81612ee9565b50565b815b818110156108d1576113d160076000600684815481106113a1576113a1613472565b60009182526020808320909101546001600160a01b03908116845290830193909352604090910190205416610f0a565b806113db81613506565b91505061137f565b60405163430c208160e01b8152336004820152602481018290527f00000000000000000000000000000000000000000000000000000000000000006001600160a01b03169063430c208190604401602060405180830381865afa15801561144e573d6000803e3d6000fd5b505050506040513d601f19601f820116820180604052508101906114729190613560565b61147b57600080fd5b60005b8351811015610c785783818151811061149957611499613472565b60200260200101516001600160a01b031663a7852afa838584815181106114c2576114c2613472565b60200260200101516040518363ffffffff1660e01b81526004016114e79291906135b3565b600060405180830381600087803b15801561150157600080fd5b505af1158015611515573d6000803e3d6000fd5b50505050808061152490613506565b91505061147e565b6000858152600f6020526040902054859062093a8061154b814261351f565b6115559190613541565b116115a25760405162461bcd60e51b815260206004820152601e60248201527f544f4b454e5f414c52454144595f564f5445445f544849535f45504f434800006044820152606401610948565b60405163430c208160e01b8152336004820152602481018790527f00000000000000000000000000000000000000000000000000000000000000006001600160a01b03169063430c208190604401602060405180830381865afa15801561160d573d6000803e3d6000fd5b505050506040513d601f19601f820116820180604052508101906116319190613560565b61163a57600080fd5b83821461164657600080fd5b6000868152600f602090815260409182902042905581518682028181018301909352868152610a799289928991899182919085019084908082843760009201919091525050604080516020808a0282810182019093528982529093508992508891829185019084908082843760009201919091525061290892505050565b6004546001600160a01b031633146117165760405162461bcd60e51b81526020600482015260156024820152741b9bdd08195b595c99d95b98de4818dbdd5b98da5b605a1b6044820152606401610948565b6001600160a01b03811660009081526012602052604090205460ff166117735760405162461bcd60e51b815260206004820152601260248201527119d85d59d948185b1c9958591e481919585960721b6044820152606401610948565b6001600160a01b0381166000818152601260209081526040808320805460ff191690556016909152808220829055517f04a5d3f5d80d22d9345acc80618f4a4e7e663cf9e1aed23b57d975acec002ba79190a250565b6003546001600160a01b031633146117e057600080fd5b61137a81612e76565b815b818110156108d15761183d600760006006848154811061180d5761180d613472565b60009182526020808320909101546001600160a01b03908116845290830193909352604090910190205416612ee9565b8061184781613506565b9150506117eb565b6004546001600160a01b031633146118a15760405162461bcd60e51b81526020600482015260156024820152741b9bdd08195b595c99d95b98de4818dbdd5b98da5b605a1b6044820152606401610948565b6001600160a01b03811660009081526012602052604090205460ff16156119005760405162461bcd60e51b8152602060048201526013602482015272676175676520616c726561647920616c69766560681b6044820152606401610948565b6001600160a01b038116600081815260126020526040808220805460ff19166001179055517fed18e9faa3dccfd8aa45f69c4de40546b2ca9cccc4538a2323531656516db1aa9190a250565b6001600160a01b038181166000908152600760205260408120549091161561199f5760405162461bcd60e51b815260206004820152600660248201526565786973747360d01b6044820152606401610948565b60408051600380825260808201909252600091602082016060803683375050604080516002808252606082018352939450600093909250906020830190803683370190505060405163e5e31b1360e01b81526001600160a01b0386811660048301529192506000917f0000000000000000000000000000000000000000000000000000000000000000169063e5e31b1390602401602060405180830381865afa158015611a50573d6000803e3d6000fd5b505050506040513d601f19601f82011682018060405250810190611a749190613560565b90506000808215611c7057866001600160a01b0316639d63848a6040518163ffffffff1660e01b815260040160408051808303816000875af1158015611abe573d6000803e3d6000fd5b505050506040513d601f19601f82011682018060405250810190611ae291906135cc565b80925081935050508185600081518110611afe57611afe613472565b60200260200101906001600160a01b031690816001600160a01b0316815250508085600181518110611b3257611b32613472565b60200260200101906001600160a01b031690816001600160a01b0316815250508184600081518110611b6657611b66613472565b60200260200101906001600160a01b031690816001600160a01b0316815250508084600181518110611b9a57611b9a613472565b6001600160a01b0392831660209182029290920101527f0000000000000000000000000000000000000000000000000000000000000000811690831614801590611c165750806001600160a01b03167f00000000000000000000000000000000000000000000000000000000000000006001600160a01b031614155b15611c70577f000000000000000000000000000000000000000000000000000000000000000085600281518110611c4f57611c4f613472565b60200260200101906001600160a01b031690816001600160a01b0316815250505b6003546001600160a01b03163314611d335782611cb85760405162461bcd60e51b81526020600482015260066024820152650857dc1bdbdb60d21b6044820152606401610948565b6001600160a01b03821660009081526011602052604090205460ff168015611cf857506001600160a01b03811660009081526011602052604090205460ff165b611d335760405162461bcd60e51b815260206004820152600c60248201526b085dda1a5d195b1a5cdd195960a21b6044820152606401610948565b604051632a26b9eb60e01b81526000906001600160a01b037f00000000000000000000000000000000000000000000000000000000000000001690632a26b9eb90611d829088906004016135fb565b6020604051808303816000875af1158015611da1573d6000803e3d6000fd5b505050506040513d601f19601f82011682018060405250810190611dc5919061360e565b905060007f00000000000000000000000000000000000000000000000000000000000000006001600160a01b0316636485f0c4886040518263ffffffff1660e01b8152600401611e1591906135fb565b6020604051808303816000875af1158015611e34573d6000803e3d6000fd5b505050506040513d601f19601f82011682018060405250810190611e58919061360e565b604051631af469cb60e21b81526001600160a01b0380831660048301529192506000917f00000000000000000000000000000000000000000000000000000000000000001690636bd1a72c906024016020604051808303816000875af1158015611ec6573d6000803e3d6000fd5b505050506040513d601f19601f82011682018060405250810190611eea919061360e565b905060007f00000000000000000000000000000000000000000000000000000000000000006001600160a01b0316630bc25f4f8c86867f00000000000000000000000000000000000000000000000000000000000000008c8f6040518763ffffffff1660e01b8152600401611f649695949392919061362b565b6020604051808303816000875af1158015611f83573d6000803e3d6000fd5b505050506040513d601f19601f82011682018060405250810190611fa7919061360e565b60405163095ea7b360e01b81526001600160a01b03808316600483015260001960248301529192507f00000000000000000000000000000000000000000000000000000000000000009091169063095ea7b3906044016020604051808303816000875af115801561201c573d6000803e3d6000fd5b505050506040513d601f19601f820116820180604052508101906120409190613560565b508360096000836001600160a01b03166001600160a01b0316815260200190815260200160002060006101000a8154816001600160a01b0302191690836001600160a01b0316021790555082600a6000836001600160a01b03166001600160a01b0316815260200190815260200160002060006101000a8154816001600160a01b0302191690836001600160a01b0316021790555080600760008d6001600160a01b03166001600160a01b0316815260200190815260200160002060006101000a8154816001600160a01b0302191690836001600160a01b031602179055508a60086000836001600160a01b03166001600160a01b0316815260200190815260200160002060006101000a8154816001600160a01b0302191690836001600160a01b03160217905550600160106000836001600160a01b03166001600160a01b0316815260200190815260200160002060006101000a81548160ff021916908315150217905550600160126000836001600160a01b03166001600160a01b0316815260200190815260200160002060006101000a81548160ff0219169083151502179055506121ee81612ee9565b60068054600180820183556000929092527ff652222313e28459528d920b65115c16c04f3efc82aaedc97be59f3f377c0d3f0180546001600160a01b0319166001600160a01b038e169081179091556040516305916c7f60e51b815260048101929092529063b22d8fe090602401600060405180830381600087803b15801561227657600080fd5b505af115801561228a573d6000803e3d6000fd5b5050604051630ccccab360e11b81526001600160a01b0385811660048301528e16925063199995669150602401600060405180830381600087803b1580156122d157600080fd5b505af11580156122e5573d6000803e3d6000fd5b5050604080513381526001600160a01b0388811660208301528681168284015291518f831694508783169350918516917f63b97929cae47d2d1c9d5b568dcc31ecc6b6be5a51168abafc3d5d07e29add919181900360600190a49a9950505050505050505050565b3360009081526010602052604090205460ff1661236957600080fd5b3360009081526012602052604090205460ff1661238557600080fd5b604080518481526020810183905233916001600160a01b038516917fdcbc1c05240f31ff3ad067ef1ee35ce4997762752e3a095284754544f4c709d791015b60405180910390a3505050565b600d60205281600052604060002081815481106123ed57600080fd5b6000918252602090912001546001600160a01b03169150829050565b6006818154811061241957600080fd5b6000918252602090912001546001600160a01b0316905081565b6003546001600160a01b0316331461244a57600080fd5b600380546001600160a01b0319166001600160a01b0392909216919091179055565b60005b8151811015610f065781818151811061248a5761248a613472565b60200260200101516001600160a01b031663e57482136040518163ffffffff1660e01b8152600401602060405180830381865afa1580156124cf573d6000803e3d6000fd5b505050506040513d601f19601f820116820180604052508101906124f39190613560565b156125775781818151811061250a5761250a613472565b60200260200101516001600160a01b031663d294f0936040518163ffffffff1660e01b815260040160408051808303816000875af1158015612550573d6000803e3d6000fd5b505050506040513d601f19601f82011682018060405250810190612574919061367b565b50505b8061258181613506565b91505061246f565b60005b8151811015610f06576125b78282815181106125aa576125aa613472565b6020026020010151612ee9565b806125c181613506565b91505061258c565b6004546001600160a01b031633146125e057600080fd5b600480546001600160a01b0319166001600160a01b0392909216919091179055565b3360009081526010602052604090205460ff1661261e57600080fd5b604080518481526020810183905233916001600160a01b038516917ff341246adaac6f497bc2a656f546ab9e182111d630394f0c57c710a59a2cb56791016123c4565b6000818152600d6020526040812080549091805b828110156128cc57600084828154811061269157612691613472565b6000918252602080832090910154888352600c825260408084206001600160a01b039092168085529190925291205490915080156128b7576001600160a01b038083166000908152600760205260409020546126ed9116612ee9565b6001600160a01b0382166000908152600b60205260408120805483929061271590849061369f565b90915550506000878152600c602090815260408083206001600160a01b03861684529091528120805483929061274c90849061369f565b90915550508015612870576001600160a01b038281166000908152600760209081526040808320548416835260099091529081902054905163278afc8b60e21b815260048101849052602481018a9052911690639e2bf22c90604401600060405180830381600087803b1580156127c257600080fd5b505af11580156127d6573d6000803e3d6000fd5b505050506001600160a01b0382811660009081526007602090815260408083205484168352600a9091529081902054905163278afc8b60e21b815260048101849052602481018a9052911690639e2bf22c90604401600060405180830381600087803b15801561284557600080fd5b505af1158015612859573d6000803e3d6000fd5b5050505080846128699190613582565b935061287d565b61287a818561369f565b93505b60408051888152602081018390527fa9f3ca5f8a9e1580edb2741e0ba560084ec72e0067ba3423f9e9327a176882db910160405180910390a15b505080806128c490613506565b915050612675565b5080600560008282546128df919061369f565b90915550506000848152600e60209081526040808320839055600d9091528120610c7891612fea565b61291183612661565b81516040516339f890b560e21b8152600481018590526000907f00000000000000000000000000000000000000000000000000000000000000006001600160a01b03169063e7e242d490602401602060405180830381865afa15801561297b573d6000803e3d6000fd5b505050506040513d601f19601f8201168201806040525081019061299f919061359a565b90506000806000805b858110156129e9578681815181106129c2576129c2613472565b6020026020010151846129d59190613582565b9350806129e181613506565b9150506129a8565b5060005b85811015612cd2576000888281518110612a0957612a09613472565b6020908102919091018101516001600160a01b038082166000908152600784526040808220549092168082526010909452205490925060ff1615612cbd57600086888b8681518110612a5d57612a5d613472565b6020026020010151612a6f9190613541565b612a79919061351f565b60008d8152600c602090815260408083206001600160a01b038816845290915290205490915015612aa957600080fd5b80600003612ab657600080fd5b612abf82612ee9565b60008c8152600d6020908152604080832080546001810182559084528284200180546001600160a01b0319166001600160a01b0388169081179091558352600b90915281208054839290612b14908490613582565b909155505060008c8152600c602090815260408083206001600160a01b038716845290915281208054839290612b4b908490613582565b90915550506001600160a01b038083166000908152600960205260409081902054905163f320772360e01b815260048101849052602481018f905291169063f320772390604401600060405180830381600087803b158015612bac57600080fd5b505af1158015612bc0573d6000803e3d6000fd5b50505050600a6000836001600160a01b03166001600160a01b0316815260200190815260200160002060009054906101000a90046001600160a01b03166001600160a01b031663f3207723828e6040518363ffffffff1660e01b8152600401612c33929190918252602082015260400190565b600060405180830381600087803b158015612c4d57600080fd5b505af1158015612c61573d6000803e3d6000fd5b505050508085612c719190613582565b9450612c7d8187613582565b604080518e81526020810184905291975033917fea66f58e474bc09f580000e81f31b334d171db387d0c6098ba47bd897741679b910160405180910390a2505b50508080612cca90613506565b9150506129ed565b508015612d545760405163fd4a77f160e01b8152600481018990527f00000000000000000000000000000000000000000000000000000000000000006001600160a01b03169063fd4a77f190602401600060405180830381600087803b158015612d3b57600080fd5b505af1158015612d4f573d6000803e3d6000fd5b505050505b8160056000828254612d669190613582565b90915550506000978852600e602052604090972096909655505050505050565b6000846001600160a01b03163b11612d9d57600080fd5b604080516001600160a01b0385811660248301528481166044830152606480830185905283518084039091018152608490920183526020820180516001600160e01b03166323b872dd60e01b1790529151600092839290881691612e0191906136b6565b6000604051808303816000865af19150503d8060008114612e3e576040519150601f19603f3d011682016040523d82523d6000602084013e612e43565b606091505b5091509150818015612e6d575080511580612e6d575080806020019051810190612e6d9190613560565b610a7957600080fd5b6001600160a01b03811660009081526011602052604090205460ff1615612e9c57600080fd5b6001600160a01b038116600081815260116020526040808220805460ff191660011790555133917f6661a7108aecd07864384529117d96c319c1163e3010c01390f6b704726e07de91a350565b6001600160a01b03808216600090815260086020908152604080832054909316808352600b909152919020548015612fc9576001600160a01b038316600090815260156020526040812080546014549182905591612f47838361369f565b90508015610a79576000670de0b6b3a7640000612f648387613541565b612f6e919061351f565b6001600160a01b03881660009081526012602052604090205490915060ff1615612fc0576001600160a01b03871660009081526016602052604081208054839290612fba908490613582565b90915550505b50505050505050565b6014546001600160a01b038416600090815260156020526040902055505050565b508054600082559060005260206000209081019061137a91905b808211156130185760008155600101613004565b5090565b6001600160a01b038116811461137a57600080fd5b60006020828403121561304357600080fd5b813561304e8161301c565b9392505050565b634e487b7160e01b600052604160045260246000fd5b604051601f8201601f1916810167ffffffffffffffff8111828210171561309457613094613055565b604052919050565b600067ffffffffffffffff8211156130b6576130b6613055565b5060051b60200190565b600082601f8301126130d157600080fd5b813560206130e66130e18361309c565b61306b565b82815260059290921b8401810191818101908684111561310557600080fd5b8286015b8481101561312957803561311c8161301c565b8352918301918301613109565b509695505050505050565b600082601f83011261314557600080fd5b813560206131556130e18361309c565b82815260059290921b8401810191818101908684111561317457600080fd5b8286015b8481101561312957803567ffffffffffffffff8111156131985760008081fd5b6131a68986838b01016130c0565b845250918301918301613178565b600080604083850312156131c757600080fd5b823567ffffffffffffffff808211156131df57600080fd5b6131eb868387016130c0565b9350602085013591508082111561320157600080fd5b5061320e85828601613134565b9150509250929050565b60006020828403121561322a57600080fd5b5035919050565b6000806040838503121561324457600080fd5b8235915060208301356132568161301c565b809150509250929050565b6000806040838503121561327457600080fd5b823567ffffffffffffffff81111561328b57600080fd5b613297858286016130c0565b92505060208301356132568161301c565b6000602082840312156132ba57600080fd5b813567ffffffffffffffff8111156132d157600080fd5b6132dd848285016130c0565b949350505050565b6000806000606084860312156132fa57600080fd5b833567ffffffffffffffff8082111561331257600080fd5b61331e878388016130c0565b9450602086013591508082111561333457600080fd5b5061334186828701613134565b925050604084013590509250925092565b6000806040838503121561336557600080fd5b50508035926020909101359150565b60008083601f84011261338657600080fd5b50813567ffffffffffffffff81111561339e57600080fd5b6020830191508360208260051b85010111156133b957600080fd5b9250929050565b6000806000806000606086880312156133d857600080fd5b85359450602086013567ffffffffffffffff808211156133f757600080fd5b61340389838a01613374565b9096509450604088013591508082111561341c57600080fd5b5061342988828901613374565b969995985093965092949392505050565b60008060006060848603121561344f57600080fd5b8335925060208401356134618161301c565b929592945050506040919091013590565b634e487b7160e01b600052603260045260246000fd5b600081518084526020808501945080840160005b838110156134c15781516001600160a01b03168752958201959082019060010161349c565b509495945050505050565b6001600160a01b03831681526040602082018190526000906132dd90830184613488565b634e487b7160e01b600052601160045260246000fd5b600060018201613518576135186134f0565b5060010190565b60008261353c57634e487b7160e01b600052601260045260246000fd5b500490565b600081600019048311821515161561355b5761355b6134f0565b500290565b60006020828403121561357257600080fd5b8151801515811461304e57600080fd5b60008219821115613595576135956134f0565b500190565b6000602082840312156135ac57600080fd5b5051919050565b8281526040602082015260006132dd6040830184613488565b600080604083850312156135df57600080fd5b82516135ea8161301c565b60208401519092506132568161301c565b60208152600061304e6020830184613488565b60006020828403121561362057600080fd5b815161304e8161301c565b6001600160a01b0387811682528681166020830152858116604083015284166060820152821515608082015260c060a0820181905260009061366f90830184613488565b98975050505050505050565b6000806040838503121561368e57600080fd5b505080516020909101519092909150565b6000828210156136b1576136b16134f0565b500390565b6000825160005b818110156136d757602081860181015185830152016136bd565b818111156136e6576000828501525b50919091019291505056fea2646970667358221220a3ca9e8d225c9064a70396b32eb8b5bea9e45f9f1f0d915fc22a0d1062fe588164736f6c634300080d0033",
  "devdoc": {
    "kind": "dev",
    "methods": {},
    "version": 1
  },
  "userdoc": {
    "kind": "user",
    "methods": {},
    "version": 1
  },
  "storageLayout": {
    "storage": [
      {
        "astId": 14722,
        "contract": "contracts/Voter.sol:Voter",
        "label": "multisig",
        "offset": 0,
        "slot": "0",
        "type": "t_address"
      },
      {
        "astId": 14725,
        "contract": "contracts/Voter.sol:Voter",
        "label": "turnstile",
        "offset": 0,
        "slot": "1",
        "type": "t_address"
      },
      {
        "astId": 14742,
        "contract": "contracts/Voter.sol:Voter",
        "label": "minter",
        "offset": 0,
        "slot": "2",
        "type": "t_address"
      },
      {
        "astId": 14744,
        "contract": "contracts/Voter.sol:Voter",
        "label": "governor",
        "offset": 0,
        "slot": "3",
        "type": "t_address"
      },
      {
        "astId": 14746,
        "contract": "contracts/Voter.sol:Voter",
        "label": "emergencyCouncil",
        "offset": 0,
        "slot": "4",
        "type": "t_address"
      },
      {
        "astId": 14748,
        "contract": "contracts/Voter.sol:Voter",
        "label": "totalWeight",
        "offset": 0,
        "slot": "5",
        "type": "t_uint256"
      },
      {
        "astId": 14751,
        "contract": "contracts/Voter.sol:Voter",
        "label": "pools",
        "offset": 0,
        "slot": "6",
        "type": "t_array(t_address)dyn_storage"
      },
      {
        "astId": 14755,
        "contract": "contracts/Voter.sol:Voter",
        "label": "gauges",
        "offset": 0,
        "slot": "7",
        "type": "t_mapping(t_address,t_address)"
      },
      {
        "astId": 14759,
        "contract": "contracts/Voter.sol:Voter",
        "label": "poolForGauge",
        "offset": 0,
        "slot": "8",
        "type": "t_mapping(t_address,t_address)"
      },
      {
        "astId": 14763,
        "contract": "contracts/Voter.sol:Voter",
        "label": "internal_bribes",
        "offset": 0,
        "slot": "9",
        "type": "t_mapping(t_address,t_address)"
      },
      {
        "astId": 14767,
        "contract": "contracts/Voter.sol:Voter",
        "label": "external_bribes",
        "offset": 0,
        "slot": "10",
        "type": "t_mapping(t_address,t_address)"
      },
      {
        "astId": 14771,
        "contract": "contracts/Voter.sol:Voter",
        "label": "weights",
        "offset": 0,
        "slot": "11",
        "type": "t_mapping(t_address,t_uint256)"
      },
      {
        "astId": 14777,
        "contract": "contracts/Voter.sol:Voter",
        "label": "votes",
        "offset": 0,
        "slot": "12",
        "type": "t_mapping(t_uint256,t_mapping(t_address,t_uint256))"
      },
      {
        "astId": 14782,
        "contract": "contracts/Voter.sol:Voter",
        "label": "poolVote",
        "offset": 0,
        "slot": "13",
        "type": "t_mapping(t_uint256,t_array(t_address)dyn_storage)"
      },
      {
        "astId": 14786,
        "contract": "contracts/Voter.sol:Voter",
        "label": "usedWeights",
        "offset": 0,
        "slot": "14",
        "type": "t_mapping(t_uint256,t_uint256)"
      },
      {
        "astId": 14790,
        "contract": "contracts/Voter.sol:Voter",
        "label": "lastVoted",
        "offset": 0,
        "slot": "15",
        "type": "t_mapping(t_uint256,t_uint256)"
      },
      {
        "astId": 14794,
        "contract": "contracts/Voter.sol:Voter",
        "label": "isGauge",
        "offset": 0,
        "slot": "16",
        "type": "t_mapping(t_address,t_bool)"
      },
      {
        "astId": 14798,
        "contract": "contracts/Voter.sol:Voter",
        "label": "isWhitelisted",
        "offset": 0,
        "slot": "17",
        "type": "t_mapping(t_address,t_bool)"
      },
      {
        "astId": 14802,
        "contract": "contracts/Voter.sol:Voter",
        "label": "isAlive",
        "offset": 0,
        "slot": "18",
        "type": "t_mapping(t_address,t_bool)"
      },
      {
        "astId": 14963,
        "contract": "contracts/Voter.sol:Voter",
        "label": "_unlocked",
        "offset": 0,
        "slot": "19",
        "type": "t_uint256"
      },
      {
        "astId": 16096,
        "contract": "contracts/Voter.sol:Voter",
        "label": "index",
        "offset": 0,
        "slot": "20",
        "type": "t_uint256"
      },
      {
        "astId": 16100,
        "contract": "contracts/Voter.sol:Voter",
        "label": "supplyIndex",
        "offset": 0,
        "slot": "21",
        "type": "t_mapping(t_address,t_uint256)"
      },
      {
        "astId": 16104,
        "contract": "contracts/Voter.sol:Voter",
        "label": "claimable",
        "offset": 0,
        "slot": "22",
        "type": "t_mapping(t_address,t_uint256)"
      }
    ],
    "types": {
      "t_address": {
        "encoding": "inplace",
        "label": "address",
        "numberOfBytes": "20"
      },
      "t_array(t_address)dyn_storage": {
        "base": "t_address",
        "encoding": "dynamic_array",
        "label": "address[]",
        "numberOfBytes": "32"
      },
      "t_bool": {
        "encoding": "inplace",
        "label": "bool",
        "numberOfBytes": "1"
      },
      "t_mapping(t_address,t_address)": {
        "encoding": "mapping",
        "key": "t_address",
        "label": "mapping(address => address)",
        "numberOfBytes": "32",
        "value": "t_address"
      },
      "t_mapping(t_address,t_bool)": {
        "encoding": "mapping",
        "key": "t_address",
        "label": "mapping(address => bool)",
        "numberOfBytes": "32",
        "value": "t_bool"
      },
      "t_mapping(t_address,t_uint256)": {
        "encoding": "mapping",
        "key": "t_address",
        "label": "mapping(address => uint256)",
        "numberOfBytes": "32",
        "value": "t_uint256"
      },
      "t_mapping(t_uint256,t_array(t_address)dyn_storage)": {
        "encoding": "mapping",
        "key": "t_uint256",
        "label": "mapping(uint256 => address[])",
        "numberOfBytes": "32",
        "value": "t_array(t_address)dyn_storage"
      },
      "t_mapping(t_uint256,t_mapping(t_address,t_uint256))": {
        "encoding": "mapping",
        "key": "t_uint256",
        "label": "mapping(uint256 => mapping(address => uint256))",
        "numberOfBytes": "32",
        "value": "t_mapping(t_address,t_uint256)"
      },
      "t_mapping(t_uint256,t_uint256)": {
        "encoding": "mapping",
        "key": "t_uint256",
        "label": "mapping(uint256 => uint256)",
        "numberOfBytes": "32",
        "value": "t_uint256"
      },
      "t_uint256": {
        "encoding": "inplace",
        "label": "uint256",
        "numberOfBytes": "32"
      }
    }
  }
}