{
  "address": "0x19E1eef506eE61A58d1AAa11635361bBaE5D0676",
  "abi": [
    {
      "inputs": [
        {
          "internalType": "address",
          "name": "_voting_escrow",
          "type": "address"
        }
      ],
      "stateMutability": "nonpayable",
      "type": "constructor"
    },
    {
      "anonymous": false,
      "inputs": [
        {
          "indexed": false,
          "internalType": "uint256",
          "name": "time",
          "type": "uint256"
        },
        {
          "indexed": false,
          "internalType": "uint256",
          "name": "tokens",
          "type": "uint256"
        }
      ],
      "name": "CheckpointToken",
      "type": "event"
    },
    {
      "anonymous": false,
      "inputs": [
        {
          "indexed": false,
          "internalType": "uint256",
          "name": "tokenId",
          "type": "uint256"
        },
        {
          "indexed": false,
          "internalType": "uint256",
          "name": "amount",
          "type": "uint256"
        },
        {
          "indexed": false,
          "internalType": "uint256",
          "name": "claim_epoch",
          "type": "uint256"
        },
        {
          "indexed": false,
          "internalType": "uint256",
          "name": "max_epoch",
          "type": "uint256"
        }
      ],
      "name": "Claimed",
      "type": "event"
    },
    {
      "inputs": [],
      "name": "checkpoint_token",
      "outputs": [],
      "stateMutability": "nonpayable",
      "type": "function"
    },
    {
      "inputs": [],
      "name": "checkpoint_total_supply",
      "outputs": [],
      "stateMutability": "nonpayable",
      "type": "function"
    },
    {
      "inputs": [
        {
          "internalType": "uint256",
          "name": "_tokenId",
          "type": "uint256"
        }
      ],
      "name": "claim",
      "outputs": [
        {
          "internalType": "uint256",
          "name": "",
          "type": "uint256"
        }
      ],
      "stateMutability": "nonpayable",
      "type": "function"
    },
    {
      "inputs": [
        {
          "internalType": "uint256[]",
          "name": "_tokenIds",
          "type": "uint256[]"
        }
      ],
      "name": "claim_many",
      "outputs": [
        {
          "internalType": "bool",
          "name": "",
          "type": "bool"
        }
      ],
      "stateMutability": "nonpayable",
      "type": "function"
    },
    {
      "inputs": [
        {
          "internalType": "uint256",
          "name": "_tokenId",
          "type": "uint256"
        }
      ],
      "name": "claimable",
      "outputs": [
        {
          "internalType": "uint256",
          "name": "",
          "type": "uint256"
        }
      ],
      "stateMutability": "view",
      "type": "function"
    },
    {
      "inputs": [],
      "name": "depositor",
      "outputs": [
        {
          "internalType": "address",
          "name": "",
          "type": "address"
        }
      ],
      "stateMutability": "view",
      "type": "function"
    },
    {
      "inputs": [],
      "name": "last_token_time",
      "outputs": [
        {
          "internalType": "uint256",
          "name": "",
          "type": "uint256"
        }
      ],
      "stateMutability": "view",
      "type": "function"
    },
    {
      "inputs": [
        {
          "internalType": "address",
          "name": "_depositor",
          "type": "address"
        }
      ],
      "name": "setDepositor",
      "outputs": [],
      "stateMutability": "nonpayable",
      "type": "function"
    },
    {
      "inputs": [],
      "name": "start_time",
      "outputs": [
        {
          "internalType": "uint256",
          "name": "",
          "type": "uint256"
        }
      ],
      "stateMutability": "view",
      "type": "function"
    },
    {
      "inputs": [],
      "name": "time_cursor",
      "outputs": [
        {
          "internalType": "uint256",
          "name": "",
          "type": "uint256"
        }
      ],
      "stateMutability": "view",
      "type": "function"
    },
    {
      "inputs": [
        {
          "internalType": "uint256",
          "name": "",
          "type": "uint256"
        }
      ],
      "name": "time_cursor_of",
      "outputs": [
        {
          "internalType": "uint256",
          "name": "",
          "type": "uint256"
        }
      ],
      "stateMutability": "view",
      "type": "function"
    },
    {
      "inputs": [],
      "name": "timestamp",
      "outputs": [
        {
          "internalType": "uint256",
          "name": "",
          "type": "uint256"
        }
      ],
      "stateMutability": "view",
      "type": "function"
    },
    {
      "inputs": [],
      "name": "token",
      "outputs": [
        {
          "internalType": "address",
          "name": "",
          "type": "address"
        }
      ],
      "stateMutability": "view",
      "type": "function"
    },
    {
      "inputs": [],
      "name": "token_last_balance",
      "outputs": [
        {
          "internalType": "uint256",
          "name": "",
          "type": "uint256"
        }
      ],
      "stateMutability": "view",
      "type": "function"
    },
    {
      "inputs": [
        {
          "internalType": "uint256",
          "name": "",
          "type": "uint256"
        }
      ],
      "name": "tokens_per_week",
      "outputs": [
        {
          "internalType": "uint256",
          "name": "",
          "type": "uint256"
        }
      ],
      "stateMutability": "view",
      "type": "function"
    },
    {
      "inputs": [
        {
          "internalType": "uint256",
          "name": "",
          "type": "uint256"
        }
      ],
      "name": "user_epoch_of",
      "outputs": [
        {
          "internalType": "uint256",
          "name": "",
          "type": "uint256"
        }
      ],
      "stateMutability": "view",
      "type": "function"
    },
    {
      "inputs": [
        {
          "internalType": "uint256",
          "name": "_tokenId",
          "type": "uint256"
        },
        {
          "internalType": "uint256",
          "name": "_timestamp",
          "type": "uint256"
        }
      ],
      "name": "ve_for_at",
      "outputs": [
        {
          "internalType": "uint256",
          "name": "",
          "type": "uint256"
        }
      ],
      "stateMutability": "view",
      "type": "function"
    },
    {
      "inputs": [
        {
          "internalType": "uint256",
          "name": "",
          "type": "uint256"
        }
      ],
      "name": "ve_supply",
      "outputs": [
        {
          "internalType": "uint256",
          "name": "",
          "type": "uint256"
        }
      ],
      "stateMutability": "view",
      "type": "function"
    },
    {
      "inputs": [],
      "name": "voting_escrow",
      "outputs": [
        {
          "internalType": "address",
          "name": "",
          "type": "address"
        }
      ],
      "stateMutability": "view",
      "type": "function"
    }
  ],
  "transactionHash": "0x186f03187c964e8faebb67ba606195dc0cc7bddd6db7c2d079b81ad299409240",
  "args": [
    "0x990efF367C6c4aece43c1E98099061c897730F27"
  ],
  "numDeployments": 1,
  "solcInputHash": "35e0ac8ae47caef0caca6801c152e6fb",
  "bytecode": "0x6080604052600080546001600160a01b0319908116730a178469e3d08beaa0a289e416ab924f10807989179091556001805490911673ecf044c5b4b867cfda001101c617ecd347095b441790553480156200005957600080fd5b5060405162001c7838038062001c788339810160408190526200007c916200025d565b600062093a806200008e81426200028f565b6200009a9190620002b2565b90508060028190555080600681905550806003819055506000826001600160a01b031663fc0c546a6040518163ffffffff1660e01b8152600401602060405180830381865afa158015620000f2573d6000803e3d6000fd5b505050506040513d601f19601f820116820180604052508101906200011891906200025d565b66038d7ea4c6800880546001600160a01b038381166001600160a01b0319928316811790935566038d7ea4c6800780549188169183168217905566071afd498d000a8054909216331790915560405163095ea7b360e01b8152600481019190915260001960248201529192509063095ea7b3906044016020604051808303816000875af1158015620001ae573d6000803e3d6000fd5b505050506040513d601f19601f82011682018060405250810190620001d49190620002e0565b620001de57600080fd5b600154600054604051632210724360e11b81526001600160a01b039182166004820152911690634420e486906024016020604051808303816000875af11580156200022d573d6000803e3d6000fd5b505050506040513d601f19601f8201168201806040525081019062000253919062000304565b505050506200031e565b6000602082840312156200027057600080fd5b81516001600160a01b03811681146200028857600080fd5b9392505050565b600082620002ad57634e487b7160e01b600052601260045260246000fd5b500490565b6000816000190483118215151615620002db57634e487b7160e01b600052601160045260246000fd5b500290565b600060208284031215620002f357600080fd5b815180151581146200028857600080fd5b6000602082840312156200031757600080fd5b5051919050565b61194a806200032e6000396000f3fe608060405234801561001057600080fd5b50600436106101215760003560e01c8063834ee417116100ad578063d4dafba811610071578063d4dafba81461024a578063dfe050311461025d578063edf5999714610276578063f2c098b714610289578063fc0c546a1461029c57600080fd5b8063834ee417146101ed578063b21ed502146101f6578063b80777ea146101fe578063c7c4ff4614610206578063d1d58b251461023757600080fd5b8063379607f5116100f4578063379607f514610194578063486d25fe146101a757806368809889146101c75780637f58e8f8146101da578063811a40fe146101e357600080fd5b8063127dcbd31461012657806316aea5c0146101425780631f1db0431461016257806322b04bfc14610185575b600080fd5b61012f60035481565b6040519081526020015b60405180910390f35b61012f610150366004611568565b60056020526000908152604090205481565b6101756101703660046115c8565b6102b5565b6040519015158152602001610139565b61012f66038d7ea4c680095481565b61012f6101a2366004611568565b6103fb565b61012f6101b5366004611568565b60046020526000908152604090205481565b61012f6101d536600461166e565b6104e5565b61012f60065481565b6101eb610628565b005b61012f60025481565b6101eb610652565b61012f61065a565b66071afd498d000a5461021f906001600160a01b031681565b6040516001600160a01b039091168152602001610139565b61012f610245366004611568565b610679565b61012f610258366004611568565b6106b9565b66038d7ea4c680075461021f906001600160a01b031681565b61012f610284366004611568565b6106dc565b6101eb610297366004611690565b6106f2565b66038d7ea4c680085461021f906001600160a01b031681565b600060035442106102c8576102c8610737565b60065462093a806102d981836116cf565b6102e391906116f1565b66038d7ea4c68007549091506001600160a01b03166000805b85518110156103cb57600086828151811061031957610319611710565b602002602001015190508060000361033157506103cb565b600061033e8286886108da565b905080156103b657604051631dd33fc560e31b815260048101839052602481018290526001600160a01b0386169063ee99fe2890604401600060405180830381600087803b15801561038f57600080fd5b505af11580156103a3573d6000803e3d6000fd5b5050505080846103b39190611726565b93505b505080806103c39061173e565b9150506102fc565b5080156103f0578066038d7ea4c6800960008282546103ea9190611757565b90915550505b506001949350505050565b6000600354421061040e5761040e610737565b60065462093a8061041f81836116cf565b61042991906116f1565b66038d7ea4c680075490915060009061044d9085906001600160a01b0316846108da565b905080156104de5766038d7ea4c6800754604051631dd33fc560e31b815260048101869052602481018390526001600160a01b039091169063ee99fe2890604401600060405180830381600087803b1580156104a857600080fd5b505af11580156104bc573d6000803e3d6000fd5b505050508066038d7ea4c6800960008282546104d89190611757565b90915550505b9392505050565b66038d7ea4c680075460405163391044d760e21b8152600481018490526000916001600160a01b0316908290829063e441135c90602401602060405180830381865afa158015610539573d6000803e3d6000fd5b505050506040513d601f19601f8201168201806040525081019061055d919061176e565b9050600061056d83878785610cff565b6040516309bb79ed60e11b815260048101889052602481018290529091506000906001600160a01b03851690631376f3da90604401608060405180830381865afa1580156105bf573d6000803e3d6000fd5b505050506040513d601f19601f820116820180604052508101906105e3919061179e565b905061061d8160400151876105f89190611757565b82602001516106079190611810565b825161061391906118ae565b600f0b6000610df3565b979650505050505050565b66071afd498d000a546001600160a01b03163314610648576106486118fe565b610650610e09565b565b610650610737565b600062093a8061066a81426116cf565b61067491906116f1565b905090565b60008062093a808060065461068e91906116cf565b61069891906116f1565b66038d7ea4c68007549091506104de9084906001600160a01b031683611066565b66038d7ea4c6800a8166038d7ea4c6800081106106d557600080fd5b0154905081565b60078166038d7ea4c6800081106106d557600080fd5b66071afd498d000a546001600160a01b0316331461070f57600080fd5b66071afd498d000a80546001600160a01b0319166001600160a01b0392909216919091179055565b66038d7ea4c68007546003546001600160a01b0390911690600062093a8061075f81426116cf565b61076991906116f1565b9050826001600160a01b031663c2c4c5c16040518163ffffffff1660e01b8152600401600060405180830381600087803b1580156107a657600080fd5b505af11580156107ba573d6000803e3d6000fd5b5050505060005b60148110156108d2578183116108d25760006107dd8585611404565b60405163d1febfb960e01b8152600481018290529091506000906001600160a01b0387169063d1febfb990602401608060405180830381865afa158015610828573d6000803e3d6000fd5b505050506040513d601f19601f8201168201806040525081019061084c919061179e565b90506000816040015186111561086e57604082015161086b9087611757565b90505b61088d8183602001516108819190611810565b835161061391906118ae565b66038d7ea4c6800a8766038d7ea4c6800081106108ac576108ac611710565b01555050506108be62093a8084611726565b9250806108ca8161173e565b9150506107c1565b505060035550565b60405163391044d760e21b8152600481018490526000908190819081906001600160a01b0387169063e441135c90602401602060405180830381865afa158015610928573d6000803e3d6000fd5b505050506040513d601f19601f8201168201806040525081019061094c919061176e565b60025490915060008290036109685760009450505050506104de565b600088815260046020526040812054908190036109925761098b888a8486610cff565b94506109a4565b60008981526005602052604090205494505b846000036109b157600194505b6040516309bb79ed60e11b8152600481018a9052602481018690526000906001600160a01b038a1690631376f3da90604401608060405180830381865afa158015610a00573d6000803e3d6000fd5b505050506040513d601f19601f82011682018060405250810190610a24919061179e565b905081600003610a695762093a8080600162093a808460400151610a489190611726565b610a529190611757565b610a5c91906116cf565b610a6691906116f1565b91505b6006548210610a8157600096505050505050506104de565b82821015610a8d578291505b6040805160808101825260008082526020820181905291810182905260608101829052905b6032811015610c745789841015610c745782604001518410158015610ad75750858811155b15610b9d57610ae7600189611726565b975082915085881115610b265760405180608001604052806000600f0b81526020016000600f0b81526020016000815260200160008152509250610c62565b6040516309bb79ed60e11b8152600481018d9052602481018990526001600160a01b038c1690631376f3da90604401608060405180830381865afa158015610b72573d6000803e3d6000fd5b505050506040513d601f19601f82011682018060405250810190610b96919061179e565b9250610c62565b6000826040015185610baf9190611757565b90506000610bd2846020015183610bc69190611810565b855161061391906118ae565b905080158015610be15750878a115b15610bed575050610c74565b8015610c505766038d7ea4c6800a8666038d7ea4c680008110610c1257610c12611710565b015460078766038d7ea4c680008110610c2d57610c2d611710565b0154610c3990836116f1565b610c4391906116cf565b610c4d908a611726565b98505b610c5d62093a8087611726565b955050505b80610c6c8161173e565b915050610ab2565b50610c8985610c8460018a611757565b611559565b60008c8152600560209081526040808320849055600482529182902086905581518e8152908101899052908101829052606081018790529097507fcae2990aa9af8eb1c64713b7eddb3a80bf18e49a94a13fe0d0002b5d61d58f009060800160405180910390a150939998505050505050505050565b60008082815b6080811015610de75781831015610de75760006002610d248486611726565b610d2f906002611726565b610d3991906116cf565b6040516309bb79ed60e11b8152600481018a9052602481018290529091506000906001600160a01b038b1690631376f3da90604401608060405180830381865afa158015610d8b573d6000803e3d6000fd5b505050506040513d601f19601f82011682018060405250810190610daf919061179e565b905087816040015111610dc457819450610dd2565b610dcf600183611757565b93505b50508080610ddf9061173e565b915050610d05565b50909695505050505050565b6000818311610e0257816104de565b5090919050565b66038d7ea4c68008546040516370a0823160e01b81523060048201526000916001600160a01b0316906370a0823190602401602060405180830381865afa158015610e58573d6000803e3d6000fd5b505050506040513d601f19601f82011682018060405250810190610e7c919061176e565b9050600066038d7ea4c680095482610e949190611757565b66038d7ea4c680098390556006549091506000610eb18242611757565b426006559050600062093a80610ec781856116cf565b610ed191906116f1565b90506000805b601481101561102457610eed62093a8084611726565b915081421015610f765783158015610f0457508442145b15610f3e578560078466038d7ea4c680008110610f2357610f23611710565b016000828254610f339190611726565b909155506110249050565b83610f498642611757565b610f5390886116f1565b610f5d91906116cf565b60078466038d7ea4c680008110610f2357610f23611710565b83158015610f8357508482145b15610fbd578560078466038d7ea4c680008110610fa257610fa2611710565b016000828254610fb29190611726565b9091555061100b9050565b83610fc88684611757565b610fd290886116f1565b610fdc91906116cf565b60078466038d7ea4c680008110610ff557610ff5611710565b0160008282546110059190611726565b90915550505b819450819250808061101c9061173e565b915050610ed7565b5060408051428152602081018790527fce749457b74e10f393f2c6b1ce4261b78791376db5a3f501477a809f03f500d6910160405180910390a1505050505050565b60405163391044d760e21b8152600481018490526000908190819081906001600160a01b0387169063e441135c90602401602060405180830381865afa1580156110b4573d6000803e3d6000fd5b505050506040513d601f19601f820116820180604052508101906110d8919061176e565b60025490915060008290036110f45760009450505050506104de565b6000888152600460205260408120549081900361111e57611117888a8486610cff565b9450611130565b60008981526005602052604090205494505b8460000361113d57600194505b6040516309bb79ed60e11b8152600481018a9052602481018690526000906001600160a01b038a1690631376f3da90604401608060405180830381865afa15801561118c573d6000803e3d6000fd5b505050506040513d601f19601f820116820180604052508101906111b0919061179e565b9050816000036111f55762093a8080600162093a8084604001516111d49190611726565b6111de9190611757565b6111e891906116cf565b6111f291906116f1565b91505b600654821061120d57600096505050505050506104de565b82821015611219578291505b6040805160808101825260008082526020820181905291810182905260608101829052905b60328110156113f457898410156113f457826040015184101580156112635750858811155b1561132957611273600189611726565b9750829150858811156112b25760405180608001604052806000600f0b81526020016000600f0b815260200160008152602001600081525092506113e2565b6040516309bb79ed60e11b8152600481018d9052602481018990526001600160a01b038c1690631376f3da90604401608060405180830381865afa1580156112fe573d6000803e3d6000fd5b505050506040513d601f19601f82011682018060405250810190611322919061179e565b92506113e2565b600082604001518561133b9190611757565b90506000611352846020015183610bc69190611810565b9050801580156113615750878a115b1561136d5750506113f4565b80156113d05766038d7ea4c6800a8666038d7ea4c68000811061139257611392611710565b015460078766038d7ea4c6800081106113ad576113ad611710565b01546113b990836116f1565b6113c391906116cf565b6113cd908a611726565b98505b6113dd62093a8087611726565b955050505b806113ec8161173e565b91505061123e565b50949a9950505050505050505050565b600080600090506000846001600160a01b031663900cf0cf6040518163ffffffff1660e01b8152600401602060405180830381865afa15801561144b573d6000803e3d6000fd5b505050506040513d601f19601f8201168201806040525081019061146f919061176e565b905060005b608081101561154f578183101561154f57600060026114938486611726565b61149e906002611726565b6114a891906116cf565b60405163d1febfb960e01b8152600481018290529091506000906001600160a01b0389169063d1febfb990602401608060405180830381865afa1580156114f3573d6000803e3d6000fd5b505050506040513d601f19601f82011682018060405250810190611517919061179e565b90508681604001511161152c5781945061153a565b611537600183611757565b93505b505080806115479061173e565b915050611474565b5090949350505050565b6000818310610e0257816104de565b60006020828403121561157a57600080fd5b5035919050565b634e487b7160e01b600052604160045260246000fd5b604051601f8201601f1916810167ffffffffffffffff811182821017156115c0576115c0611581565b604052919050565b600060208083850312156115db57600080fd5b823567ffffffffffffffff808211156115f357600080fd5b818501915085601f83011261160757600080fd5b81358181111561161957611619611581565b8060051b915061162a848301611597565b818152918301840191848101908884111561164457600080fd5b938501935b8385101561166257843582529385019390850190611649565b98975050505050505050565b6000806040838503121561168157600080fd5b50508035926020909101359150565b6000602082840312156116a257600080fd5b81356001600160a01b03811681146104de57600080fd5b634e487b7160e01b600052601160045260246000fd5b6000826116ec57634e487b7160e01b600052601260045260246000fd5b500490565b600081600019048311821515161561170b5761170b6116b9565b500290565b634e487b7160e01b600052603260045260246000fd5b60008219821115611739576117396116b9565b500190565b600060018201611750576117506116b9565b5060010190565b600082821015611769576117696116b9565b500390565b60006020828403121561178057600080fd5b5051919050565b8051600f81900b811461179957600080fd5b919050565b6000608082840312156117b057600080fd5b6040516080810181811067ffffffffffffffff821117156117d3576117d3611581565b6040526117df83611787565b81526117ed60208401611787565b602082015260408301516040820152606083015160608201528091505092915050565b600081600f0b83600f0b60016001607f1b03600082136000841383830485118282161615611840576118406116b9565b6f7fffffffffffffffffffffffffffffff19600085128281168783058712161561186c5761186c6116b9565b60008712925085820587128484161615611888576118886116b9565b8585058712818416161561189e5761189e6116b9565b5050509290910295945050505050565b600081600f0b83600f0b600081128160016001607f1b0319018312811516156118d9576118d96116b9565b8160016001607f1b030183138116156118f4576118f46116b9565b5090039392505050565b634e487b7160e01b600052600160045260246000fdfea2646970667358221220cc4304cf202eb7b51d7afe2f977b268103e0d2c7512c66d09d652277c18e5e1864736f6c634300080d0033",
  "devdoc": {
    "kind": "dev",
    "methods": {},
    "version": 1
  },
  "userdoc": {
    "kind": "user",
    "methods": {},
    "version": 1
  },
  "storageLayout": {
    "storage": [
      {
        "astId": 10250,
        "contract": "contracts/RewardsDistributor.sol:RewardsDistributor",
        "label": "multisig",
        "offset": 0,
        "slot": "0",
        "type": "t_address"
      },
      {
        "astId": 10253,
        "contract": "contracts/RewardsDistributor.sol:RewardsDistributor",
        "label": "turnstile",
        "offset": 0,
        "slot": "1",
        "type": "t_address"
      },
      {
        "astId": 10276,
        "contract": "contracts/RewardsDistributor.sol:RewardsDistributor",
        "label": "start_time",
        "offset": 0,
        "slot": "2",
        "type": "t_uint256"
      },
      {
        "astId": 10278,
        "contract": "contracts/RewardsDistributor.sol:RewardsDistributor",
        "label": "time_cursor",
        "offset": 0,
        "slot": "3",
        "type": "t_uint256"
      },
      {
        "astId": 10282,
        "contract": "contracts/RewardsDistributor.sol:RewardsDistributor",
        "label": "time_cursor_of",
        "offset": 0,
        "slot": "4",
        "type": "t_mapping(t_uint256,t_uint256)"
      },
      {
        "astId": 10286,
        "contract": "contracts/RewardsDistributor.sol:RewardsDistributor",
        "label": "user_epoch_of",
        "offset": 0,
        "slot": "5",
        "type": "t_mapping(t_uint256,t_uint256)"
      },
      {
        "astId": 10288,
        "contract": "contracts/RewardsDistributor.sol:RewardsDistributor",
        "label": "last_token_time",
        "offset": 0,
        "slot": "6",
        "type": "t_uint256"
      },
      {
        "astId": 10292,
        "contract": "contracts/RewardsDistributor.sol:RewardsDistributor",
        "label": "tokens_per_week",
        "offset": 0,
        "slot": "7",
        "type": "t_array(t_uint256)1000000000000000_storage"
      },
      {
        "astId": 10294,
        "contract": "contracts/RewardsDistributor.sol:RewardsDistributor",
        "label": "voting_escrow",
        "offset": 0,
        "slot": "1000000000000007",
        "type": "t_address"
      },
      {
        "astId": 10296,
        "contract": "contracts/RewardsDistributor.sol:RewardsDistributor",
        "label": "token",
        "offset": 0,
        "slot": "1000000000000008",
        "type": "t_address"
      },
      {
        "astId": 10298,
        "contract": "contracts/RewardsDistributor.sol:RewardsDistributor",
        "label": "token_last_balance",
        "offset": 0,
        "slot": "1000000000000009",
        "type": "t_uint256"
      },
      {
        "astId": 10302,
        "contract": "contracts/RewardsDistributor.sol:RewardsDistributor",
        "label": "ve_supply",
        "offset": 0,
        "slot": "1000000000000010",
        "type": "t_array(t_uint256)1000000000000000_storage"
      },
      {
        "astId": 10304,
        "contract": "contracts/RewardsDistributor.sol:RewardsDistributor",
        "label": "depositor",
        "offset": 0,
        "slot": "2000000000000010",
        "type": "t_address"
      }
    ],
    "types": {
      "t_address": {
        "encoding": "inplace",
        "label": "address",
        "numberOfBytes": "20"
      },
      "t_array(t_uint256)1000000000000000_storage": {
        "base": "t_uint256",
        "encoding": "inplace",
        "label": "uint256[1000000000000000]",
        "numberOfBytes": "32000000000000000"
      },
      "t_mapping(t_uint256,t_uint256)": {
        "encoding": "mapping",
        "key": "t_uint256",
        "label": "mapping(uint256 => uint256)",
        "numberOfBytes": "32",
        "value": "t_uint256"
      },
      "t_uint256": {
        "encoding": "inplace",
        "label": "uint256",
        "numberOfBytes": "32"
      }
    }
  }
}