{
  "address": "0x3a9238141a4655d0dC907e18BBf9c21b843F09c7",
  "abi": [
    {
      "inputs": [],
      "stateMutability": "nonpayable",
      "type": "constructor"
    },
    {
      "inputs": [
        {
          "internalType": "address",
          "name": "existing_bribe",
          "type": "address"
        }
      ],
      "name": "createBribe",
      "outputs": [
        {
          "internalType": "address",
          "name": "",
          "type": "address"
        }
      ],
      "stateMutability": "nonpayable",
      "type": "function"
    },
    {
      "inputs": [],
      "name": "last_bribe",
      "outputs": [
        {
          "internalType": "address",
          "name": "",
          "type": "address"
        }
      ],
      "stateMutability": "view",
      "type": "function"
    },
    {
      "inputs": [
        {
          "internalType": "address",
          "name": "",
          "type": "address"
        }
      ],
      "name": "oldBribeToNew",
      "outputs": [
        {
          "internalType": "address",
          "name": "",
          "type": "address"
        }
      ],
      "stateMutability": "view",
      "type": "function"
    },
    {
      "inputs": [
        {
          "internalType": "address",
          "name": "_voter",
          "type": "address"
        }
      ],
      "name": "setVoter",
      "outputs": [],
      "stateMutability": "nonpayable",
      "type": "function"
    },
    {
      "inputs": [],
      "name": "voter",
      "outputs": [
        {
          "internalType": "address",
          "name": "",
          "type": "address"
        }
      ],
      "stateMutability": "view",
      "type": "function"
    }
  ],
  "transactionHash": "0xcfca807be156baa05697cfc25850242fcb593e2fcfdc895f810143f8d13872d0",
  "args": [],
  "numDeployments": 1,
  "solcInputHash": "35e0ac8ae47caef0caca6801c152e6fb",
  "bytecode": "0x6080604052600080546001600160a01b0319908116730a178469e3d08beaa0a289e416ab924f10807989179091556001805490911673ecf044c5b4b867cfda001101c617ecd347095b4417905534801561005857600080fd5b50600154600054604051632210724360e11b81526001600160a01b039182166004820152911690634420e486906024016020604051808303816000875af11580156100a7573d6000803e3d6000fd5b505050506040513d601f19601f820116820180604052508101906100cb91906100d1565b506100ea565b6000602082840312156100e357600080fd5b5051919050565b611e0f806100f96000396000f3fe608060405234801561001057600080fd5b50600436106100575760003560e01c80632fcd8f271461005c57806346c96aac146100a15780634bc2a657146100b45780636bd1a72c146100c9578063b1d0fc82146100dc575b600080fd5b61008561006a366004610287565b6003602052600090815260409020546001600160a01b031681565b6040516001600160a01b03909116815260200160405180910390f35b600254610085906001600160a01b031681565b6100c76100c2366004610287565b6100ef565b005b6100856100d7366004610287565b61017a565b600454610085906001600160a01b031681565b600154600160a01b900460ff16156101445760405162461bcd60e51b8152602060048201526013602482015272105b1c9958591e481a5b9a5d1a585b1a5e9959606a1b60448201526064015b60405180910390fd5b600280546001600160a01b039092166001600160a01b03199092169190911790556001805460ff60a01b1916600160a01b179055565b6001600160a01b03818116600090815260036020526040812054909116156101e45760405162461bcd60e51b815260206004820152601d60248201527f5772617070656420627269626520616c72656164792063726561746564000000604482015260640161013b565b6002546040516001600160a01b039091169083906102019061027a565b6001600160a01b03928316815291166020820152604001604051809103906000f080158015610234573d6000803e3d6000fd5b50600480546001600160a01b039283166001600160a01b031991821681178355948316600090815260036020526040902080549091169094179093559154909116919050565b611b22806102b883390190565b60006020828403121561029957600080fd5b81356001600160a01b03811681146102b057600080fd5b939250505056fe60c0604052600080546001600160a01b0319908116730a178469e3d08beaa0a289e416ab924f10807989179091556001805490911673ecf044c5b4b867cfda001101c617ecd347095b441781556008553480156200005c57600080fd5b5060405162001b2238038062001b228339810160408190526200007f9162000335565b6001600160a01b038216608081905260408051638dd598fb60e01b81529051638dd598fb916004808201926020929091908290030181865afa158015620000ca573d6000803e3d6000fd5b505050506040513d601f19601f82011682018060405250810190620000f091906200036d565b6001600160a01b0390811660a052600280546001600160a01b03191691831691909117905560005b600260009054906101000a90046001600160a01b03166001600160a01b031663e68863966040518163ffffffff1660e01b8152600401602060405180830381865afa1580156200016c573d6000803e3d6000fd5b505050506040513d601f19601f8201168201806040525081019062000192919062000392565b8110156200029957600254604051637980d7a160e11b8152600481018390526000916001600160a01b03169063f301af4290602401602060405180830381865afa158015620001e5573d6000803e3d6000fd5b505050506040513d601f19601f820116820180604052508101906200020b91906200036d565b90506001600160a01b0381161562000283576001600160a01b0381166000818152600760205260408120805460ff191660019081179091556006805491820181559091527ff652222313e28459528d920b65115c16c04f3efc82aaedc97be59f3f377c0d3f0180546001600160a01b03191690911790555b50806200029081620003ac565b91505062000118565b50600154600054604051632210724360e11b81526001600160a01b039182166004820152911690634420e486906024016020604051808303816000875af1158015620002e9573d6000803e3d6000fd5b505050506040513d601f19601f820116820180604052508101906200030f919062000392565b505050620003d4565b80516001600160a01b03811681146200033057600080fd5b919050565b600080604083850312156200034957600080fd5b620003548362000318565b9150620003646020840162000318565b90509250929050565b6000602082840312156200038057600080fd5b6200038b8262000318565b9392505050565b600060208284031215620003a557600080fd5b5051919050565b600060018201620003cd57634e487b7160e01b600052601160045260246000fd5b5060010190565b60805160a0516117056200041d600039600081816101e6015281816108f401528181610b1e0152610fd801526000818161014e01528181610adb0152610d1901526117056000f3fe608060405234801561001057600080fd5b506004361061010b5760003560e01c80639418f939116100a2578063da09d19d11610071578063da09d19d14610281578063e6886396146102a1578063f25e55a5146102a9578063f301af42146102d4578063f5f8d365146102e757600080fd5b80639418f9391461023357806399bcc05214610248578063a7852afa1461025b578063b66503cf1461026e57600080fd5b8063638634ee116100de578063638634ee146101bb5780636c4f5398146101ce5780638dd598fb146101e157806392777b291461020857600080fd5b80630175e23b146101105780633e491d471461013657806346c96aac146101495780634d5ce03814610188575b600080fd5b61012361011e366004611394565b6102fa565b6040519081526020015b60405180910390f35b6101236101443660046113d5565b61033c565b6101707f000000000000000000000000000000000000000000000000000000000000000081565b6040516001600160a01b03909116815260200161012d565b6101ab610196366004611401565b60076020526000908152604090205460ff1681565b604051901515815260200161012d565b6101236101c9366004611401565b6108ce565b600254610170906001600160a01b031681565b6101707f000000000000000000000000000000000000000000000000000000000000000081565b6101236102163660046113d5565b600360209081526000928352604080842090915290825290205481565b61024661024136600461141e565b6108f2565b005b610123610256366004611401565b610a83565b610246610269366004611476565b610abc565b61024661027c3660046113d5565b610cbc565b61012361028f366004611401565b60046020526000908152604090205481565b600654610123565b6101236102b73660046113d5565b600560209081526000928352604080842090915290825290205481565b6101706102e2366004611394565b610f7e565b6102466102f5366004611476565b610fa8565b6000806103068361117c565b9050600061031762093a808361155d565b90508084106103325761032d8262093a8061155d565b610334565b815b949350505050565b6001600160a01b038281166000908152600560209081526040808320858452909152808220546002549151635058979360e01b81526004810186905292939092911690635058979390602401602060405180830381865afa1580156103a5573d6000803e3d6000fd5b505050506040513d601f19601f820116820180604052508101906103c99190611575565b6000036103da5760009150506108c8565b6002546040516328a3532760e21b815260048101859052602481018390526000916001600160a01b03169063a28d4c9c90604401602060405180830381865afa15801561042b573d6000803e3d6000fd5b505050506040513d601f19601f8201168201806040525081019061044f9190611575565b600254604051635058979360e01b8152600481018790529192506000916001916001600160a01b031690635058979390602401602060405180830381865afa15801561049f573d6000803e3d6000fd5b505050506040513d601f19601f820116820180604052508101906104c39190611575565b6104cd919061158e565b905060006104ee604051806040016040528060008152602001600081525090565b6104f78561117c565b8152600080600185156106f457865b61051160018861158e565b81116106f257600254604051631277308160e21b8152600481018d9052602481018390526001600160a01b03909116906349dcc204906044016040805180830381865afa158015610566573d6000803e3d6000fd5b505050506040513d601f19601f8201168201806040525081019061058a91906115a5565b9094509250600061059a8561117c565b86519091508111156105b85760208601516105b5908861155d565b96505b8086526002546001600160a01b031663f7412baf816376f4be366105df62093a808661155d565b6040518263ffffffff1660e01b81526004016105fd91815260200190565b602060405180830381865afa15801561061a573d6000803e3d6000fd5b505050506040513d601f19601f8201168201806040525081019061063e9190611575565b6040518263ffffffff1660e01b815260040161065c91815260200190565b6040805180830381865afa158015610678573d6000803e3d6000fd5b505050506040513d601f19601f8201168201806040525081019061069c91906115a5565b6001600160a01b038f1660009081526003602090815260408083208684529091529020549094508491506106d090866115c9565b6106da91906115fe565b602087015250806106ea81611612565b915050610506565b505b600254604051631277308160e21b8152600481018c9052602481018890526001600160a01b03909116906349dcc204906044016040805180830381865afa158015610743573d6000803e3d6000fd5b505050506040513d601f19601f8201168201806040525081019061076791906115a5565b909350915060006107778461117c565b9050600061078862093a808361155d565b905080421180156107985750808a105b156108bb57600254604051633b7a5f1b60e11b8152600481018390526001600160a01b039091169063f7412baf9082906376f4be3690602401602060405180830381865afa1580156107ee573d6000803e3d6000fd5b505050506040513d601f19601f820116820180604052508101906108129190611575565b6040518263ffffffff1660e01b815260040161083091815260200190565b6040805180830381865afa15801561084c573d6000803e3d6000fd5b505050506040513d601f19601f8201168201806040525081019061087091906115a5565b6001600160a01b038f1660009081526003602090815260408083208784529091529020549094508491506108a490866115c9565b6108ae91906115fe565b6108b8908861155d565b96505b5094985050505050505050505b92915050565b6001600160a01b0381166000908152600460205260408120546108c8904290611195565b7f00000000000000000000000000000000000000000000000000000000000000006001600160a01b03166385f2aef26040518163ffffffff1660e01b81526004016020604051808303816000875af1158015610952573d6000803e3d6000fd5b505050506040513d601f19601f82011682018060405250810190610976919061162b565b6001600160a01b0316336001600160a01b0316146109c75760405162461bcd60e51b81526020600482015260096024820152686f6e6c79207465616d60b81b60448201526064015b60405180910390fd5b816001600160a01b0316600684815481106109e4576109e4611648565b6000918252602090912001546001600160a01b031614610a0357600080fd5b6001600160a01b03808316600090815260076020526040808220805460ff1990811690915592841682529020805490911660011790556006805482919085908110610a5057610a50611648565b9060005260206000200160006101000a8154816001600160a01b0302191690836001600160a01b03160217905550505050565b600080610a8f426102fa565b6001600160a01b039093166000908152600360209081526040808320958352949052929092205492915050565b600854600114610acb57600080fd5b6002600855336001600160a01b037f00000000000000000000000000000000000000000000000000000000000000001614610b0557600080fd5b6040516331a9108f60e11b8152600481018390526000907f00000000000000000000000000000000000000000000000000000000000000006001600160a01b031690636352211e90602401602060405180830381865afa158015610b6d573d6000803e3d6000fd5b505050506040513d601f19601f82011682018060405250810190610b91919061162b565b905060005b8251811015610cb1576000610bc4848381518110610bb657610bb6611648565b60200260200101518661033c565b90504260056000868581518110610bdd57610bdd611648565b6020908102919091018101516001600160a01b0316825281810192909252604090810160009081208982529092529020558015610c3857610c38848381518110610c2957610c29611648565b602002602001015184836111ad565b838281518110610c4a57610c4a611648565b60200260200101516001600160a01b0316836001600160a01b03167f9aa05b3d70a9e3e2f004f039648839560576334fb45c81f91b6db03ad9e2efc983604051610c9691815260200190565b60405180910390a35080610ca981611612565b915050610b96565b505060016008555050565b600854600114610ccb57600080fd5b600260085580610cda57600080fd5b6001600160a01b03821660009081526007602052604090205460ff16610e2257604051633af32abf60e01b81526001600160a01b0383811660048301527f00000000000000000000000000000000000000000000000000000000000000001690633af32abf90602401602060405180830381865afa158015610d60573d6000803e3d6000fd5b505050506040513d601f19601f82011682018060405250810190610d84919061165e565b610dd05760405162461bcd60e51b815260206004820181905260248201527f627269626520746f6b656e73206d7573742062652077686974656c697374656460448201526064016109be565b600654601011610e225760405162461bcd60e51b815260206004820152601760248201527f746f6f206d616e79207265776172647320746f6b656e7300000000000000000060448201526064016109be565b6000610e2d426102fa565b6001600160a01b0384166000908152600360209081526040808320848452909152902054909150610e608433308661129c565b610e6a838261155d565b6001600160a01b0385166000908152600360209081526040808320868452909152902055610e9b62093a808361155d565b6001600160a01b03851660009081526004602090815260408083209390935560079052205460ff16610f2d576001600160a01b0384166000818152600760205260408120805460ff191660019081179091556006805491820181559091527ff652222313e28459528d920b65115c16c04f3efc82aaedc97be59f3f377c0d3f0180546001600160a01b03191690911790555b60408051838152602081018590526001600160a01b0386169133917f52977ea98a2220a03ee9ba5cb003ada08d394ea10155483c95dc2dc77a7eb24b910160405180910390a3505060016008555050565b60068181548110610f8e57600080fd5b6000918252602090912001546001600160a01b0316905081565b600854600114610fb757600080fd5b600260085560405163430c208160e01b8152336004820152602481018390527f00000000000000000000000000000000000000000000000000000000000000006001600160a01b03169063430c208190604401602060405180830381865afa158015611027573d6000803e3d6000fd5b505050506040513d601f19601f8201168201806040525081019061104b919061165e565b61105457600080fd5b60005b815181101561117257600061108583838151811061107757611077611648565b60200260200101518561033c565b9050426005600085858151811061109e5761109e611648565b6020908102919091018101516001600160a01b03168252818101929092526040908101600090812088825290925290205580156110f9576110f98383815181106110ea576110ea611648565b602002602001015133836111ad565b82828151811061110b5761110b611648565b60200260200101516001600160a01b0316336001600160a01b03167f9aa05b3d70a9e3e2f004f039648839560576334fb45c81f91b6db03ad9e2efc98360405161115791815260200190565b60405180910390a3508061116a81611612565b915050611057565b5050600160085550565b600061118b62093a8083611680565b6108c8908361158e565b60008183106111a457816111a6565b825b9392505050565b6000836001600160a01b03163b116111c457600080fd5b604080516001600160a01b038481166024830152604480830185905283518084039091018152606490920183526020820180516001600160e01b031663a9059cbb60e01b17905291516000928392908716916112209190611694565b6000604051808303816000865af19150503d806000811461125d576040519150601f19603f3d011682016040523d82523d6000602084013e611262565b606091505b509150915081801561128c57508051158061128c57508080602001905181019061128c919061165e565b61129557600080fd5b5050505050565b6000846001600160a01b03163b116112b357600080fd5b604080516001600160a01b0385811660248301528481166044830152606480830185905283518084039091018152608490920183526020820180516001600160e01b03166323b872dd60e01b17905291516000928392908816916113179190611694565b6000604051808303816000865af19150503d8060008114611354576040519150601f19603f3d011682016040523d82523d6000602084013e611359565b606091505b5091509150818015611383575080511580611383575080806020019051810190611383919061165e565b61138c57600080fd5b505050505050565b6000602082840312156113a657600080fd5b5035919050565b6001600160a01b03811681146113c257600080fd5b50565b80356113d0816113ad565b919050565b600080604083850312156113e857600080fd5b82356113f3816113ad565b946020939093013593505050565b60006020828403121561141357600080fd5b81356111a6816113ad565b60008060006060848603121561143357600080fd5b833592506020840135611445816113ad565b91506040840135611455816113ad565b809150509250925092565b634e487b7160e01b600052604160045260246000fd5b6000806040838503121561148957600080fd5b8235915060208084013567ffffffffffffffff808211156114a957600080fd5b818601915086601f8301126114bd57600080fd5b8135818111156114cf576114cf611460565b8060051b604051601f19603f830116810181811085821117156114f4576114f4611460565b60405291825284820192508381018501918983111561151257600080fd5b938501935b8285101561153757611528856113c5565b84529385019392850192611517565b8096505050505050509250929050565b634e487b7160e01b600052601160045260246000fd5b6000821982111561157057611570611547565b500190565b60006020828403121561158757600080fd5b5051919050565b6000828210156115a0576115a0611547565b500390565b600080604083850312156115b857600080fd5b505080516020909101519092909150565b60008160001904831182151516156115e3576115e3611547565b500290565b634e487b7160e01b600052601260045260246000fd5b60008261160d5761160d6115e8565b500490565b60006001820161162457611624611547565b5060010190565b60006020828403121561163d57600080fd5b81516111a6816113ad565b634e487b7160e01b600052603260045260246000fd5b60006020828403121561167057600080fd5b815180151581146111a657600080fd5b60008261168f5761168f6115e8565b500690565b6000825160005b818110156116b5576020818601810151858301520161169b565b818111156116c4576000828501525b50919091019291505056fea2646970667358221220c9e5bbe2fafd43594ae504434755e0ffecca5247f78513515dcf3316b8bdfbdc64736f6c634300080d0033a2646970667358221220cdc870c083366d0871181bb5d744add4a7bda16ad74a60ac74131de93c4305d064736f6c634300080d0033",
  "devdoc": {
    "kind": "dev",
    "methods": {},
    "version": 1
  },
  "userdoc": {
    "kind": "user",
    "methods": {},
    "version": 1
  },
  "storageLayout": {
    "storage": [
      {
        "astId": 22500,
        "contract": "contracts/factories/WrappedExternalBribeFactory.sol:WrappedExternalBribeFactory",
        "label": "multisig",
        "offset": 0,
        "slot": "0",
        "type": "t_address"
      },
      {
        "astId": 22503,
        "contract": "contracts/factories/WrappedExternalBribeFactory.sol:WrappedExternalBribeFactory",
        "label": "turnstile",
        "offset": 0,
        "slot": "1",
        "type": "t_address"
      },
      {
        "astId": 22505,
        "contract": "contracts/factories/WrappedExternalBribeFactory.sol:WrappedExternalBribeFactory",
        "label": "_initialized",
        "offset": 20,
        "slot": "1",
        "type": "t_bool"
      },
      {
        "astId": 22507,
        "contract": "contracts/factories/WrappedExternalBribeFactory.sol:WrappedExternalBribeFactory",
        "label": "voter",
        "offset": 0,
        "slot": "2",
        "type": "t_address"
      },
      {
        "astId": 22511,
        "contract": "contracts/factories/WrappedExternalBribeFactory.sol:WrappedExternalBribeFactory",
        "label": "oldBribeToNew",
        "offset": 0,
        "slot": "3",
        "type": "t_mapping(t_address,t_address)"
      },
      {
        "astId": 22513,
        "contract": "contracts/factories/WrappedExternalBribeFactory.sol:WrappedExternalBribeFactory",
        "label": "last_bribe",
        "offset": 0,
        "slot": "4",
        "type": "t_address"
      }
    ],
    "types": {
      "t_address": {
        "encoding": "inplace",
        "label": "address",
        "numberOfBytes": "20"
      },
      "t_bool": {
        "encoding": "inplace",
        "label": "bool",
        "numberOfBytes": "1"
      },
      "t_mapping(t_address,t_address)": {
        "encoding": "mapping",
        "key": "t_address",
        "label": "mapping(address => address)",
        "numberOfBytes": "32",
        "value": "t_address"
      }
    }
  }
}