{
  "address": "0x0dBe98C98A29EB01d0499B3ba8E0d92E48bcAC83",
  "abi": [
    {
      "inputs": [],
      "stateMutability": "nonpayable",
      "type": "constructor"
    },
    {
      "anonymous": false,
      "inputs": [
        {
          "indexed": true,
          "internalType": "address",
          "name": "owner",
          "type": "address"
        },
        {
          "indexed": true,
          "internalType": "address",
          "name": "spender",
          "type": "address"
        },
        {
          "indexed": false,
          "internalType": "uint256",
          "name": "value",
          "type": "uint256"
        }
      ],
      "name": "Approval",
      "type": "event"
    },
    {
      "anonymous": false,
      "inputs": [
        {
          "indexed": true,
          "internalType": "address",
          "name": "from",
          "type": "address"
        },
        {
          "indexed": true,
          "internalType": "address",
          "name": "to",
          "type": "address"
        },
        {
          "indexed": false,
          "internalType": "uint256",
          "name": "value",
          "type": "uint256"
        }
      ],
      "name": "Transfer",
      "type": "event"
    },
    {
      "inputs": [
        {
          "internalType": "address",
          "name": "",
          "type": "address"
        },
        {
          "internalType": "address",
          "name": "",
          "type": "address"
        }
      ],
      "name": "allowance",
      "outputs": [
        {
          "internalType": "uint256",
          "name": "",
          "type": "uint256"
        }
      ],
      "stateMutability": "view",
      "type": "function"
    },
    {
      "inputs": [
        {
          "internalType": "address",
          "name": "_spender",
          "type": "address"
        },
        {
          "internalType": "uint256",
          "name": "_value",
          "type": "uint256"
        }
      ],
      "name": "approve",
      "outputs": [
        {
          "internalType": "bool",
          "name": "",
          "type": "bool"
        }
      ],
      "stateMutability": "nonpayable",
      "type": "function"
    },
    {
      "inputs": [
        {
          "internalType": "address",
          "name": "",
          "type": "address"
        }
      ],
      "name": "balanceOf",
      "outputs": [
        {
          "internalType": "uint256",
          "name": "",
          "type": "uint256"
        }
      ],
      "stateMutability": "view",
      "type": "function"
    },
    {
      "inputs": [
        {
          "internalType": "address",
          "name": "account",
          "type": "address"
        },
        {
          "internalType": "uint256",
          "name": "amount",
          "type": "uint256"
        }
      ],
      "name": "claim",
      "outputs": [
        {
          "internalType": "bool",
          "name": "",
          "type": "bool"
        }
      ],
      "stateMutability": "nonpayable",
      "type": "function"
    },
    {
      "inputs": [],
      "name": "decimals",
      "outputs": [
        {
          "internalType": "uint8",
          "name": "",
          "type": "uint8"
        }
      ],
      "stateMutability": "view",
      "type": "function"
    },
    {
      "inputs": [
        {
          "internalType": "address",
          "name": "_recipient",
          "type": "address"
        }
      ],
      "name": "initialMint",
      "outputs": [],
      "stateMutability": "nonpayable",
      "type": "function"
    },
    {
      "inputs": [],
      "name": "initialMinted",
      "outputs": [
        {
          "internalType": "bool",
          "name": "",
          "type": "bool"
        }
      ],
      "stateMutability": "view",
      "type": "function"
    },
    {
      "inputs": [],
      "name": "merkleClaim",
      "outputs": [
        {
          "internalType": "address",
          "name": "",
          "type": "address"
        }
      ],
      "stateMutability": "view",
      "type": "function"
    },
    {
      "inputs": [
        {
          "internalType": "address",
          "name": "account",
          "type": "address"
        },
        {
          "internalType": "uint256",
          "name": "amount",
          "type": "uint256"
        }
      ],
      "name": "mint",
      "outputs": [
        {
          "internalType": "bool",
          "name": "",
          "type": "bool"
        }
      ],
      "stateMutability": "nonpayable",
      "type": "function"
    },
    {
      "inputs": [],
      "name": "minter",
      "outputs": [
        {
          "internalType": "address",
          "name": "",
          "type": "address"
        }
      ],
      "stateMutability": "view",
      "type": "function"
    },
    {
      "inputs": [],
      "name": "name",
      "outputs": [
        {
          "internalType": "string",
          "name": "",
          "type": "string"
        }
      ],
      "stateMutability": "view",
      "type": "function"
    },
    {
      "inputs": [],
      "name": "redemptionReceiver",
      "outputs": [
        {
          "internalType": "address",
          "name": "",
          "type": "address"
        }
      ],
      "stateMutability": "view",
      "type": "function"
    },
    {
      "inputs": [
        {
          "internalType": "address",
          "name": "_merkleClaim",
          "type": "address"
        }
      ],
      "name": "setMerkleClaim",
      "outputs": [],
      "stateMutability": "nonpayable",
      "type": "function"
    },
    {
      "inputs": [
        {
          "internalType": "address",
          "name": "_minter",
          "type": "address"
        }
      ],
      "name": "setMinter",
      "outputs": [],
      "stateMutability": "nonpayable",
      "type": "function"
    },
    {
      "inputs": [
        {
          "internalType": "address",
          "name": "_receiver",
          "type": "address"
        }
      ],
      "name": "setRedemptionReceiver",
      "outputs": [],
      "stateMutability": "nonpayable",
      "type": "function"
    },
    {
      "inputs": [],
      "name": "symbol",
      "outputs": [
        {
          "internalType": "string",
          "name": "",
          "type": "string"
        }
      ],
      "stateMutability": "view",
      "type": "function"
    },
    {
      "inputs": [],
      "name": "totalSupply",
      "outputs": [
        {
          "internalType": "uint256",
          "name": "",
          "type": "uint256"
        }
      ],
      "stateMutability": "view",
      "type": "function"
    },
    {
      "inputs": [
        {
          "internalType": "address",
          "name": "_to",
          "type": "address"
        },
        {
          "internalType": "uint256",
          "name": "_value",
          "type": "uint256"
        }
      ],
      "name": "transfer",
      "outputs": [
        {
          "internalType": "bool",
          "name": "",
          "type": "bool"
        }
      ],
      "stateMutability": "nonpayable",
      "type": "function"
    },
    {
      "inputs": [
        {
          "internalType": "address",
          "name": "_from",
          "type": "address"
        },
        {
          "internalType": "address",
          "name": "_to",
          "type": "address"
        },
        {
          "internalType": "uint256",
          "name": "_value",
          "type": "uint256"
        }
      ],
      "name": "transferFrom",
      "outputs": [
        {
          "internalType": "bool",
          "name": "",
          "type": "bool"
        }
      ],
      "stateMutability": "nonpayable",
      "type": "function"
    }
  ],
  "transactionHash": "0x94fa8e1547d0194682eec91506e670ef1c243bfc8840f777f292081c7476b327",
  "args": [],
  "numDeployments": 2,
  "solcInputHash": "5a103e709c602531e1653f28b960afe8",
  "bytecode": "0x6080604052600080546001600160a01b0319908116730a178469e3d08beaa0a289e416ab924f108079891782556001805490911673ecf044c5b4b867cfda001101c617ecd347095b4417905560025534801561005a57600080fd5b5060058054610100600160a81b031916336101008102919091179091556100829060006100fb565b50600154600054604051632210724360e11b81526001600160a01b039182166004820152911690634420e486906024016020604051808303816000875af11580156100d1573d6000803e3d6000fd5b505050506040513d601f19601f820116820180604052508101906100f5919061016d565b506101ac565b6000816002600082825461010f9190610186565b90915550506001600160a01b0383166000818152600360209081526040808320805487019055518581527fddf252ad1be2c89b69c2b068fc378daa952ba7f163c4a11628f55a4df523b3ef910160405180910390a350600192915050565b60006020828403121561017f57600080fd5b5051919050565b600082198211156101a757634e487b7160e01b600052601160045260246000fd5b500190565b610830806101bb6000396000f3fe608060405234801561001057600080fd5b50600436106101215760003560e01c806395d89b41116100ad578063d9b2e35511610071578063d9b2e355146102ae578063dd62ed3e146102c1578063e752c44a146102ec578063ec676a25146102ff578063fca3b5aa1461031257600080fd5b806395d89b4114610243578063a9059cbb14610266578063aad3ec9614610279578063c268f9ba1461028c578063ca1c4de9146102a157600080fd5b806323b872dd116100f457806323b872dd146101d0578063313ce567146101e357806340c10f19146101fd5780635e05fe501461021057806370a082311461022357600080fd5b806306fdde03146101265780630754617214610166578063095ea7b31461019657806318160ddd146101b9575b600080fd5b6101506040518060400160405280600b81526020016a2b32b637b1b4b6b2ba32b960a91b81525081565b60405161015d9190610690565b60405180910390f35b60055461017e9061010090046001600160a01b031681565b6040516001600160a01b03909116815260200161015d565b6101a96101a4366004610701565b610325565b604051901515815260200161015d565b6101c260025481565b60405190815260200161015d565b6101a96101de36600461072b565b610391565b6101eb601281565b60405160ff909116815260200161015d565b6101a961020b366004610701565b61040b565b60065461017e906001600160a01b031681565b6101c2610231366004610767565b60036020526000908152604090205481565b61015060405180604001604052806004815260200163464c4f5760e01b81525081565b6101a9610274366004610701565b61043e565b6101a9610287366004610701565b610452565b61029f61029a366004610767565b610481565b005b6005546101a99060ff1681565b61029f6102bc366004610767565b6104d3565b6101c26102cf366004610782565b600460209081526000928352604080842090915290825290205481565b60075461017e906001600160a01b031681565b61029f61030d366004610767565b610511565b61029f610320366004610767565b61054f565b3360008181526004602090815260408083206001600160a01b038716808552925280832085905551919290917f8c5be1e5ebec7d5bd14f71427d1e84f3dd0314c0f7b2291e5b200ac8c7c3b925906103809086815260200190565b60405180910390a350600192915050565b6001600160a01b038316600090815260046020908152604080832033845290915281205460001981146103f7576001600160a01b0385166000908152600460209081526040808320338452909152812080548592906103f19084906107cb565b90915550505b610402858585610593565b95945050505050565b60055460009061010090046001600160a01b0316331461042a57600080fd5b610434838361062a565b5060019392505050565b600061044b338484610593565b9392505050565b6006546000906001600160a01b031633148061047857506007546001600160a01b031633145b61042a57600080fd5b60055461010090046001600160a01b0316331480156104a3575060055460ff16155b6104ac57600080fd5b6005805460ff191660011790556104cf816b014adf4b7320334b9000000061062a565b5050565b60055461010090046001600160a01b031633146104ef57600080fd5b600680546001600160a01b0319166001600160a01b0392909216919091179055565b60055461010090046001600160a01b0316331461052d57600080fd5b600780546001600160a01b0319166001600160a01b0392909216919091179055565b60055461010090046001600160a01b0316331461056b57600080fd5b600580546001600160a01b0390921661010002610100600160a81b0319909216919091179055565b6001600160a01b0383166000908152600360205260408120805483919083906105bd9084906107cb565b90915550506001600160a01b03808416600081815260036020526040908190208054860190555190918616907fddf252ad1be2c89b69c2b068fc378daa952ba7f163c4a11628f55a4df523b3ef906106189086815260200190565b60405180910390a35060019392505050565b6000816002600082825461063e91906107e2565b90915550506001600160a01b0383166000818152600360209081526040808320805487019055518581527fddf252ad1be2c89b69c2b068fc378daa952ba7f163c4a11628f55a4df523b3ef9101610380565b600060208083528351808285015260005b818110156106bd578581018301518582016040015282016106a1565b818111156106cf576000604083870101525b50601f01601f1916929092016040019392505050565b80356001600160a01b03811681146106fc57600080fd5b919050565b6000806040838503121561071457600080fd5b61071d836106e5565b946020939093013593505050565b60008060006060848603121561074057600080fd5b610749846106e5565b9250610757602085016106e5565b9150604084013590509250925092565b60006020828403121561077957600080fd5b61044b826106e5565b6000806040838503121561079557600080fd5b61079e836106e5565b91506107ac602084016106e5565b90509250929050565b634e487b7160e01b600052601160045260246000fd5b6000828210156107dd576107dd6107b5565b500390565b600082198211156107f5576107f56107b5565b50019056fea26469706673582212206893b190e2f2fc3a48e63331bbe5856d659c34b5c0e87d34cfa805423489a39c64736f6c634300080d0033",
  "devdoc": {
    "kind": "dev",
    "methods": {},
    "version": 1
  },
  "userdoc": {
    "kind": "user",
    "methods": {},
    "version": 1
  },
  "storageLayout": {
    "storage": [
      {
        "astId": 1348,
        "contract": "contracts/Flow.sol:Flow",
        "label": "multisig",
        "offset": 0,
        "slot": "0",
        "type": "t_address"
      },
      {
        "astId": 1351,
        "contract": "contracts/Flow.sol:Flow",
        "label": "turnstile",
        "offset": 0,
        "slot": "1",
        "type": "t_address"
      },
      {
        "astId": 1363,
        "contract": "contracts/Flow.sol:Flow",
        "label": "totalSupply",
        "offset": 0,
        "slot": "2",
        "type": "t_uint256"
      },
      {
        "astId": 1367,
        "contract": "contracts/Flow.sol:Flow",
        "label": "balanceOf",
        "offset": 0,
        "slot": "3",
        "type": "t_mapping(t_address,t_uint256)"
      },
      {
        "astId": 1373,
        "contract": "contracts/Flow.sol:Flow",
        "label": "allowance",
        "offset": 0,
        "slot": "4",
        "type": "t_mapping(t_address,t_mapping(t_address,t_uint256))"
      },
      {
        "astId": 1375,
        "contract": "contracts/Flow.sol:Flow",
        "label": "initialMinted",
        "offset": 0,
        "slot": "5",
        "type": "t_bool"
      },
      {
        "astId": 1377,
        "contract": "contracts/Flow.sol:Flow",
        "label": "minter",
        "offset": 1,
        "slot": "5",
        "type": "t_address"
      },
      {
        "astId": 1379,
        "contract": "contracts/Flow.sol:Flow",
        "label": "redemptionReceiver",
        "offset": 0,
        "slot": "6",
        "type": "t_address"
      },
      {
        "astId": 1381,
        "contract": "contracts/Flow.sol:Flow",
        "label": "merkleClaim",
        "offset": 0,
        "slot": "7",
        "type": "t_address"
      }
    ],
    "types": {
      "t_address": {
        "encoding": "inplace",
        "label": "address",
        "numberOfBytes": "20"
      },
      "t_bool": {
        "encoding": "inplace",
        "label": "bool",
        "numberOfBytes": "1"
      },
      "t_mapping(t_address,t_mapping(t_address,t_uint256))": {
        "encoding": "mapping",
        "key": "t_address",
        "label": "mapping(address => mapping(address => uint256))",
        "numberOfBytes": "32",
        "value": "t_mapping(t_address,t_uint256)"
      },
      "t_mapping(t_address,t_uint256)": {
        "encoding": "mapping",
        "key": "t_address",
        "label": "mapping(address => uint256)",
        "numberOfBytes": "32",
        "value": "t_uint256"
      },
      "t_uint256": {
        "encoding": "inplace",
        "label": "uint256",
        "numberOfBytes": "32"
      }
    }
  }
}